:020000040800F2
:10000000000002208523000831170008351700087A
:10001000391700083D1700084117000800000000CC
:10002000000000000000000000000000451700086C
:1000300049170008000000004D170008511700087C
:10004000D5230008D5230008D5230008D5230008B0
:10005000D5230008D5230008D5230008D5230008A0
:10006000D5230008D5230008D5230008D523000890
:10007000D5230008D5230008D5230008D523000880
:10008000D5230008D5230008D5230008D523000870
:10009000D5230008D5230008D5230008D523000860
:1000A000D5230008D5230008D5230008D523000850
:1000B000D5230008D5230008D5230008D523000840
:1000C000D5230008D5230008D5230008D523000830
:1000D000D5230008D5230008D5230008D523000820
:1000E000D5230008D5230008D5230008D523000810
:1000F000D5230008D5230008D5230008D523000800
:10010000D5230008D5230008D5230008D5230008EF
:10011000D5230008D5230008D5230008D5230008DF
:10012000D5230008D5230008D5230008D5230008CF
:10013000D52300080000000000000000D5230008BF
:10014000D5230008D5230008D5230008D5230008AF
:10015000D5230008D5230008D5230008D52300089F
:10016000D5230008D5230008D5230008D52300088F
:10017000D5230008D5230008D5230008000000007F
:1001800000000000D523000800000000000000006F
:10019000D52300080000000000000000D52300085F
:1001A000000000000000000000000000D52300084F
:1001B000D5230008D5230008D5230008D52300083F
:0401C000D52300083B
:1001D00010B5054C237833B9044B13B10448AFF381
:1001E00000800123237010BD680000200000000083
:1001F000F032000808B5034B1BB103490348AFF3C5
:10020000008008BD000000006C000020F0320008F3
:1002100001F0FF01102A2BDB10F0070F08D010F8B7
:10022000013B013A8B422DD010F0070F42B3F6D1BB
:10023000F0B441EA012141EA014122F007047FF0D4
:1002400000070023F0E80256083C85EA010586EA2B
:10025000010685FA47F5A3FA87F586FA47F6A5FA67
:1002600087F68EB9EED1F0BC01F0FF0102F0070273
:1002700032B110F8013B013A83EA010313B1F8D11E
:100280000020704701387047002D06BF35460338FF
:10029000073815F0010F07D1013015F4807F02BF38
:1002A000013015F4C03F0130F0BC0138704700BF89
:1002B00081F0004102E000BF83F0004330B54FEA17
:1002C00041044FEA430594EA050F08BF90EA020F84
:1002D0001FBF54EA000C55EA020C7FEA645C7FEA17
:1002E000655C00F0E2804FEA5454D4EB5555B8BF3A
:1002F0006D420CDD2C4480EA020281EA030382EAAB
:10030000000083EA010180EA020281EA0303362D3C
:1003100088BF30BD11F0004F4FEA01314FF4801C0F
:100320004CEA113102D0404261EB410113F0004F21
:100330004FEA03334CEA133302D0524263EB4303D8
:1003400094EA050F00F0A780A4F10104D5F1200E76
:100350000DDB02FA0EFC22FA05F2801841F10001D1
:1003600003FA0EF2801843FA05F359410EE0A5F1A5
:1003700020050EF1200E012A03FA0EFC28BF4CF0D6
:10038000020C43FA05F3C01851EBE37101F000458C
:1003900007D54FF0000EDCF1000C7EEB00006EEB99
:1003A0000101B1F5801F1BD3B1F5001F0CD3490823
:1003B0005FEA30004FEA3C0C04F101044FEA44527A
:1003C00012F5800F80F09A80BCF1004F08BF5FEA01
:1003D000500C50F1000041EB045141EA050130BDE1
:1003E0005FEA4C0C404141EB0101013C28BFB1F5F3
:1003F000801FE9D291F0000F04BF01460020B1FA3E
:1004000081F308BF2033A3F10B03B3F120020CDA10
:100410000C3208DD02F1140CC2F10C0201FA0CF0EE
:1004200021FA02F10CE002F11402D8BFC2F1200C53
:1004300001FA02F120FA0CFCDCBF41EA0C01904009
:10044000E41AA2BF01EB0451294330BD6FEA040452
:100450001F3C1CDA0C340EDC04F11404C4F120023D
:1004600020FA04F001FA02F340EA030021FA04F34F
:1004700045EA030130BDC4F10C04C4F1200220FAA6
:1004800002F001FA04F340EA0300294630BD21FAE4
:1004900004F0294630BD94F0000F83F4801306BFAA
:1004A00081F480110134013D4EE77FEA645C18BF9E
:1004B0007FEA655C29D094EA050F08BF90EA020F35
:1004C00005D054EA000C04BF1946104630BD91EA2D
:1004D000030F1EBF0021002030BD5FEA545C05D130
:1004E0004000494128BF41F0004130BD14F580046F
:1004F0003CBF01F5801130BD01F0004545F0FE41E3
:1005000041F470014FF0000030BD7FEA645C1ABF17
:10051000194610467FEA655C1CBF0B46024650EA4E
:10052000013406BF52EA033591EA030F41F400217A
:1005300030BD00BF90F0000F04BF0021704730B500
:100540004FF4806404F132044FF000054FF00001D5
:1005500050E700BF90F0000F04BF0021704730B596
:100560004FF4806404F1320410F0004548BF40426B
:100570004FF000013EE700BF42004FEAE2014FEAC0
:1005800031014FEA02701FBF12F07F4393F07F4F9B
:1005900081F06051704732F07F4208BF704793F09E
:1005A0007F4F04BF41F40021704730B54FF46074B1
:1005B00001F0004521F000411CE700BF50EA0102B4
:1005C00008BF704730B54FF000050AE050EA01025D
:1005D00008BF704730B511F0004502D5404261EBCD
:1005E00041014FF4806404F132045FEA915C3FF40E
:1005F000D8AE4FF003025FEADC0C18BF03325FEAAB
:10060000DC0C18BF033202EBDC02C2F1200300FA5B
:1006100003FC20FA02F001FA03FE40EA0E0021FA80
:1006200002F11444BDE600BF70B54FF0FF0C4CF46E
:10063000E06C1CEA11541DBF1CEA135594EA0C0F20
:1006400095EA0C0F00F0DEF82C4481EA030621EA5B
:100650004C5123EA4C5350EA013518BF52EA033596
:1006600041F4801143F4801338D0A0FB02CE4FF048
:100670000005E1FB02E506F00042E0FB03E54FF078
:100680000006E1FB03569CF0000F18BF4EF0010E70
:10069000A4F1FF04B6F5007F64F5407404D25FEA6C
:1006A0004E0E6D4146EB060642EAC62141EA55511F
:1006B0004FEAC52040EA5E504FEACE2EB4F1FD0C61
:1006C00088BFBCF5E06F1ED8BEF1004F08BF5FEADF
:1006D000500E50F1000041EB045170BD06F0004691
:1006E00046EA010140EA020081EA0301B4EB5C043E
:1006F000C2BFD4EB0C0541EA045170BD41F4801136
:100700004FF0000E013C00F3AB8014F1360FDEBF5A
:10071000002001F0004170BDC4F10004203C35DA36
:100720000C341BDC04F11404C4F1200500FA05F3B9
:1007300020FA04F001FA05F240EA020001F000425A
:1007400021F0004110EBD37021FA04F642EB0601D0
:100750005EEA430E08BF20EAD37070BDC4F10C04FA
:10076000C4F1200500FA04F320FA05F001FA04F2BE
:1007700040EA020001F0004110EBD37041F10001AA
:100780005EEA430E08BF20EAD37070BDC4F12005B5
:1007900000FA05F24EEA020E20FA04F301FA05F21D
:1007A00043EA020321FA04F001F0004121FA04F2C5
:1007B00020EA020000EBD3705EEA430E08BF20EA95
:1007C000D37070BD94F0000F0FD101F000464000CF
:1007D00041EB010111F4801F08BF013CF7D041EA51
:1007E000060195F0000F18BF704703F00046520055
:1007F00043EB030313F4801F08BF013DF7D043EA26
:100800000603704794EA0C0F0CEA135518BF95EADB
:100810000C0F0CD050EA410618BF52EA4306D1D162
:1008200081EA030101F000414FF0000070BD50EA81
:10083000410606BF1046194652EA430619D094EA0B
:100840000C0F02D150EA013613D195EA0C0F05D1F5
:1008500052EA03361CBF104619460AD181EA030149
:1008600001F0004141F0FE4141F470014FF0000001
:1008700070BD41F0FE4141F4780170BD70B54FF09C
:10088000FF0C4CF4E06C1CEA11541DBF1CEA13551C
:1008900094EA0C0F95EA0C0F00F0A7F8A4EB0504FE
:1008A00081EA030E52EA03354FEA013100F08880F5
:1008B0004FEA03334FF0805545EA131343EA1263BE
:1008C0004FEA022245EA111545EA10654FEA002673
:1008D0000EF000419D4208BF964244F1FD0404F52C
:1008E000407402D25B084FEA3202B61A65EB030588
:1008F0005B084FEA32024FF480104FF4002CB6EB45
:10090000020E75EB030E22BFB61A754640EA0C00C4
:100910005B084FEA3202B6EB020E75EB030E22BF04
:10092000B61A754640EA5C005B084FEA3202B6EB45
:10093000020E75EB030E22BFB61A754640EA9C0004
:100940005B084FEA3202B6EB020E75EB030E22BFD4
:10095000B61A754640EADC0055EA060E18D04FEA92
:10096000051545EA16754FEA06164FEAC30343EA32
:1009700052734FEAC2025FEA1C1CC0D111F4801FFF
:100980000BD141EA00014FF000004FF0004CB6E7F8
:1009900011F4801F04BF01430020B4F1FD0C88BF97
:1009A000BCF5E06F3FF6AFAEB5EB030C04BFB6EBA2
:1009B000020C5FEA500C50F1000041EB045170BD95
:1009C0000EF0004E4EEA113114EB5C04C2BFD4EBC2
:1009D0000C0541EA045170BD41F480114FF0000E46
:1009E000013C90E645EA060E8DE60CEA135594EAC2
:1009F0000C0F08BF95EA0C0F3FF43BAF94EA0C0FC5
:100A00000AD150EA01347FF434AF95EA0C0F7FF439
:100A100025AF104619462CE795EA0C0F06D152EA8D
:100A200003353FF4FDAE1046194622E750EA410671
:100A300018BF52EA43067FF4C5AE50EA41047FF482
:100A40000DAF52EA43057FF4EBAE12E74FF0FF3CE7
:100A500006E000BF4FF0010C02E000BF4FF0010CB8
:100A60004DF804CD4FEA410C7FEA6C5C4FEA430C31
:100A700018BF7FEA6C5C1BD001B050EA410C0CBF80
:100A800052EA430C91EA030F02BF90EA020F0020E2
:100A9000704710F1000F91EA030F58BF994208BF49
:100AA00090422CBFD8176FEAE37040F00100704706
:100AB0004FEA410C7FEA6C5C02D150EA013C07D15D
:100AC0004FEA430C7FEA6C5CD6D152EA033CD3D0A8
:100AD0005DF8040B704700BF8446104662468C46A2
:100AE0001946634600E000BF01B5FFF7B7FF0028D5
:100AF00048BF10F1000F01BD4DF808EDFFF7F4FFFE
:100B00000CBF012000205DF808FB00BF4DF808ED88
:100B1000FFF7EAFF34BF012000205DF808FB00BFAB
:100B20004DF808EDFFF7E0FF94BF012000205DF8CD
:100B300008FB00BF4DF808EDFFF7CEFF94BF012082
:100B400000205DF808FB00BF4DF808EDFFF7C4FF7B
:100B500034BF012000205DF808FB00BF53B94AB93B
:100B6000002908BF00281CBF4FF0FF314FF0FF30B5
:100B700000F088B9ADF1080C6DE904CE00F006F87C
:100B8000DDF804E0DDE9022304B070472DE9F04709
:100B9000089D8E4604468846002B4AD18A42174655
:100BA00062D9B2FA82F64EB1C6F1200301FA06F814
:100BB00020FA03F3B74043EA0808B4404FEA174E5F
:100BC0001FFA87FCB8FBFEF1230C0EFB118843EAE9
:100BD000084301FB0CF29A4209D9FB1801F1FF30DE
:100BE00080F0EA809A4240F2E78002393B449A1A48
:100BF000A3B2B2FBFEF00EFB102243EA024300FB5D
:100C00000CFC9C4509D9FB1800F1FF3280F0D6801E
:100C10009C4540F2D3803B44023840EA0140A3EBBC
:100C20000C0300211DB1F3400022C5E90032BDE8EC
:100C3000F0878B4205D90DB1C5E9000100210846B6
:100C4000F5E7B3FA83F1002946D1734502D3824216
:100C500000F20581841A6EEB030201209046002DFC
:100C6000E5D0C5E90048E2E7002A00F09080B2FA3A
:100C700082F6002E40F0A4808A1A030C4FEA174E29
:100C800080B2BCB20121B2FBFEFC0EFB1C2243EA87
:100C9000024304FB0CF29A4207D9FB180CF1FF380F
:100CA00002D29A4200F2E080C4469B1AB3FBFEF2E5
:100CB0000EFB123340EA034302FB04F49C4207D9C3
:100CC000FB1802F1FF3002D29C4200F2CA800246B9
:100CD0001B1B42EA0C40A5E7C1F120068B4022FA1B
:100CE00006F71F430EFA01F420FA06F32EFA06FE69
:100CF0004FEA1749234300FA01F81FFA87FCBEFBAD
:100D0000F9F01C0C09FB10EE44EA0E4400FB0CFE4B
:100D1000A64502FA01F209D93C1900F1FF3A80F028
:100D20009C80A64540F2998002383C44A4EB0E0416
:100D30001FFA83FEB4FBF9F309FB13444EEA0444A3
:100D400003FB0CFCA44508D93C1903F1FF3E80F0DD
:100D50008280A4457FD9023B3C4443EA0040A4EB97
:100D60000C04A0FB02EC64457346E14662D35FD0FD
:100D70005DB1B8EB030264EB090404FA06F622FA4B
:100D800001F31E43CC40C5E9006400214FE7B1FBED
:100D9000F2FC010C41EA0E4180B240EA01423B46BE
:100DA00038463C46B846BE462026B1FBF7F1A2EBDA
:100DB000080241EA0C4166E7014618E710462CE7B5
:100DC000C6F120022EFA02F3B740B14020FA02F237
:100DD0004FEA174E0A43B3FBFEF8BCB20EFB1833C2
:100DE000110C41EA034108FB04F9B04089454FEA80
:100DF000104380B23ED9791808F1FF3C01D28945F1
:100E00001FD8A1EB0901B1FBFEF909FB04F80EFBA9
:100E1000191192B242EA0142424529D2BA1809F1A7
:100E2000FF31C4D24245C2D2A9F102013A44BEE721
:100E3000F0459DD2BEEB02036CEB070C0138E14696
:100E400096E7A7EB09094944A8F1020CB1FBFEF9AA
:100E500009FB04F8DBE773467FE7504666E7084680
:100E6000FDE63B44023A33E7ACF1020C3B441CE79D
:100E700049469CE7A1EB0901C446B1FBFEF909FB19
:100E800004F8C4E7704700BF70B5002396B0CDE901
:100E90000A33CDE90C33CDE90333CDE905332249DB
:100EA00001930793086C214A40F080500864096C54
:100EB00001F08051019101990293136823F440439A
:100EC00043F480431360136803F440430224012079
:100ED0004FF4803102934FF4800290230F25CDE927
:100EE0000801CDE90E42CDE910530222022308A8E1
:100EF000CDE912230299149400F03CFD08B172B6BA
:100F0000FEE703464FF4A0564FF4805203A8032196
:100F1000CDE90354CDE90536079200F037FC08B15E
:100F200072B6FEE716B070BD003802400070004097
:100F30002DE9F04FA9B001F091F9FFF7A5FF0022CC
:100F4000CDE92222CDE92422994B1F9226921A6BD9
:100F5000984842F004021A63196B01F004011F91D2
:100F600000221F992092196B41F080011963196BBF
:100F700001F08001209120992192196B41F002012A
:100F800019631B6B03F002032193FF21219B01F0E6
:100F9000D5F8FF220123CDE9222322A90022002334
:100FA0008448CDE9242300F0E9FE834A8348D2F83F
:100FB000FC3043F08073C2F8FC30A2F55D420023A0
:100FC0005360136843F00103136001F02FFB7C4B67
:100FD0007C48196801F0C2FA7B4B76487B4F0022AF
:100FE0005A60012211465E6801F0A8F8784B7948F2
:100FF00000221A604FF0800B01F018FB764B0E9622
:1010000019930A970D9300255E46BA46734B1E60EE
:10101000734BC3F800B06C4B00225A605B68BBF1A5
:10102000000F00F04B8307EE90BA1146F8EE676AA6
:10103000002E57D007EE902AB8EE677ABFEE002A4E
:10104000C7EE267A1446F0EE001AB0EE424A07EEDA
:10105000106AA7EEA14AF8EE472AB0EE0C3AF8EE75
:10106000043AF1EE004A002082B207EE102AB8EEF0
:10107000477A9FED5C1A87EE226A0022B0EE635A2F
:10108000A6EE035AF0EE417A0EE037EE467A77EE9E
:10109000A75A77EE057AB0EE447AA5EE817A01324E
:1010A000642AB0EE471A0AD027EEA77A21EE016A29
:1010B00077EE065AF4EEE45AF1EE10FAE5D9013073
:1010C00086421444D0D101318B450FD08AB207EE4D
:1010D000902AF8EE677AB0EE424A87EEA67AA7EE3B
:1010E000214AC0E701318B45FCD10024364A5768BC
:1010F000FF1A3846FFF71EFA314B804618688946BA
:10110000FFF718FA02460B4640464946FFF7B6FB82
:10111000CDE908013046FFF70DFA8046584689466A
:10112000FFF708FA02460B4640464946FFF77CFAAD
:10113000DDE90823FFF7A2FB2B4B1F602B4B8046FA
:1011400089461C60DDE90801294B0022FFF76CFA93
:101150009DED087B3246274E06948DED027BCDE94E
:1011600004890097C6E90001234EC6E90089234E91
:1011700046F82540224C04EBC504C4E9000121498E
:10118000214841F82570214901EBC501C1E90089D9
:101190005B461F49013501F0E1F9052D3AD00D9B61
:1011A00033F8026F0D930A9B33F802BF0A932DE7C1
:1011B000003802400004024000ED00E0083300085F
:1011C0000800002044330008001000E08C340008C0
:1011D0009C000020583300088C3400080C020020CA
:1011E000080200200000000004020020000200208D
:1011F00000408F40F8010020F0010020D8010020BD
:10120000B0010020980100209033000870010020F8
:10121000883300089C4A9D480E9E0123136001F00C
:1012200005FA9B4B17934FF0800B9A4B18934FF096
:101230000009CDE91A6ACDF848B04D465E46964B96
:101240001E60964BC3F800B0954B00225A6058467A
:101250005C68FFF76FF9074688463046CDE9147899
:10126000FFF768F9CDE91001BBF1000F00F09B809A
:101270004FF0000A002E00F092805046FFF75AF916
:101280003A464346FFF7FAFA02460B46FFF716F8CE
:10129000844B0022FFF710F8CDE90E01CDE91C5474
:1012A000CDF858B05546D3464FF0000A1395544632
:1012B000A0B2FFF73FF9DDE91023FFF7DFFA7A4B21
:1012C0000022FFF7B1F9794B0022FEF7F5FF4FF04E
:1012D00000094FF0000ACDE90A014FF000084E4620
:1012E00057460D9422E022462B46DDE90801FEF721
:1012F000E3FFDDE90A23FEF7E1FF32463B46044601
:101300000D4630463946FEF7D9FF4A465346FFF7A9
:101310008BF9DDE90E23FEF7D1FF08F10108B8F1E2
:10132000640F81468A461DD026462F4632463B46EC
:1013300030463946FFF778F94A46CDE90801534669
:1013400048465146FFF770F904460D4622462B46A3
:10135000DDE90801FEF7B2FF554B0022FFF7E0FB85
:101360000028C0D10D9C129B0134A342C3449FD1DD
:10137000139D169B0135AB4277D0A8B2FFF7DAF880
:10138000DDE91423FFF77AFA02460B46FEF796FFD3
:10139000444B0022FEF790FFCDE90E0184E70AF1ED
:1013A000010AD345FBD14FF000093D4B5B681C1B84
:1013B0002046FFF7BFF83F4B064618680F46FFF779
:1013C000B9F802460B4630463946FFF757FADDE9D1
:1013D000102306460F46DDE91401FFF725F93246D2
:1013E0003B46FFF74BFA344B1C60344BCDE9080108
:1013F000C3F800900022324B30463946FFF714F90B
:1014000047EC176B8DED027B9DED087B2D4ECDF8E3
:1014100018908DED047B0094C6E900012A4E129AC3
:1014200086ED007B294E46F82590294E06EBC50C2B
:10143000CCE900012749284841F82540274901EB1C
:10144000C50181ED007B5B462549013501F086F839
:10145000052D10D0189B33F8022F1893179B12926A
:1014600033F802BF17931646E9E6D946DDE91C5466
:10147000DDF858B099E71B48DFF86CB0DDE91A6772
:10148000002401F0D3F886E09C000020D833000847
:101490008C3400088C3400080C0200200802002064
:1014A000001000E00000F03F00000C40000004408D
:1014B000000010400800002004020020000200206C
:1014C00000408F40F8010020F0010020580100206A
:1014D000300100201801002090330008F0000020A7
:1014E0000C3400081434000840340008764B53F8DC
:1014F000240052F8249052F824300893FFF71AF889
:101500000246484690468946FFF714F802460B46C5
:1015100040464946FEF7D0FE804608988946FFF7C8
:1015200009F802460B4640464946FFF7A7F9674BC4
:101530000022FFF779F802460B46654901EBC4012A
:10154000C1E90023634B03EBC409D9E90001002280
:1015500000234FEAC408FFF7CFFA50BB5E4B434469
:10156000D3E90001D9E90023FFF788F95B4B9844E0
:10157000C8E90001CDE90201534B594853F8243022
:1015800050F824000090524629465846013400F095
:10159000E5FF052C16D0524A199952F8243031F83B
:1015A000025B37F802AB1991002B9FD10022002378
:1015B000C3E79FED437B494B984488ED007B8DED5D
:1015C000027BD9E7474B484A5B68424F9B1B13603D
:1015D0001068FEF7AFFF454B044618680D46FEF74E
:1015E000A9FF02460B4620462946FFF747F9404B24
:1015F000404C0022FFF718F89FED317B3E4BC3E9CA
:10160000000184ED007B344BD7E900012646D3E985
:101610000023D4E90045FEF751FE22462B46FEF793
:101620004DFEC6E900012C4BD7E90201D3E90223A4
:10163000D6E90045FEF742FE22462B46FEF73EFE67
:10164000C6E90001244BD7E90401D3E90423D6E914
:101650000045FEF733FE22462B46FEF72FFEC6E975
:1016600000011D4BD7E90601D3E90623D6E9004561
:10167000FEF724FE22462B46FEF720FEC6E90001B7
:10168000154BD7E90801D3E90823D6E90045FEF751
:1016900015FE2B462246FEF711FE0122C6E9000187
:1016A0000221164800F04AFD4FF4FA6000F002FEF5
:1016B00012480022032100F041FD8DE45C4615E54F
:1016C0000000000000000000D80100200000594088
:1016D000C8000020B001002030010020A000002040
:1016E00058010020001000E09800002008000020B1
:1016F00000408F408800002090000020000402403D
:101700004FF06043D3F8802ED10704D5074AD2F8B2
:10171000FC20D20101D4704700BF1A68002AFBD018
:101720004FF06043C2B21A70704700BF00ED00E096
:10173000FEE700BFFEE700BFFEE700BFFEE700BF19
:10174000FEE700BF704700BF704700BF704700BF93
:1017500000F09EBD82B00C4B002100915A6C42F407
:1017600080425A645A6C02F480420092009A0191BD
:101770001A6C42F080521A641B6C03F08053019380
:10178000019B02B0704700BF00380240002800F003
:101790008780484A136803F00F038B422DE9F0411C
:1017A0000D46044609D2CBB21370136803F00F0341
:1017B0008B4202D00120BDE8F0812368980714D540
:1017C000590704D53C498A6842F4E0528A601A07F6
:1017D00004D539498A6842F460428A603649A06873
:1017E0008A6822F0F00202438A60DF0721D562682E
:1017F000012A57D0931E012B2F4B1B684DD99907F7
:10180000D8D52D4EB36823F003031343B36000F023
:101810004BFD41F28838074604E000F045FDC01B4F
:10182000404544D8B368626803F00C03B3EB820F01
:10183000F3D1204A136803F00F03AB4206D9EBB291
:101840001370136803F00F03AB42B3D123685A0738
:1018500006D51949E0688A6822F4E05202438A609A
:101860001B0707D5144A2169936823F4604343EAB0
:10187000C103936000F028F80F4A104C9268104999
:10188000C2F303120346A25C0E48D34000680B600B
:1018900000F0C0FC0020BDE8F0819801B1D489E7D8
:1018A00001207047044B1B689E03AAD482E70320E3
:1018B00081E700BF003C0240003802409834000835
:1018C0000800002004000020274908B58B6803F0B9
:1018D0000C03082B1DD00C2B05D0244A2448042BC4
:1018E00018BF104608BD4A684B68496813F4800366
:1018F00002F03F022ED11D48C1F38811A1FB000167
:10190000FFF72CF9184B5B68C3F30273B0FBF3F0DD
:1019100008BD4A684B68496813F4800302F03F022F
:101920000FD11248C1F38811A1FB0001FFF716F98E
:101930000D4B5B68C3F3014301335B00B0FBF3F075
:1019400008BD0B48C1F388110023A1FB0001FFF77C
:1019500005F9EDE70648C1F388110023A1FB00015A
:10196000FFF7FCF8CEE700BF003802400024F40087
:1019700040787D01002800F0FB812DE9F0410368EB
:10198000DE0782B0044636D5A1498A6802F00C020F
:10199000042A00F0DE808A6802F00C02082A00F0B7
:1019A000D4809B498A6802F00C020C2A00F0048162
:1019B0006368B3F5803F00F01881B3F5A02F00F005
:1019C0009281934D2A6822F480322A602A6822F498
:1019D00080222A60002B40F00D8100F065FC064655
:1019E00005E000F061FC801B642800F2FA802B689F
:1019F0009F03F6D423689D072FD5854A916811F07F
:101A00000C0F00F09980916801F00C01082900F09A
:101A10008F807F498A6802F00C020C2A00F05E81F8
:101A2000E368002B00F012817A4B794E01221A6094
:101A300000F03AFC054605E000F036FC401B0228A9
:101A400000F2CF8033689F07F6D53368226923F010
:101A5000F80343EAC203336023681A0752D45D07D0
:101A600030D56B4A136C13F0805300F09980002539
:101A7000694E3368D80540F1A480A368012B00F0BB
:101A8000CD80052B00F03981614E326F22F00102CA
:101A90003267326F22F004023267002B40F0C380BD
:101AA00000F002FC41F28838074605E000F0FCFB3C
:101AB000C01B404500F29580336F9B07F6D4002D84
:101AC00040F00681A369CBB1514DAA6802F00C0227
:101AD000082A00F0CC80022B4E4B4FF000021A6611
:101AE00000F0158100F0E0FB044604E000F0DCFBB0
:101AF000001B022875D82B689B01F7D4002002B088
:101B0000BDE8F0816369002B2DD0424B404E01228D
:101B1000C3F8802E00F0C8FB054604E000F0C4FBCB
:101B2000401B02285DD8736F9B07F7D5236896E7A3
:101B3000526850023FF56DAF354A1268920723D5BF
:101B4000E268012A20D00120D9E74A6855027FF5D2
:101B500028AF2F4A126892037FF54DAF6268002AC2
:101B60007FF449AFEFE72B4A294EC2F8803E00F0E0
:101B70009BFB054604E000F097FB401B022830D891
:101B8000736F9F07F7D4D1E7214920690A6822F0D3
:101B9000F80242EAC0020A601A077FF560AFB1E7B7
:101BA0000193136C43F080531364136C03F0805360
:101BB0000193019B01255BE74A6851027FF5F8AE6E
:101BC000C7E7336843F48073336000F06DFB07466A
:101BD0003368D9053FF551AF00F066FBC01B022802
:101BE000F6D9032002B0BDE8F081094A136843F436
:101BF0008033136000F058FB054E054604E000F00A
:101C000053FB401B6428ECD833689B03F7D5F1E6FF
:101C1000003802400000474200700040554A136FF0
:101C200043F00103136700F03FFB524F064641F2B9
:101C3000883804E000F038FB801B4045D1D83B6F6A
:101C40009A07F7D5002D3FF43DAF41E04A4A494E8F
:101C5000136000F029FB054604E000F025FB401B63
:101C60000228BED833689907F7D42368F5E6012B1C
:101C70003FF469AF6B68E26903F4800191427FF43D
:101C800062AF226A03F03F0191427FF45CAF616A68
:101C900047F6C0721A40B2EB811F7FF454AFA26ABC
:101CA000520803F44031013AB1EB024F7FF44BAFDD
:101CB000E16A03F07062B2EB016F7FF444AF226B14
:101CC00003F0E043B3EB027F14BF0120002016E7CE
:101CD000284A136C23F080531364F3E64A685102D8
:101CE0003FF59EAE28E7234B1A6842F480221A6023
:101CF0001A6842F480321A607CE71E4B1A6F42F079
:101D000004021A671A6F42F001021A678BE700F0AB
:101D1000CBFA064605E000F0C7FA801B02283FF622
:101D200060AF2B689901F6D4D4E90731626A0B439E
:101D300043EA8213D4E90A20216B43EA0063520884
:101D400043EA0173013A0C4943EA024301226B6002
:101D50000A6600F0A9FA074D044605E000F0A4FA6F
:101D6000001B02283FF63DAF2B689A01F6D5C5E669
:101D70000120704700380240000047422DE9F04F33
:101D8000A44A0B68904285B04FF0000200F0D58065
:101D9000DFF890824FF0010B8A4603E00132102AEF
:101DA00000F086800BFA02F101EA03069943F5D1AF
:101DB000DAF8044004F0030C510003250CF1FF375E
:101DC0008D40012F6FEA050575D9BCF1030F40F076
:101DD0009C8107680CFA01F13D40294314F4403F0F
:101DE0000160DBD08C4D00210391696C41F480418E
:101DF0006964696C01F480410391039922F0030145
:101E000001F1804101F59C3102F003078D68BF00AC
:101E10004FF00F0C0CFA07FC25EA0C0E7F4DA84280
:101E200000F084807E4DA84200F05381DFF8F8C1B5
:101E3000604500F05581DFF8F4C1604500F057813E
:101E4000DFF8ECC1604500F05981DFF8E8C160457A
:101E50000CBF4FF0060C4FF0070C0CFA07F74EEAD8
:101E600007058D60D8F80810F543E70254BF2940F4
:101E70003143C8F80810D8F80C10A70254BF294005
:101E80003143C8F80C10D8F80410A70354BF2940F8
:101E90003143C8F80410D8F80010E40302F101023D
:101EA00054BF29403143102AC8F800107FF47AAF9C
:101EB00005B0BDE8F08F876807EA050EDAF80C7008
:101EC0008F4047EA0E078760476827EA060EC4F38B
:101ED0000017974047EA0E074760C76807EA050EF4
:101EE000DAF808708F4047EA0E07BCF1020FC760AE
:101EF0007FF46FAF4FEAD20900EB890902F0070EB9
:101F0000D9F820700097DAF810704FEA8E0E07FAB1
:101F10000EF701970F2707FA0EFE009F27EA0E0E15
:101F2000019F47EA0E07C9F8207052E74FF0010CF5
:101F30000CFA07F74EEA070593E7DFF8DCB04FF03D
:101F4000010A02E00132102AB2D00AFA02F403EACE
:101F500004069C43F6D14D685400032707FA04FC9D
:101F600005F003086FEA0C0908F1FF3CBCF1010F12
:101F700062D9B8F1030F40F0D280D0F800C008FA5F
:101F800004F40CEA090C44EA0C0415F4403F046024
:101F9000D8D000240394DBF8444044F48044CBF8C8
:101FA0004440DBF8444004F480440394039C22F052
:101FB000030404F1804404F59C3402F0030CD4F8CB
:101FC00008E00F274FEA8C0C07FA0CFC2EEA0C0CE9
:101FD000C4F808C0134CEF02A4686FEA060C76D46C
:101FE00004EA0C040F4FBC60FC68AF026DD404EA35
:101FF0000C040C4FFC607C68AF0364D40CEA04044E
:10200000084FED037C603C685BD40CEA0404054D8A
:102010002C6097E7000002400038024000040240B4
:1020200000080240003C0140000C02400010024049
:102030000014024000180240D0F808E0CF6809EA16
:102040000E0E07FA04FC4CEA0E0CC0F808C0D0F8DB
:1020500004E0C5F3001C2EEA060E0CFA02FC4CEA62
:102060000E0CC0F804C0D0F80CE08F6809EA0E0E20
:1020700007FA04FC4CEA0E0CB8F1020FC0F80CC0D1
:102080007FF47BAF4FEAD20C4FEA8C0C0CF1804C02
:102090000CF5003C02F0070EDCF8207000970F6989
:1020A0004FEA8E0E07FA0EF701970F2707FA0EFE7A
:1020B000009F27EA0E0E019F47EA0E0ECCF820E0A3
:1020C0005BE73443A3E734439AE7344391E734436F
:1020D00088E74FF0020C0CFA07F74EEA0705C0E656
:1020E0004FF0030C0CFA07F74EEA0705B9E64FF07C
:1020F000040C0CFA07F74EEA0705B2E64FF0050CA0
:102100000CFA07F74EEA0705ABE6C76807EA050EC3
:10211000DAF808708F4047EA0E07C76059E6DFF823
:1021200018C08F68DCF80CE0A74009EA0E0E47EAF9
:102130000E0ECCF80CE020E70000024002B90904C2
:10214000816170470749CA6803024FF6FF0003F434
:10215000E0630240134343F0BF6343F40033CB60BA
:10216000704700BF00ED00E01B4BDB68C3F30223A8
:1021700000B5C3F1070EBEF1040F03F1040C28BF34
:102180004FF0040EBCF1060F1CD9A3F1030C4FF065
:10219000FF3303FA0CF322EA03024FF0FF3303FA92
:1021A0000EF321EA030303FA0CF313431B01002887
:1021B000DBB20ADB00F1604000F5614080F80033DB
:1021C0005DF804FB00229446E7E7044A00F00F00A4
:1021D000024413765DF804FB00ED00E0FCEC00E047
:1021E0000138B0F1807F01D30120704710B44FF067
:1021F000E023074C58614FF0F00C84F823C0002214
:10220000072110469A615DF8044B1961704700BFC1
:1022100000ED00E038B50E4A0E4B127805461868FE
:102220004FF47A73B3FBF2F3B0FBF3F0FFF7D8FF90
:1022300008B90F2D01D9012038BD044602462946B0
:102240004FF0FF30FFF790FF034B20461D6038BD75
:1022500000000020080000200400002008B50B4BFF
:102260001A6842F400721A601A6842F480621A60B6
:102270001A6842F480721A600320FFF763FF0F2090
:10228000FFF7C8FFFFF766FA002008BD003C0240D8
:10229000034A044B11681B780B441360704700BF5E
:1022A0001002002000000020014B1868704700BF9A
:1022B0001002002038B50446FFF7F6FF631C054600
:1022C00002D0044B1B781C44FFF7EEFF401BA042DA
:1022D000FAD338BD00000020034AD2F8883043F416
:1022E0007003C2F88830704700ED00E00C490D4AD9
:1022F0000B6810B50C4C121B2BB11844904207D838
:102300000860184610BD094B0B6018449042F7D97D
:1023100000F0BAFA0C2303604FF0FF33184610BDEB
:1023200014020020000002200004000068030020C6
:1023300070B5161E07DD0C468D19AFF3008004F84A
:10234000010BA542F9D1304670BD00BF70B5161E15
:1023500007DD0C468D1914F8010BFFF7D1F9A542E2
:10236000F9D1304670BD00BF4FF0FF30704700BF5D
:102370004FF400534B600020704700BF01207047AE
:1023800000207047DFF834D0FFF7A6FF0C480D4956
:102390000D4A002302E0D458C4500433C4188C42C0
:1023A000F9D30A4A0A4C002301E013600432A24226
:1023B000FBD300F06FFAFEF7BBFD70470000022070
:1023C0000000002068000020EC34000868000020B5
:1023D00064030020FEE70000002310B50446C0E9B6
:1023E0000033C0E90433836081814366C281836125
:1023F000194608225C3000F0F9F90D4B63620D4B71
:10240000A3620D4BE3620D4B23630D4B24629C4290
:1024100006D003F16802944202D0D0339C4205D129
:1024200004F15800BDE8104000F058BA10BD00BFDC
:102430003D2600085F26000897260008BB260008F6
:1024400018020020024A0349034800F069B800BF9F
:102450000C000020793100081C00002041680C4B62
:10246000994210B5044601D000F086FEA168094BE0
:10247000994202D0204600F07FFEE168064B994267
:1024800004D02046BDE8104000F076BE10BD00BF6D
:102490001802002080020020E802002010B50B4B3B
:1024A0000B4C0C4A1A60204600220421FFF794FFCF
:1024B00004F1680001220921FFF78EFF04F1D0002A
:1024C0000222BDE810401221FFF786BF5003002012
:1024D0001802002045240008014800F000BA00BF9F
:1024E00059030020014800F0FBB900BF5903002048
:1024F00010B50446FFF7F0FF236A1BB1BDE810409A
:10250000FFF7F0BF044B2362044B1B68002BF5D18F
:10251000FFF7C4FFF2E700BF5D240008500300206E
:102520002DE9F8430746884614460026D4E901956C
:10253000B9F1010905D52468002CF7D13046BDE872
:10254000F883AB89012B07D9B5F90E30013303D0DD
:1025500029463846C04706436835E9E70FB407B552
:10256000064904AB086853F8042B8168019300F016
:10257000DBFA03B05DF804EB04B0704718000020EC
:10258000036A70B5846805460E460BB9FFF7B0FFC5
:10259000636EDB0705D4A389980502D4A06D00F013
:1025A0009EF9A389190702D52369002B35D121464D
:1025B000284600F0C5F880B34FF0FF35636EDA07A8
:1025C00005D4A3899B0502D4A06D00F089F92846A3
:1025D00070BD002B04DAA2699A4217DC0A2915D0D3
:1025E00023685A1C22601970A36816F8011F013B6A
:1025F000A3600029EDD1002B11DA22460A212846DA
:1026000000F05FF80130D7D00A25D7E722462846E8
:1026100000F057F80130E7D1CEE7013EE4E7236848
:102620005A1C22600A221A70EEE70000024B014693
:102630001868FFF7A5BF00BF1800002010B50C46B2
:10264000B1F90E1000F0FCF80028ABBF636DA38950
:102650001B1823F48053ACBF6365A38110BD2DE923
:10266000F0411F468B89DB0505460C46164605D50D
:10267000B1F90E100223002200F0D0F8A389B4F9BA
:102680000E1023F48053A38132463B462846BDE812
:10269000F04100F0E7B810B50C46B1F90E1000F0AB
:1026A000BDF8431CA38915BF606523F4805343F430
:1026B0008053A38118BFA38110BDB1F90E1000F0A3
:1026C0009DB8F8B50E461446054618B1036A0BB915
:1026D000FFF70EFFA369A360A3891A0701D5236939
:1026E00043B92146284600F02BF818B14FF0FF37C8
:1026F0003846F8BD23682269981A6369F6B28342A6
:10270000374605DC2146284600F036FD0028EDD18D
:10271000A368013BA36023685A1C22601E70626993
:10272000431C9A4204D0A389DB07E1D50A2EDFD1EE
:102730002146284600F020FD0028D9D0D6E7000029
:1027400038B5294B054618680C4618B1036A0BB911
:10275000FFF7CEFEB4F90C30190722D4DA0607D4FD
:1027600009222A6043F04003A3814FF0FF3033E099
:10277000580712D5616B41B104F14403994202D06C
:10278000284600F0AFF800236363A38923F02403F5
:10279000A3810023636023692360A38943F00803B6
:1027A000A38123694BB9A38903F42073B3F5007F98
:1027B00003D02146284600F02DFDB4F90C3013F06B
:1027C00001020AD00022A26062695242A26122691B
:1027D00042B913F08000C5D138BD990758BF62696E
:1027E000A260F4E70020F7E7180000200244034647
:1027F000934200D1704703F8011BF9E738B5064D45
:102800000023044608462B60FFF7AEFD431C02D1AF
:102810002B6803B1236038BD5403002038B5074D41
:1028200004460846114600222A601A46FFF7A8FD12
:10283000431C02D12B6803B1236038BD5403002030
:1028400038B5074D04460846114600222A601A464C
:10285000FFF76EFD431C02D12B6803B1236038BD26
:102860005403002038B5074D04460846114600229F
:102870002A601A46FFF76AFD431C02D12B6803B198
:10288000236038BD54030020014B1868704700BF17
:102890001800002070B50D4D0D4C641BA4100026CF
:1028A000A64209D10B4D0C4C00F022FD641BA41074
:1028B0000026A64205D170BD55F8043B9847013665
:1028C000EEE755F8043B98470136F2E7E434000898
:1028D000E4340008E4340008E83400087047704726
:1028E0007047000038B50546002941D051F8043C36
:1028F0000C1F002BB8BFE41800F0E0F81D4A136865
:1029000033B9636014602846BDE8384000F0DCB895
:10291000A34208D9206821188B4201BF19685B685F
:1029200009182160EDE71A465B680BB1A342FAD99A
:1029300011685018A0420BD12068014450188342FE
:102940001160E0D118685B68536008441060DAE7F2
:1029500002D90C232B60D6E7206821188B4204BFD4
:1029600019685B68636004BF091821605460CAE796
:1029700038BD00BF6003002070B50F4E0C463168B3
:10298000054611B900F0A4FC30602146284600F04D
:102990009FFC431C03D14FF0FF34204670BDC41C84
:1029A00024F00304A042F8D0211A284600F090FC3D
:1029B0000130F2D1EFE700BF5C0300202DE9F843BE
:1029C000CD1C25F0030508350C2D38BF0C25002D36
:1029D000064601DBA94204D90C2333600020BDE880
:1029E000F883DFF8D48000F069F8D8F800301C468E
:1029F00044BB29463046FFF7BFFF431C044658D16D
:102A0000D8F800402746002F43D1002C4BD0236834
:102A10003946304604EB030900F05AFC814542D1A7
:102A200021686D1A29463046FFF7A6FF01303AD0DB
:102A300023682B442360D8F800305A6862BBC8F87A
:102A400000700FE02268521B20D40B2A17D961199D
:102A5000A342256018BF5960636808BFC8F800101A
:102A600062514B60304600F02FF804F10B00231D3B
:102A700020F00700C21A1CBF1B1AA350AFE7626800
:102A8000A3420CBFC8F800205A60EBE723466468F5
:102A9000AEE73C467F68B6E71A465B68A342FBD1C7
:102AA00000235360DEE70C233360304600F00CF85F
:102AB00094E70560D6E700BF600300200148FFF7F8
:102AC0000EBF00BF580300200148FFF709BF00BF39
:102AD000580300209368013B002B10B4936008DA80
:102AE0009469A34201DB0A2903D15DF8044BFFF787
:102AF000E8BD1368581C1060197008465DF8044B57
:102B00007047F8B506460F461446D518AC4201D1B9
:102B1000002007E014F8011B3A463046FFF7DAFFC1
:102B2000431CF3D1F8BD00002DE9F04F0D469DB0D8
:102B300014469846064618B1036A0BB9FFF7D8FC4D
:102B40006B6ED90705D4AB899A0502D4A86DFFF73F
:102B5000C6FEAB891B0701D52B699BB929463046B8
:102B6000FFF7EEFD70B16B6EDC0704D54FF0FF3060
:102B70001DB0BDE8F08FAB899805F7D4A86DFFF7BD
:102B8000AFFEF3E70023099320238DF82930CDF819
:102B90000C803023DFF8AC818DF82A304FF001092A
:102BA00023469A4613F8012B0AB1252AF9D1BAEB2C
:102BB000040B0BD05B46224629463046FFF7A1FFA7
:102BC000013000F0A780099A5A4409929AF800301F
:102BD000002B00F09F8000234FF0FF32CDE905234A
:102BE0000AF1010A049307938DF853301A9354465F
:102BF000052214F8011B5348FDF70AFB049AD8B9C3
:102C0000D10644BF20238DF85330130744BF2B2334
:102C10008DF853309AF800302A2B15D0079A544675
:102C200000204FF00A0C214611F8013B303B092BE4
:102C30004BD9B0B1079214E0A0EB080309FA03F3F3
:102C400013430493A246D2E7039B191D1B6803910B
:102C5000002BBBBF5B4242F0020207930793B8BF51
:102C6000049223782E2B0AD163782A2B32D1039B2E
:102C70001A1D1B68039243EAE37302340593DFF8DD
:102C8000D4A0217803225046FDF7C2FA38B1049B44
:102C9000A0EB0A004022824013430134049314F84D
:102CA000011B29488DF828100622FDF7B1FA0028EB
:102CB0003FD0264B1BBB039B073323F0070308338E
:102CC0000393099B3B4409936AE70CFB02320C46D1
:102CD0000120A8E700230134059319464FF00A0CA0
:102CE000204610F8012B303A092A03D9002BC6D010
:102CF0000591C4E70CFB012104460123F0E703AB77
:102D000000932A46124B04A93046AFF300800746D1
:102D1000781CD6D16B6ED90705D4AB899A0502D43D
:102D2000A86DFFF7DDFDAB895B063FF51FAF099886
:102D30001EE703AB00932A46054B04A9304600F07A
:102D400079F8E4E7A8340008B23400080000000075
:102D5000032B0008AE3400082DE9F04716469846CC
:102D60008A680B69DDF820909342B8BF1346336040
:102D700091F8432007460C460AB1013333602368BB
:102D8000990642BF336802333360256815F00605A3
:102D900006D104F1190AE36832689B1AAB4226DCBB
:102DA00094F843302268003B18BF012392062BD4CD
:102DB00004F1430241463846C84701301ED023681B
:102DC000226903F00603042B02BFE5683368ED1A9D
:102DD000A3680CBF25EAE57500259342C4BF9B1A82
:102DE000ED1800261A34B5421AD1002008E001235C
:102DF000524641463846C847013003D14FF0FF30B4
:102E0000BDE8F0870135C6E7E1185A1C302081F88B
:102E10004300224494F8451082F843100233C7E778
:102E20000123224641463846C8470130E6D00136E4
:102E3000D9E700002DE9FF470F7E0C9E782F9146C1
:102E400080460C469A4601F1430207D8622F0AD801
:102E5000002F00F0D180582F00F0B88004F1420616
:102E600084F842703AE0A7F16303152BF6D801A16C
:102E700051F823F0CD2E0008E12E00085D2E000849
:102E80005D2E00085D2E00085D2E0008E12E000872
:102E90005D2E00085D2E00085D2E00085D2E0008E6
:102EA000DF2F00080B2F0008992F00085D2E000867
:102EB0005D2E0008013000085D2E00080B2F000871
:102EC0005D2E00085D2E0008A12F000833681A1D32
:102ED0001B68326004F1420684F8423001239CE012
:102EE00033682068191D3160060601D51D6803E0AE
:102EF0004506FBD5B3F90050002D03DA2D236D42B2
:102F000084F8433058480A2311E0216833680806E2
:102F100053F8045B02D4490648BFADB26F2F524844
:102F2000336014BF0A230823002184F84310666825
:102F3000A660002E05DB21682E4321F004012160EC
:102F40004BD01646B5FBF3F103FB1157C75D06F8EE
:102F5000017D2F46BB420D46F4D9082B0BD12368C7
:102F6000DF0708D5236961689942DEBF302306F880
:102F7000013C06F1FF36921B2261CDF800A04B46C2
:102F800003AA21464046FFF7E7FE01304AD14FF041
:102F9000FF3004B0BDE8F087236843F020032360CE
:102FA0003248782784F84570236831681F0651F845
:102FB000045B02D45F0648BFADB23160D90744BF9D
:102FC00043F0200323601DB11023ADE72648E9E755
:102FD000236823F020032360F6E71646BDE7336835
:102FE00025686169181D30602E061B6801D51960BF
:102FF00002E06806FBD51980002323611646BCE772
:1030000033681A1D32601E68626800213046FDF781
:10301000FFF808B1801B606063682361002384F8B7
:103020004330AAE72369324649464046D04701303B
:10303000ADD023689B0713D4E068039B9842B8BFC8
:103040001846A6E70123324649464046D04701309C
:103050009DD00135E36803995B1AAB42F2DCEBE7E4
:10306000002504F11906F5E7B9340008CA34000850
:10307000B1F90C202DE9F041160705460C4654D451
:103080004B68002B02DC0B6C002B48DDE66A002E3F
:1030900045D0002312F480522F68216A2B6030D073
:1030A000626DA389590705D56368D21A636B0BB1AA
:1030B000236CD21A0023E66A216A2846B047431CD3
:1030C000A38906D129681D292BD82A4ACA40D607C8
:1030D00027D500226260D9042269226004D5421CEF
:1030E00001D12B6803B96065616B2F60B9B104F140
:1030F0004403994202D02846FFF7F4FB00236363A0
:103100000DE001232846B0470246501CC9D12B6868
:10311000002BC6D01D2B01D0162B1ED12F600020F6
:1031200022E043F040031BB21BE00F69002FF6D0F2
:1031300093070E6808BF4B690F6018BF0023A6EB0A
:1031400007088B60B8F1000FE9DD216AA66A4346E3
:103150003A462846B047002808DCB4F90C3043F062
:103160004003A3814FF0FF30BDE8F0810744A8EB96
:103170000008E7E70100402038B50B6905460C461A
:1031800013B90025284638BD18B1036A0BB9FFF7FB
:10319000AFF9B4F90C30002BF3D0626ED00704D431
:1031A000990502D4A06DFFF79AFB28462146FFF748
:1031B0005FFF636EDA070546E4D4A3899B05E1D47B
:1031C000A06DFFF78DFBDDE770B50C46B1F90E1071
:1031D000002996B015461E460DDAA38913F0800F1C
:1031E0004FF0000114BF40234FF480630020316092
:1031F0002B6016B070BD6A4600F048F80028ECDB82
:10320000019901F47041A1F50053594259414FF41D
:103210008063EBE78B89F7B59D0706460C4607D51B
:1032200004F14703236023610123636103B0F0BD10
:1032300001AB6A46FFF7C8FF009F05463946304696
:10324000FFF7BCFB48B9B4F90C309A05EED423F073
:10325000030343F00203A381E2E7A389206043F064
:103260008003A381019BC4E904075BB1B4F90E108C
:10327000304600F01DF828B1A38923F0030343F082
:103280000103A381A3891D43A581CFE738B5074D6D
:1032900000230446084611462B60FFF769F8431CDB
:1032A00002D12B6803B1236038BD00BF5403002056
:1032B00038B5064D0023044608462B60FFF75EF83C
:1032C000431C02D12B6803B1236038BD5403002096
:1032D00038B5064D0023044608462B60FFF706F874
:1032E000431C02D12B6803B1236038BD5403002076
:1032F000F8B500BFF8BC08BC9E467047F8B500BFE3
:08330000F8BC08BC9E467047B2
:103308000D0A454545333039365320507261637490
:103318006963616C2033202D2053544D3332463479
:10332800204D616E64656C62726F742042656E63D5
:10333800686D61726B0D0000000000005359534323
:103348004C4B3A20256C7520487A0D0A0000000085
:103358000D0A3D3D3D2046505520496D706163740E
:1033680020416E616C797369733A20464C4F415421
:1033780020505245434953494F4E203D3D3D0D0095
:10338800464C4F415400000025733A202575782596
:10339800752C206379636C657320256C752C2074FB
:1033A800696D6520252E366620732C207468726F2F
:1033B80075676870757420252E3066207070732CC0
:1033C80020636865636B73756D20256C750D0A0045
:1033D8000D0A3D3D3D2046505520496D706163748E
:1033E80020416E616C797369733A20444F55424CA1
:1033F8004520505245434953494F4E203D3D3D0DD0
:1034080000000000444F55424C4500000D0A3D3D68
:103418003D2046505520496D7061637420416E61AE
:103428006C797369733A20434F4D50415249534F59
:103438004E203D3D3D0D0000434F4D5041524953F4
:103448004F4E2025757825753A20466C6F6174209B
:10345800636865636B73756D20256C752C20446FEC
:1034680075626C6520636865636B73756D20256C88
:10347800752C205370656564757020252E3266782A
:103488000D0A00008000A000C000E000000100005C
:1034980000000000000000000102030406070809FC
:1034A800232D302B2000686C4C0065666745464725
:1034B80000303132333435363738394142434445A8
:1034C8004600303132333435363738396162636417
:0434D8006566000025
:0834DC0034CDFF7F0100000068
:0434E400F5010008E6
:0434E800D101000806
:1034EC0001000000100000000024F40000000000A7
:1034FC0003000000180200201C0000200000000047
:10350C001802002080020020E802002000000000C9
:10351C00000000000000000000000000000000009F
:10352C00000000000000000000000000000000008F
:10353C00000000000000000000000000000000007F
:08354C00000000000000000077
:040000050800238547
:00000001FF
