:020000040800F2
:1000000000000220C5360008F9230008012400087A
:100010000924000811240008192400080000000029
:100020000000000000000000000000002124000883
:100030002F240008000000003D2400084B24000885
:100040001537000815370008153700081537000860
:100050001537000815370008153700081537000850
:100060001537000815370008153700081537000840
:100070001537000815370008153700081537000830
:100080001537000815370008153700081537000820
:100090001537000815370008153700081537000810
:1000A0001537000815370008153700081537000800
:1000B00015370008153700081537000815370008F0
:1000C00015370008153700081537000815370008E0
:1000D00015370008153700081537000815370008D0
:1000E00015370008153700081537000815370008C0
:1000F00015370008153700081537000815370008B0
:10010000153700081537000815370008153700089F
:10011000153700081537000815370008153700088F
:10012000153700081537000815370008153700087F
:100130001537000800000000000000001537000817
:10014000153700081537000815370008153700085F
:10015000153700081537000815370008153700084F
:10016000153700081537000815370008153700083F
:100170001537000815370008153700080000000083
:10018000000000001537000800000000000000001B
:1001900015370008000000000000000015370008B7
:1001A00000000000000000000000000015370008FB
:1001B00015370008153700081537000815370008EF
:0401C00015370008E7
:1001D00010B5054C237833B9044B13B10448AFF381
:1001E00000800123237010BD880000200000000063
:1001F0003046000808B5034B1BB103490348AFF371
:10020000008008BD000000008C000020304600087F
:1002100001F0FF01102A2BDB10F0070F08D010F8B7
:10022000013B013A8B422DD010F0070F42B3F6D1BB
:10023000F0B441EA012141EA014122F007047FF0D4
:1002400000070023F0E80256083C85EA010586EA2B
:10025000010685FA47F5A3FA87F586FA47F6A5FA67
:1002600087F68EB9EED1F0BC01F0FF0102F0070273
:1002700032B110F8013B013A83EA010313B1F8D11E
:100280000020704701387047002D06BF35460338FF
:10029000073815F0010F07D1013015F4807F02BF38
:1002A000013015F4C03F0130F0BC0138704700BF89
:1002B00081F0004102E000BF83F0004330B54FEA17
:1002C00041044FEA430594EA050F08BF90EA020F84
:1002D0001FBF54EA000C55EA020C7FEA645C7FEA17
:1002E000655C00F0E2804FEA5454D4EB5555B8BF3A
:1002F0006D420CDD2C4480EA020281EA030382EAAB
:10030000000083EA010180EA020281EA0303362D3C
:1003100088BF30BD11F0004F4FEA01314FF4801C0F
:100320004CEA113102D0404261EB410113F0004F21
:100330004FEA03334CEA133302D0524263EB4303D8
:1003400094EA050F00F0A780A4F10104D5F1200E76
:100350000DDB02FA0EFC22FA05F2801841F10001D1
:1003600003FA0EF2801843FA05F359410EE0A5F1A5
:1003700020050EF1200E012A03FA0EFC28BF4CF0D6
:10038000020C43FA05F3C01851EBE37101F000458C
:1003900007D54FF0000EDCF1000C7EEB00006EEB99
:1003A0000101B1F5801F1BD3B1F5001F0CD3490823
:1003B0005FEA30004FEA3C0C04F101044FEA44527A
:1003C00012F5800F80F09A80BCF1004F08BF5FEA01
:1003D000500C50F1000041EB045141EA050130BDE1
:1003E0005FEA4C0C404141EB0101013C28BFB1F5F3
:1003F000801FE9D291F0000F04BF01460020B1FA3E
:1004000081F308BF2033A3F10B03B3F120020CDA10
:100410000C3208DD02F1140CC2F10C0201FA0CF0EE
:1004200021FA02F10CE002F11402D8BFC2F1200C53
:1004300001FA02F120FA0CFCDCBF41EA0C01904009
:10044000E41AA2BF01EB0451294330BD6FEA040452
:100450001F3C1CDA0C340EDC04F11404C4F120023D
:1004600020FA04F001FA02F340EA030021FA04F34F
:1004700045EA030130BDC4F10C04C4F1200220FAA6
:1004800002F001FA04F340EA0300294630BD21FAE4
:1004900004F0294630BD94F0000F83F4801306BFAA
:1004A00081F480110134013D4EE77FEA645C18BF9E
:1004B0007FEA655C29D094EA050F08BF90EA020F35
:1004C00005D054EA000C04BF1946104630BD91EA2D
:1004D000030F1EBF0021002030BD5FEA545C05D130
:1004E0004000494128BF41F0004130BD14F580046F
:1004F0003CBF01F5801130BD01F0004545F0FE41E3
:1005000041F470014FF0000030BD7FEA645C1ABF17
:10051000194610467FEA655C1CBF0B46024650EA4E
:10052000013406BF52EA033591EA030F41F400217A
:1005300030BD00BF90F0000F04BF0021704730B500
:100540004FF4806404F132044FF000054FF00001D5
:1005500050E700BF90F0000F04BF0021704730B596
:100560004FF4806404F1320410F0004548BF40426B
:100570004FF000013EE700BF42004FEAE2014FEAC0
:1005800031014FEA02701FBF12F07F4393F07F4F9B
:1005900081F06051704732F07F4208BF704793F09E
:1005A0007F4F04BF41F40021704730B54FF46074B1
:1005B00001F0004521F000411CE700BF50EA0102B4
:1005C00008BF704730B54FF000050AE050EA01025D
:1005D00008BF704730B511F0004502D5404261EBCD
:1005E00041014FF4806404F132045FEA915C3FF40E
:1005F000D8AE4FF003025FEADC0C18BF03325FEAAB
:10060000DC0C18BF033202EBDC02C2F1200300FA5B
:1006100003FC20FA02F001FA03FE40EA0E0021FA80
:1006200002F11444BDE600BF70B54FF0FF0C4CF46E
:10063000E06C1CEA11541DBF1CEA135594EA0C0F20
:1006400095EA0C0F00F0DEF82C4481EA030621EA5B
:100650004C5123EA4C5350EA013518BF52EA033596
:1006600041F4801143F4801338D0A0FB02CE4FF048
:100670000005E1FB02E506F00042E0FB03E54FF078
:100680000006E1FB03569CF0000F18BF4EF0010E70
:10069000A4F1FF04B6F5007F64F5407404D25FEA6C
:1006A0004E0E6D4146EB060642EAC62141EA55511F
:1006B0004FEAC52040EA5E504FEACE2EB4F1FD0C61
:1006C00088BFBCF5E06F1ED8BEF1004F08BF5FEADF
:1006D000500E50F1000041EB045170BD06F0004691
:1006E00046EA010140EA020081EA0301B4EB5C043E
:1006F000C2BFD4EB0C0541EA045170BD41F4801136
:100700004FF0000E013C00F3AB8014F1360FDEBF5A
:10071000002001F0004170BDC4F10004203C35DA36
:100720000C341BDC04F11404C4F1200500FA05F3B9
:1007300020FA04F001FA05F240EA020001F000425A
:1007400021F0004110EBD37021FA04F642EB0601D0
:100750005EEA430E08BF20EAD37070BDC4F10C04FA
:10076000C4F1200500FA04F320FA05F001FA04F2BE
:1007700040EA020001F0004110EBD37041F10001AA
:100780005EEA430E08BF20EAD37070BDC4F12005B5
:1007900000FA05F24EEA020E20FA04F301FA05F21D
:1007A00043EA020321FA04F001F0004121FA04F2C5
:1007B00020EA020000EBD3705EEA430E08BF20EA95
:1007C000D37070BD94F0000F0FD101F000464000CF
:1007D00041EB010111F4801F08BF013CF7D041EA51
:1007E000060195F0000F18BF704703F00046520055
:1007F00043EB030313F4801F08BF013DF7D043EA26
:100800000603704794EA0C0F0CEA135518BF95EADB
:100810000C0F0CD050EA410618BF52EA4306D1D162
:1008200081EA030101F000414FF0000070BD50EA81
:10083000410606BF1046194652EA430619D094EA0B
:100840000C0F02D150EA013613D195EA0C0F05D1F5
:1008500052EA03361CBF104619460AD181EA030149
:1008600001F0004141F0FE4141F470014FF0000001
:1008700070BD41F0FE4141F4780170BD70B54FF09C
:10088000FF0C4CF4E06C1CEA11541DBF1CEA13551C
:1008900094EA0C0F95EA0C0F00F0A7F8A4EB0504FE
:1008A00081EA030E52EA03354FEA013100F08880F5
:1008B0004FEA03334FF0805545EA131343EA1263BE
:1008C0004FEA022245EA111545EA10654FEA002673
:1008D0000EF000419D4208BF964244F1FD0404F52C
:1008E000407402D25B084FEA3202B61A65EB030588
:1008F0005B084FEA32024FF480104FF4002CB6EB45
:10090000020E75EB030E22BFB61A754640EA0C00C4
:100910005B084FEA3202B6EB020E75EB030E22BF04
:10092000B61A754640EA5C005B084FEA3202B6EB45
:10093000020E75EB030E22BFB61A754640EA9C0004
:100940005B084FEA3202B6EB020E75EB030E22BFD4
:10095000B61A754640EADC0055EA060E18D04FEA92
:10096000051545EA16754FEA06164FEAC30343EA32
:1009700052734FEAC2025FEA1C1CC0D111F4801FFF
:100980000BD141EA00014FF000004FF0004CB6E7F8
:1009900011F4801F04BF01430020B4F1FD0C88BF97
:1009A000BCF5E06F3FF6AFAEB5EB030C04BFB6EBA2
:1009B000020C5FEA500C50F1000041EB045170BD95
:1009C0000EF0004E4EEA113114EB5C04C2BFD4EBC2
:1009D0000C0541EA045170BD41F480114FF0000E46
:1009E000013C90E645EA060E8DE60CEA135594EAC2
:1009F0000C0F08BF95EA0C0F3FF43BAF94EA0C0FC5
:100A00000AD150EA01347FF434AF95EA0C0F7FF439
:100A100025AF104619462CE795EA0C0F06D152EA8D
:100A200003353FF4FDAE1046194622E750EA410671
:100A300018BF52EA43067FF4C5AE50EA41047FF482
:100A40000DAF52EA43057FF4EBAE12E74FF0FF3CE7
:100A500006E000BF4FF0010C02E000BF4FF0010CB8
:100A60004DF804CD4FEA410C7FEA6C5C4FEA430C31
:100A700018BF7FEA6C5C1BD001B050EA410C0CBF80
:100A800052EA430C91EA030F02BF90EA020F0020E2
:100A9000704710F1000F91EA030F58BF994208BF49
:100AA00090422CBFD8176FEAE37040F00100704706
:100AB0004FEA410C7FEA6C5C02D150EA013C07D15D
:100AC0004FEA430C7FEA6C5CD6D152EA033CD3D0A8
:100AD0005DF8040B704700BF8446104662468C46A2
:100AE0001946634600E000BF01B5FFF7B7FF0028D5
:100AF00048BF10F1000F01BD4DF808EDFFF7F4FFFE
:100B00000CBF012000205DF808FB00BF4DF808ED88
:100B1000FFF7EAFF34BF012000205DF808FB00BFAB
:100B20004DF808EDFFF7E0FF94BF012000205DF8CD
:100B300008FB00BF4DF808EDFFF7CEFF94BF012082
:100B400000205DF808FB00BF4DF808EDFFF7C4FF7B
:100B500034BF012000205DF808FB00BF7BB972B9EB
:100B60000029BEBF00204FF0004106E008BF00286A
:100B70001CBF6FF000414FF0FF3000F009BAADF13B
:100B8000080C6DE904CE002909DB002B1ADB00F00C
:100B900083F8DDF804E0DDE9022304B07047404249
:100BA00061EB4101002B1BDB00F076F8DDF804E07F
:100BB000DDE9022304B0404261EB4101524263EBA4
:100BC00043037047524263EB430300F065F8DDF8DE
:100BD00004E0DDE9022304B0404261EB41017047CB
:100BE000524263EB430300F057F8DDF804E0DDE91F
:100BF000022304B0524263EB4303704753B94AB92E
:100C0000002908BF00281CBF4FF0FF314FF0FF3014
:100C100000F0BEB9ADF1080C6DE904CE00F03CF86F
:100C2000DDF804E0DDE9022304B0704738B50022A6
:100C3000002304460D46FFF769FF28B920462946E0
:100C4000BDE8384000F00AB8204605F1004100F048
:100C500005F8404261EB410138BD00BFD0B50C4BF7
:100C6000002206460F46FFF7DFFC00F093F904462A
:100C7000FFF760FC074B0022FFF7D6FC02460B464D
:100C800030463946FFF718FB00F084F92146D0BD05
:100C90000000F03D0000F0412DE9F047089D8E4630
:100CA00004468846002B4AD18A42174662D9B2FAD6
:100CB00082F64EB1C6F1200301FA06F820FA03F3DA
:100CC000B74043EA0808B4404FEA174E1FFA87FCC2
:100CD000B8FBFEF1230C0EFB118843EA084301FB2D
:100CE0000CF29A4209D9FB1801F1FF3080F0EA803A
:100CF0009A4240F2E78002393B449A1AA3B2B2FB0F
:100D0000FEF00EFB102243EA024300FB0CFC9C4564
:100D100009D9FB1800F1FF3280F0D6809C4540F2E3
:100D2000D3803B44023840EA0140A3EB0C0300218E
:100D30001DB1F3400022C5E90032BDE8F0878B42C7
:100D400005D90DB1C5E9000100210846F5E7B3FA60
:100D500083F1002946D1734502D3824200F2058116
:100D6000841A6EEB030201209046002DE5D0C5E900
:100D70000048E2E7002A00F09080B2FA82F6002EE6
:100D800040F0A4808A1A030C4FEA174E80B2BCB21E
:100D90000121B2FBFEFC0EFB1C2243EA024304FBD2
:100DA0000CF29A4207D9FB180CF1FF3802D29A4292
:100DB00000F2E080C4469B1AB3FBFEF20EFB123336
:100DC00040EA034302FB04F49C4207D9FB1802F1FA
:100DD000FF3002D29C4200F2CA8002461B1B42EA4C
:100DE0000C40A5E7C1F120068B4022FA06F71F430D
:100DF0000EFA01F420FA06F32EFA06FE4FEA17491E
:100E0000234300FA01F81FFA87FCBEFBF9F01C0C23
:100E100009FB10EE44EA0E4400FB0CFEA64502FA64
:100E200001F209D93C1900F1FF3A80F09C80A645F7
:100E300040F2998002383C44A4EB0E041FFA83FE72
:100E4000B4FBF9F309FB13444EEA044403FB0CFC26
:100E5000A44508D93C1903F1FF3E80F08280A445E7
:100E60007FD9023B3C4443EA0040A4EB0C04A0FBC6
:100E700002EC64457346E14662D35FD05DB1B8EBE6
:100E8000030264EB090404FA06F622FA01F31E4396
:100E9000CC40C5E9006400214FE7B1FBF2FC010C36
:100EA00041EA0E4180B240EA01423B4638463C46A8
:100EB000B846BE462026B1FBF7F1A2EB080241EA94
:100EC0000C4166E7014618E710462CE7C6F1200200
:100ED0002EFA02F3B740B14020FA02F24FEA174E61
:100EE0000A43B3FBFEF8BCB20EFB1833110C41EA07
:100EF000034108FB04F9B04089454FEA104380B232
:100F00003ED9791808F1FF3C01D289451FD8A1EBE1
:100F10000901B1FBFEF909FB04F80EFB191192B2AD
:100F200042EA0142424529D2BA1809F1FF31C4D23E
:100F30004245C2D2A9F102013A44BEE7F0459DD232
:100F4000BEEB02036CEB070C0138E14696E7A7EB1A
:100F500009094944A8F1020CB1FBFEF909FB04F8A8
:100F6000DBE773467FE7504666E70846FDE63B440D
:100F7000023A33E7ACF1020C3B441CE749469CE7DC
:100F8000A1EB0901C446B1FBFEF909FB04F8C4E773
:100F9000704700BF4A0011D212F5001211D20DD5D0
:100FA0006FF47873B3EB62520ED44FEAC12343F06F
:100FB000004343EA505323FA02F070474FF0000019
:100FC000704750EA013002D14FF0FF3070474FF0C8
:100FD00000007047B0B5B4B006AF02F027FA00F0D9
:100FE00007FC00F073FC00F047FE694802F0BEFC0D
:100FF000684B1B681946684802F050FC674B00229A
:101000005A6000F053FEC7F88400012201216448B1
:1010100002F00CF9634B00221A60634802F0A6FC50
:101020000023C7F8B430A2E0604AD7F8B43032F8F1
:101030001330FB855E4AD7F8B43032F81330BB85E5
:10104000FB8D5C4A1360BB8D5B4A1360534B0022DF
:101050005A6000F02BFEB8626422B98DFB8D1846F1
:1010600000F084FC786200F021FE38623A6ABB6AC4
:10107000D31AFB61F869FFF75DFA04460D46454B4C
:101080001B681846FFF756FA02460B4620462946CB
:10109000FFF7F4FB02460B46C7E90423FB8D184615
:1010A000FFF748FA04460D46BB8D1846FFF742FA93
:1010B00002460B4620462946FFF7B6FA02460B4683
:1010C000C7E90223D7E90423D7E90201FFF7D6FBDA
:1010D00002460B46C7E90023384AFB691360384AC9
:1010E0007B6A13604FF00002364BD7E90401FFF72B
:1010F0009BFA02460B463449C1E900233349D7E93C
:101100000023C1E900233249D7F8B4307A6A41F8A4
:1011100023204FF000022B4BD7E90401FFF784FA9C
:1011200002460B462B48D7F8B410C9000144C1E968
:1011300000232949D7F8B430FA6941F82320274A17
:10114000D7F8B430DB00D118D7E90023C1E9002378
:10115000B98DF88D224B009397ED000B7B6AFA69ED
:1011600000F0B0FDD7F8B4300133C7F8B430052231
:10117000D7F8B4309342FFF457AF0A4B01221A60FC
:10118000184802F0F3FB0023C7F8B030D9E000BFE5
:10119000604600082800002098460008001000E083
:1011A0000004024018020020AC460008844A0008EF
:1011B000904A0008A4000020A8000020AC000020F5
:1011C000B000002000408F40B8000020C000002088
:1011D000C8000020E00000200801002020010020BD
:1011E000DC460008E44600085C4AD7F8B03032F824
:1011F0001330A7F85A305A4AD7F8B03032F81330C3
:10120000A7F85830B7F85A30564A1360B7F8583034
:10121000554A1360554B00225A6000F047FD78652F
:101220006422B7F85810B7F85A30184600F034FC6A
:10123000386500F03BFDF864FA6C7B6DD31ABB6433
:10124000B86CFFF777F904460D46494B1B68184602
:10125000FFF770F902460B4620462946FFF70EFBC2
:1012600002460B46C7E91023B7F85A301846FFF775
:1012700061F904460D46B7F858301846FFF75AF999
:1012800002460B4620462946FFF7CEF902460B469A
:10129000C7E90E23D7E91023D7E90E01FFF7EEFACD
:1012A00002460B46C7E90C23324ABB6C1360324A34
:1012B0003B6D13604FF00002304BD7E91001FFF790
:1012C000B3F902460B462E49C1E900232D49D7E95F
:1012D0000C23C1E900232C49D7F8B0303A6D41F80E
:1012E00023204FF00002254BD7E91001FFF79CF9AE
:1012F00002460B462548D7F8B010C9000144C1E9A1
:1013000000232349D7F8B030BA6C41F82320214A92
:10131000D7F8B030DB00D118D7E90C23C1E900239E
:10132000B7F85810B7F85A001B4B009397ED0C0B09
:101330003B6DBA6C00F0C6FCD7F8B0300133C7F88B
:10134000B0300522D7F8B0309342FFF44DAF1348C8
:1013500002F00CFB0023C7F8AC30C6E0844A00085A
:10136000904A0008A4000020A8000020001000E01F
:1013700028000020AC000020B000002000408F407A
:10138000B8000020C00000204801002060010020BB
:1013900088010020A001002018470008204700080D
:1013A000954AD7F8AC3032F81330A7F85E30934A3C
:1013B000D7F8AC3032F81330A7F85C304FF00002A9
:1013C0004FF00003C7E928238D4AD7F8AC3052F814
:1013D0002330002B36D08B4AD7F8AC3052F823306C
:1013E0001846FFF7A7F804460D46854AD7F8AC30F3
:1013F00052F823301846FFF79DF802460B46204668
:101400002946FEF759FF02460B4614461D467C4A04
:10141000D7F8AC3052F823301846FFF78BF8024665
:101420000B4620462946FFF729FA02460B4610468E
:1014300019464FF00002744BFFF7F6F802460B46D0
:10144000C7E92823714AD7F8AC30DB00D118D7E9B7
:101450002823C1E900234FF000024FF00003C7E941
:1014600026236B4AD7F8AC30DB001344D3E90001E4
:101470004FF000024FF00003FFF73EFB0346002B46
:1014800013D1644AD7F8AC30DB001344D3E9000130
:101490005F4AD7F8AC30DB001344D3E90023FFF7F1
:1014A000EDF902460B46C7E926235B4AD7F8AC3074
:1014B000DB00D118D7E92623C1E90023514AD7F828
:1014C000AC3052F823204E49D7F8AC3051F82330D5
:1014D000B7F85C10B7F85E0097ED260B00F02EFC15
:1014E000D7F8AC300133C7F8AC300522D7F8AC30B0
:1014F0009342FFF455AF00F0D9FBC7F88000D7F84E
:101500008020D7F88430D31A444A1360434B1B68B9
:101510001846FFF70FF804460D46414B1B68184666
:10152000FFF708F802460B4620462946FFF7A6F9C2
:1015300002460B46104619464FF00002394BFFF7A2
:1015400073F802460B463849C1E9002337494FF08A
:1015500000024FF00003C1E900230023C7F89430D4
:1015600022E02B4AD7F89430DB001344D3E9000182
:10157000284AD7F89430DB001344D3E90023FEF760
:101580009DFE02460B4610461946284BD3E9002320
:10159000FEF794FE02460B462449C1E90023D7F822
:1015A00094300133C7F894300522D7F89430934231
:1015B000D7D31F4802F0DAF90023C7F89030C4E00F
:1015C0001C4AD7F8903052F82330FB671A4AFB6F59
:1015D00013601A4AD7F890301360194AD7F8903040
:1015E00052F82330FA6F1946164802F057F90023D3
:1015F000C7F88C309FE000BF844A0008904A00087A
:1016000048010020C800002000005940C801002007
:10161000E000002060010020F00100201C020020FA
:101620002800002000408F402002002028020020D7
:101630004C4700089C4A0008F4020020F8020020F1
:1016400000000020804700085C4AD7F88C3032F850
:101650001330A7F87A305A4AD7F88C3032F8133062
:10166000A7F87830574B00225A6000F01FFB7867CC
:101670006422B7F87810B7F87A00FB6F00F004FC2A
:10168000386700F013FBF866FA6E7B6FD31ABB66FF
:10169000B86EFEF74FFF04460D464B4B1B681846CD
:1016A000FEF748FF02460B4620462946FFF7E6F8BC
:1016B00002460B46104619464FF00002434BFEF718
:1016C000B3FF02460B46C7E918234149D7F89020DB
:1016D00013469B001344D7F88C2013443A6F41F80B
:1016E00023203C49D7F8902013469B001344D7F899
:1016F0008C201344DB001944D7E91823C1E90023E7
:10170000B7F87A10B7F87800334AD7F8903052F823
:10171000233004933B6F0393BB6E0293D7E91823E6
:10172000CDE9002302462D4802F0B8F8D7F88C30F6
:101730000133C7F88C300522D7F88C30934283D31D
:10174000D7F890300133C7F890300322D7F89030A3
:101750009342FFF435AF224802F008F90023C7F89E
:10176000883012E01F4AD7F8883052F823101A4AFE
:10177000D7F8883052F823301A461B4802F08EF80A
:10178000D7F888300133C7F888300322D7F888307B
:101790009342E7D300F0D0FC00F080FD012202214B
:1017A000124801F043FD4FF4FA6001F0B1FE00224F
:1017B00003210E4801F03AFD20E400BF844A0008EE
:1017C000904A0008001000E02800002000408F40F0
:1017D0003002002070020020E8020020A847000824
:1017E000F0470008000000201848000800040240EC
:1017F00080B594B000AF07F11C03342200211846D5
:1018000002F094F907F1080300221A605A609A6006
:10181000DA601A6100237B602A4B1B6C294A43F073
:1018200080531364274B1B6C03F080537B607B68F1
:1018300000233B60244B1B6823F44043224A43F4BB
:1018400080431360204B1B6803F440433B603B68BC
:101850000123FB614FF480333B6202237B634FF42F
:101860008003BB630F23FB6390233B6402237B64F1
:101870000223BB640223FB6407F11C03184601F03A
:10188000A3F80346002B01D000F0B0FD0F23BB608E
:101890000223FB6000233B614FF4A0537B614FF4B4
:1018A0008053BB6107F108030321184600F0FCFDDB
:1018B0000346002B01D000F099FD00BF5037BD4614
:1018C00080BD00BF003802400070004080B588B085
:1018D00000AF07F10C0300221A605A609A60DA60C8
:1018E0001A610023BB601F4B1B6B1E4A43F00403AD
:1018F00013631C4B1B6B03F00403BB60BB6800232A
:101900007B60184B1B6B174A43F080031363154B26
:101910001B6B03F080037B607B6800233B60114BF3
:101920001B6B104A43F0020313630E4B1B6B03F057
:1019300002033B603B680022FF210B4801F076FC6C
:10194000FF23FB6001233B6100237B610023BB611C
:1019500007F10C031946044801F0D4FA00BF203700
:10196000BD4680BD003802400004024080B48BB008
:1019700000AF03463A60FB800B46BB8000237B62CE
:1019800000237B847BE07B8C07EE903AF8EE676A5D
:10199000BB8807EE903AB8EE677AC6EE877A77EEA4
:1019A000A77AB7EE007A77EEC77AC7ED047A0023FC
:1019B0003B845DE03B8C07EE903AF8EE676AFB886B
:1019C00007EE903AB8EE677AC6EE877AB0EE0C7AF8
:1019D00067EE877AB0EE047A77EEC77AC7ED037ABE
:1019E0004FF00003FB614FF00003BB6100237B61FC
:1019F00022E0D7ED077A27EEA77AD7ED067A67EED1
:101A0000A77A77EE677A97ED037A77EE277AC7EDB4
:101A1000027AD7ED077A37EEA77AD7ED067A67EE26
:101A2000277A97ED047A77EE277AC7ED067ABB68B6
:101A3000FB617B6901337B617A693B689A4210D212
:101A4000D7ED077A27EEA77AD7ED067A67EEA77A61
:101A500077EE277AB1EE007AF4EEC77AF1EE10FA5B
:101A6000C7D97A6A7B6913447B623B8C01333B8420
:101A70003A8CFB889A429DD37B8C01337B847A8C91
:101A8000BB889A42FFF47FAF7B6A18462C37BD466D
:101A90005DF8047B70470000B0B590B000AF03461E
:101AA0003A60FB800B46BB800023FB6300237B87EF
:101AB000D0E07B8F1846FEF73DFD04460D46BB88FF
:101AC0001846FEF737FD02460B4620462946FEF72C
:101AD000D5FE02460B461046194602460B46FEF757
:101AE000EDFB02460B46104619464FF000025E4BD6
:101AF000FEF7E2FB02460B46C7E9062300233B87BD
:101B0000A0E03B8F1846FEF715FD04460D46FB8806
:101B10001846FEF70FFD02460B4620462946FEF703
:101B2000ADFE02460B46104619464FF000024F4BE1
:101B3000FEF77AFD02460B46104619464FF00002AA
:101B40004B4BFEF7B9FB02460B46C7E904234FF0A7
:101B500000024FF00003C7E90C234FF000024FF0E2
:101B60000003C7E90A2300237B623EE0D7E90C2388
:101B7000D7E90C01FEF758FD02460B4614461D46F8
:101B8000D7E90A23D7E90A01FEF74EFD02460B46C4
:101B900020462946FEF790FB02460B46D7E9040192
:101BA000FEF78CFB02460B46C7E90223D7E90C017E
:101BB00002460B46FEF782FB02460B4610461946CC
:101BC000D7E90A23FEF730FD02460B46D7E90601A6
:101BD000FEF774FB02460B46C7E90A23D7E9022346
:101BE000C7E90C237B6A01337B627A6A3B689A42BD
:101BF00021D2D7E90C23D7E90C01FEF715FD0246E7
:101C00000B4614461D46D7E90A23D7E90A01FEF719
:101C10000BFD02460B4620462946FEF74FFB0246C7
:101C20000B46104619464FF00002124BFEF778FFA4
:101C30000346002B9AD1FA6B7B6A1344FB633B8FFC
:101C400001333B873A8FFB889A42FFF45AAF7B8F70
:101C500001337B877A8FBB889A42FFF42AAFFB6BF4
:101C600018464037BD46B0BD0000F03F00000C40B4
:101C7000000004400000104080B400AF094BDB6856
:101C8000084A43F08073D360074B00225A60064B2A
:101C90001B68054A43F00103136000BFBD465DF8B1
:101CA000047B7047F0ED00E0001000E080B400AF6E
:101CB000034B5B681846BD465DF8047B704700BF68
:101CC000001000E0B0B590B008AF3A61FB6087ED5E
:101CD000000B0346FB820B46BB823869FEF72AFCE9
:101CE00004460D46134B1B681846FEF723FC0246BC
:101CF0000B4620462946FEF7C1FD02460B46C7E9C2
:101D00000623F98AB88AFB680693D7E90023CDE950
:101D10000423D7E90623CDE902233B690093034658
:101D20000A46396B044801F0B9FD00BF2037BD46B3
:101D3000B0BD00BF280000204448000880B58AB02C
:101D400004AF3A61FB6087ED000B0346FB820B4654
:101D5000BB82F98AB88AD7E90023CDE90223FB6860
:101D600000933B690246034801F098FD00BF183715
:101D7000BD4680BD8C48000880B483B000AF786059
:101D80004FF06043D3F8803E03F00103002B13D0E3
:101D90000D4BDB6803F08073002B0DD000E000BF1B
:101DA0004FF060431B68002BF9D04FF060437A6816
:101DB000D2B21A707B6800E07B6818460C37BD46CB
:101DC0005DF8047B704700BFF0ED00E02DE9B04303
:101DD00086B000AFC7E90201C7E90023FB683A6893
:101DE00003FB02F27B68B96801FB03F31344B96893
:101DF0003A68A1FB02452B441D463B6B00229846E6
:101E0000914642464B4620462946FEF7A7FE02462B
:101E10000B46C7E90423D7E90423104619461837AF
:101E2000BD46BDE8B083B0B485B000AFC7E90201DC
:101E3000C7E90023D7E90201D7E90023841841EB61
:101E4000030522462B46104619461437BD46B0BC42
:101E5000704780B584B000AF87ED020B786078687A
:101E6000FEF768FBD7E90223FEF7DEFB02460B46CE
:101E700010461946FEF7DAFE02460B461046194692
:101E80001037BD4680BD00002DE9B04FAAB002AFAB
:101E90003A62FB610346FB840B46BB840023C7F810
:101EA0009C300023C7F89830F8699FED950BFFF739
:101EB000D0FFC7E91C01F8699FED930BFFF7C9FF3D
:101EC000C7E91A01F8699FED920BFFF7C2FFC7E956
:101ED0001801F8699FED900BFFF7BBFFC7E91601EA
:101EE0000023A7F89630F4E0B7F896301846FEF7CE
:101EF00021FB02460B46F86943EC102BFFF7A9FFC4
:101F0000FB690093D7E91C23FFF760FFBB8C00221D
:101F10003B617A61D7E90423FEF720FE02460B46B7
:101F200014461D46F8699FED7E0BFFF792FF0246AF
:101F30000B46B4EB020865EB0309C7E914890023DB
:101F4000A7F89430BAE0B7F894301846FEF7F2FAE2
:101F500002460B46F86943EC102BFFF77AFFFB694A
:101F60000093D7E91823FFF731FFFB8C0022BB60F9
:101F7000FA60D7E90223FEF7F1FD02460B46104650
:101F80001946D7E91623B0EB020A61EB030BC7E948
:101F900012AB4FF000024FF00003C7E922234FF0CD
:101FA00000024FF00003C7E920230023FB6774E021
:101FB000D7E922235C498A4273F1000314DAD7E996
:101FC00022235A498A4273F1FF330DDBD7E92023DC
:101FD00055498A4273F1000306DAD7E920235349B1
:101FE0008A4273F1FF3305DAD7F898300133C7F826
:101FF000983058E0FB690093D7E92223D7E9220102
:10200000FFF7E4FEC7E91001FB690093D7E920233D
:10201000D7E92001FFF7DAFEC7E90E01D7E90E2361
:10202000D7E91001FFF7FFFEC7E90C01D7E90C2340
:10203000D7E91A01904271EB030333DBD7E90E2392
:1020400000215042386061EB03037B60D7E9002335
:10205000D7E91001FFF7E7FED7E91223FFF7E3FE08
:10206000C7E90A01FB690093D7E92023D7E92201D8
:10207000FFF7ACFEFB690093D7E91C23FFF7A6FE30
:10208000D7E91423FFF7CFFEC7E92001D7E90A23D8
:10209000C7E92223FB6F0133FB67FA6F3B6A9A4261
:1020A00086D300E000BFD7F89C20FB6F1344C7F82D
:1020B0009C30B7F894300133A7F89430B7F89420E7
:1020C000FB8C9A42FFF43FAFB7F896300133A7F884
:1020D0009630B7F89620BB8C9A42FFF405AF144BAC
:1020E0001B681449D7F8982041F82320D7F89C3072
:1020F0001846A037BD46BDE8B08F00BFAFF30080E3
:10210000000000000000004000000000000010403F
:102110000000000000000C4000000000000004402F
:10212000000000000000F03F41420F00C0BDF0FF82
:10213000F8020020E8020020B0B58CB000AF3848AB
:1021400001F014FC0023FB620023BB62354B00222C
:102150005A60FFF7ABFD7862642280218020FFF790
:102160009BFC3862FFF7A2FDF861FA697B6AD31A1B
:10217000BB61B869FEF7DEF904460D462A4B1B68C1
:102180001846FEF7D7F902460B4620462946FEF7C9
:1021900075FB02460B46C7E90423B86900F05AF8FC
:1021A00087ED020BD7E90423D7E90201FEF73CFAD9
:1021B00002460B46104619464FF000021B4BFEF735
:1021C00033FA02460B46C7E900231949D7E902232F
:1021D000C1E900231749D7E90023C1E90023164AC2
:1021E000BB691360154801F0C1FBB969144801F0DF
:1021F00055FBD7E90423134801F050FBD7E902232C
:10220000114801F04BFBD7E90023104801F046FBD1
:10221000396A0F4801F042FB00BF3037BD46B0BD00
:10222000D8480008001000E02800002000408F403F
:1022300000030020080300201003002010490008BC
:1022400024490008404900086449000884490008FE
:10225000A449000880B586B000AF78604FF0000256
:102260000C4BC7E904234FF000020B4BC7E90223D4
:10227000D7E90223D7E90401FEF7D6F902460B4657
:1022800043EC172BB0EE470AF0EE670A1837BD464D
:1022900080BD00BF00005E400000F03F80B590B000
:1022A00002AF464801F062FB454801F05FFB0023A6
:1022B0007B633CE0434A7B6B32F813301946414A5A
:1022C0007B6B32F8133001FB03F31846FEF742F93B
:1022D0004FF000023C4BFEF7D1FA02460B46C7E92D
:1022E00004233A4BD3E90023D7E90401FEF79CF914
:1022F00002460B46C7E90223354BD3E90023D7E951
:102300000401FEF791F902460B46C7E90023314A62
:102310007B6B52F82310D7E90023CDE90023D7E9DE
:1023200002232D4801F0BAFA7B6B01337B637B6B90
:10233000042BBFDD294801F019FB00233B6335E086
:10234000274A3B6B52F823301846FEF7F3F84FF05C
:102350000002244BFEF792FA02460B46C7E90A2315
:102360001A4BD3E90023D7E90A01FEF75DF90246CB
:102370000B46C7E90823164BD3E90023D7E90A0126
:10238000FEF752F902460B46C7E90623144A3B6B97
:1023900052F82310D7E90623CDE90023D7E9082313
:1023A000114801F07BFA3B6B01333B633B6B042B21
:1023B000C6DD00BF00BF3837BD4680BDB849000844
:1023C000DC490008A84A00080000D04000030020B3
:1023D000080300200C000020044A00081C4A0008E2
:1023E000B44A0008000059403C4A000880B400AFDD
:1023F00072B600BF00BFFDE780B400AF00BFFDE7CD
:1024000080B400AF00BFFDE780B400AF00BFFDE7C0
:1024100080B400AF00BFFDE780B400AF00BFFDE7B0
:1024200080B400AF00BFBD465DF8047B704780B448
:1024300000AF00BFBD465DF8047B704780B400AFBD
:1024400000BFBD465DF8047B704780B500AF01F06A
:102450003FF800BF80BD000080B483B000AF002310
:102460007B60104B5B6C0F4A43F4804353640D4B0D
:102470005B6C03F480437B607B6800233B60094B0B
:102480001B6C084A43F080531364064B1B6C03F02B
:1024900080533B603B6800BF0C37BD465DF8047B52
:1024A000704700BF0038024080B584B000AF78604C
:1024B00039607B68002B01D10123CCE0684B1B689D
:1024C00003F00F033A689A420CD9654B3A68D2B2CE
:1024D0001A70634B1B6803F00F033A689A4201D0ED
:1024E0000123B8E07B681B6803F00203002B20D0B7
:1024F0007B681B6803F00403002B05D0594B9B68D5
:10250000584A43F4E05393607B681B6803F0080368
:10251000002B05D0534B9B68524A43F460439360B1
:10252000504B9B6823F0F0027B689B684D49134336
:102530008B607B681B6803F00103002B44D07B6831
:102540005B68012B07D1474B1B6803F40033002B5A
:1025500019D101237FE07B685B68022B03D07B6885
:102560005B68032B07D13F4B1B6803F00073002B04
:1025700009D101236FE03B4B1B6803F00203002BE2
:1025800001D1012367E0374B9B6823F003027B688E
:102590005B68344913438B6000F0AEFFF8600AE0DB
:1025A00000F0AAFF0246FB68D31A41F28832934238
:1025B00001D903234FE02B4B9B6803F00C027B688F
:1025C0005B689B009A42EBD1254B1B6803F00F031D
:1025D0003A689A420CD2224B3A68D2B21A70204B17
:1025E0001B6803F00F033A689A4201D0012332E0DE
:1025F0007B681B6803F00403002B08D0194B9B6811
:1026000023F4E0527B68DB68164913438B607B68D8
:102610001B6803F00803002B09D0124B9B6823F4BE
:1026200060427B681B69DB000E4913438B6000F03E
:1026300021F802460B4B9B681B0903F00F030A4964
:10264000CB5C22FA03F3094A1360094B1B68184656
:1026500000F00EFF002318461037BD4680BD00BFB6
:10266000003C024000380240C84A00082800002010
:10267000200000202DE9B04FA6B000AF0023C7F81E
:102680008C300023C7F894300023C7F8883000232B
:10269000C7F884300023C7F89030C84B9B6803F01C
:1026A0000C030C2B00F27E8101A252F823F000BF34
:1026B000E5260008A5290008A5290008A529000885
:1026C000ED260008A5290008A5290008A52900086D
:1026D000F5260008A5290008A5290008A529000855
:1026E0005F280008B64BC7F890305FE1B54BC7F8DC
:1026F00090305BE1B14B5B6803F03F03C7F88C306F
:10270000AE4B5B6803F48003002B31D0AB4B5B68AE
:102710009B090022BB66FA66BB6EC3F308033B66E7
:1027200000237B66A74BD7E918452A4603FB02F234
:102730000023214601FB03F31344A24A2146A1FBD7
:102740000212FA670A46BA67FA6F1344FB67D7F8B2
:102750008C300022BB65FA65D7E91623D7E91E0144
:10276000FEF74CFA02460B461346C7F8943064E075
:10277000924B5B689B0900223B657A653B6DC3F316
:102780000803BB640023FB64D7E9124522462B46AD
:102790004FF000004FF00001590141EAD2615001B1
:1027A00002460B462146511A3961294663EB010363
:1027B0007B614FF000024FF00003D7E904AB5946AC
:1027C0008B01514643EA916351468A015146B2EB6F
:1027D0000108594663EB01094FF000024FF0000376
:1027E0004FEAC90343EA58734FEAC8029046994634
:1027F000234618EB0303BB602B4649EB0303FB6046
:102800004FF000024FF00003D7E9024529468B0242
:10281000214643EA915321468A0210461946D7F8C9
:102820008C3000223B647A64D7E91023FEF7E6F986
:1028300002460B461346C7F89430604B5B681B0C8E
:1028400003F0030301335B00C7F88830D7F8942006
:10285000D7F88830B2FBF3F3C7F89030A6E0574BB7
:102860005B6803F03F03C7F88C30544B5B6803F49C
:102870008003002B2AD0514B5B689B090022BB636D
:10288000FA63BB6BC3F3080000214E4B03FB01F25C
:10289000002300FB03F313444A4AA0FB02127A67A9
:1028A0000A463A677A6F13447B67D7F88C30002268
:1028B0003B637A63D7E90C23D7E91C01FEF79EF945
:1028C00002460B461346C7F894305BE03B4B5B680F
:1028D0009B090022BB62FA62BB6AC3F308033B6236
:1028E00000237B62D7E9088942464B464FF000003F
:1028F0004FF00001590141EAD261500102460B46F6
:102900004146B2EB010A494663EB010B4FF000026E
:102910004FF000034FEA8B1343EA9A634FEA8A129F
:10292000B2EB0A0463EB0B054FF000024FF000031B
:10293000EB0043EA5473E20014461D464346E31895
:102940003B604B4645EB03037B604FF000024FF0CA
:102950000003D7E9004529468B02214643EA9153FB
:1029600021468A0210461946D7F88C300022BB61F6
:10297000FA61D7E90623FEF741F902460B461346F2
:10298000C7F894300D4B5B681B0F03F00703C7F8C3
:102990008430D7F89420D7F88430B2FBF3F3C7F82B
:1029A000903003E0064BC7F8903000BFD7F8903066
:1029B00018469837BD46BDE8B08F00BF00380240CA
:1029C0000024F40040787D0180B586B000AF7860C7
:1029D0007B68002B01D101238DE27B681B6803F02B
:1029E0000103002B00F08380944B9B6803F00C03E1
:1029F000042B19D0914B9B6803F00C03082B06D1D4
:102A00008E4B5B6803F48003B3F5800F0CD08B4BC7
:102A10009B6803F00C030C2B12D1884B5B6803F40A
:102A20008003B3F5800F0BD1844B1B6803F4003394
:102A3000002B5BD07B685B68002B57D101235AE2E7
:102A40007B685B68B3F5803F06D17C4B1B687B4A93
:102A500043F4803313601DE07B685B68B3F5A02FFF
:102A60000CD1764B1B68754A43F480231360734B7B
:102A70001B68724A43F4803313600BE06F4B1B6892
:102A80006E4A23F4803313606C4B1B686B4A23F44B
:102A9000802313607B685B68002B13D000F02CFD53
:102AA000386108E000F028FD02463B69D31A642B28
:102AB00001D903231FE2614B1B6803F40033002B91
:102AC000F0D014E000F018FD386108E000F014FDCB
:102AD00002463B69D31A642B01D903230BE2574BFF
:102AE0001B6803F40033002BF0D100E000BF7B68CB
:102AF0001B6803F00203002B6FD0504B9B6803F060
:102B00000C03002B17D04D4B9B6803F00C03082BD4
:102B100005D14A4B5B6803F48003002B0BD0474B75
:102B20009B6803F00C030C2B1CD1444B5B6803F433
:102B30008003002B16D1414B1B6803F00203002BCE
:102B400005D07B68DB68012B01D00123D3E13B4B2F
:102B50001B6823F0F8027B681B69DB0037491343CD
:102B60000B603AE07B68DB68002B20D0344B0122FD
:102B70001A6000F0C1FC386108E000F0BDFC0246BC
:102B80003B69D31A022B01D90323B4E12B4B1B68F9
:102B900003F00203002BF0D0284B1B6823F0F8024F
:102BA0007B681B69DB00254913430B6015E0244B50
:102BB00000221A6000F0A0FC386108E000F09CFCE4
:102BC00002463B69D31A022B01D9032393E11B4B25
:102BD0001B6803F00203002BF0D17B681B6803F035
:102BE0000803002B36D07B685B69002B16D0154B91
:102BF00001221A6000F080FC386108E000F07CFCE3
:102C000002463B69D31A022B01D9032373E10B4B14
:102C10005B6F03F00203002BF0D01BE0094B002296
:102C20001A6000F069FC38610EE000F065FC0246B5
:102C30003B69D31A022B07D903235CE10038024019
:102C400000004742800E47428A4B5B6F03F002034D
:102C5000002BEAD17B681B6803F00403002B00F013
:102C600097800023FB75834B1B6C03F08053002B74
:102C70000FD10023BB607F4B1B6C7E4A43F0805317
:102C800013647C4B1B6C03F08053BB60BB68012357
:102C9000FB75794B1B6803F48073002B18D1764BBE
:102CA0001B68754A43F48073136000F025FC38619B
:102CB00008E000F021FC02463B69D31A022B01D93F
:102CC000032318E16C4B1B6803F48073002BF0D0D6
:102CD0007B689B68012B06D1664B1B6F654A43F0EE
:102CE000010313671CE07B689B68052B0CD1614BCB
:102CF0001B6F604A43F0040313675E4B1B6F5D4A12
:102D000043F0010313670BE05A4B1B6F594A23F042
:102D100001031367574B1B6F564A23F004031367D5
:102D20007B689B68002B15D000F0E6FB38610AE059
:102D300000F0E2FB02463B69D31A41F2883293422B
:102D400001D90323D7E04B4B1B6F03F00203002B89
:102D5000EED014E000F0D0FB38610AE000F0CCFBCC
:102D600002463B69D31A41F28832934201D90323C8
:102D7000C1E0404B1B6F03F00203002BEED1FB7D43
:102D8000012B05D13B4B1B6C3A4A23F08053136453
:102D90007B689B69002B00F0AD80364B9B6803F08D
:102DA0000C03082B60D07B689B69022B45D1334B09
:102DB00000221A6000F0A0FB386108E000F09CFBE4
:102DC00002463B69D31A022B01D9032393E0294B16
:102DD0001B6803F00073002BF0D17B68DA697B6815
:102DE0001B6A1A437B685B6A9B011A437B689B6A78
:102DF0005B08013B1B041A437B68DB6A1B061A4312
:102E00007B681B6B1B071B4913434B601B4B012249
:102E10001A6000F071FB386108E000F06DFB0246BB
:102E20003B69D31A022B01D9032364E0114B1B68C1
:102E300003F00073002BF0D05CE0104B00221A600E
:102E400000F05AFB386108E000F056FB02463B698F
:102E5000D31A022B01D903234DE0064B1B6803F064
:102E60000073002BF0D145E07B689B69012B07D1F3
:102E7000012340E0003802400070004060004742FB
:102E80001F4B5B68FB607B689B69012B30D0FB6844
:102E900003F480027B68DB699A4229D1FB6803F066
:102EA0003F027B681B6A9A4222D1FA6847F6C073D8
:102EB00013407A68526A9201934219D1FB6803F475
:102EC00040327B689B6A5B08013B1B049A420FD12E
:102ED000FB6803F070627B68DB6A1B069A4207D1CD
:102EE000FB6803F0E0427B681B6B1B079A4201D032
:102EF000012300E0002318461837BD4680BD00BFFF
:102F00000038024080B489B000AF78603960002397
:102F10007B6100233B610023BB610023FB6165E112
:102F20000122FB6902FA03F37B613B681B687A6943
:102F300013403B613A697B699A4240F054813B6897
:102F40005B6803F00303012B05D03B685B6803F06B
:102F50000303022B30D17B689B68BB61FB695B007C
:102F6000032202FA03F3DB43BA691340BB613B68F7
:102F7000DA68FB695B0002FA03F3BA691343BB61C9
:102F80007B68BA699A607B685B68BB610122FB69F8
:102F900002FA03F3DB43BA691340BB613B685B6829
:102FA0001B0903F00102FB6902FA03F3BA69134338
:102FB000BB617B68BA695A603B685B6803F00303D6
:102FC000032B17D07B68DB68BB61FB695B000322C6
:102FD00002FA03F3DB43BA691340BB613B689A68AA
:102FE000FB695B0002FA03F3BA691343BB617B68B8
:102FF000BA69DA603B685B6803F00303022B23D1F4
:10300000FB69DA087B68083253F82230BB61FB6940
:1030100003F007039B000F2202FA03F3DB43BA69B4
:103020001340BB613B681A69FB6903F007039B000F
:1030300002FA03F3BA691343BB61FB69DA087B68E0
:103040000832B96943F822107B681B68BB61FB69D1
:103050005B00032202FA03F3DB43BA691340BB614E
:103060003B685B6803F00302FB695B0002FA03F351
:10307000BA691343BB617B68BA691A603B685B68D5
:1030800003F44033002B00F0AE800023FB605D4B67
:103090005B6C5C4A43F4804353645A4B5B6C03F4AF
:1030A0008043FB60FB68584AFB699B08023352F877
:1030B0002330BB61FB6903F003039B000F2202FA7C
:1030C00003F3DB43BA691340BB617B684F4A934209
:1030D00025D07B684E4A93421FD07B684D4A93426D
:1030E00019D07B684C4A934213D07B684B4A934279
:1030F0000DD07B684A4A934207D07B68494A934285
:1031000001D106230CE007230AE0052308E004238D
:1031100006E0032304E0022302E0012300E0002391
:10312000FA6902F0030292009340BA691343BB614B
:103130003549FB699B080233BA6941F823203A4BB1
:103140009B68BB613B69DB43BA691340BB613B6869
:103150005B6803F48013002B03D0BA693B69134307
:10316000BB61314ABB6993602F4BDB68BB613B6934
:10317000DB43BA691340BB613B685B6803F400132F
:10318000002B03D0BA693B691343BB61264ABB6974
:10319000D360254B5B68BB613B69DB43BA69134075
:1031A000BB613B685B6803F40033002B03D0BA6952
:1031B0003B691343BB611C4ABB6953601A4B1B68D4
:1031C000BB613B69DB43BA691340BB613B685B6829
:1031D00003F48033002B03D0BA693B691343BB610E
:1031E000114ABB691360FB690133FB61FB690F2B5B
:1031F0007FF696AE00BF00BF2437BD465DF8047B66
:10320000704700BF00380240003801400000024013
:103210000004024000080240000C0240001002407E
:103220000014024000180240003C014080B483B00A
:1032300000AF78600B467B8013467B707B78002B59
:1032400003D07A887B689A6103E07B881A047B68E4
:103250009A6100BF0C37BD465DF8047B70470000E3
:1032600080B485B000AF78607B6803F00703FB6033
:103270000C4BDB68BB60BA684FF6FF031340BB60C2
:10328000FB681A02BB68134343F0BF6343F4003387
:10329000BB60044ABB68D36000BF1437BD465DF80D
:1032A000047B704700ED00E080B400AF044BDB68A6
:1032B0001B0A03F007031846BD465DF8047B704700
:1032C00000ED00E080B483B000AF03463960FB71CD
:1032D00097F90730002B0ADB3B68DAB20C4997F903
:1032E00007301201D2B20B4483F800230AE03B6896
:1032F000DAB20849FB7903F00F03043B1201D2B2A2
:103300000B441A7600BF0C37BD465DF8047B70474E
:1033100000E100E000ED00E080B489B000AFF860AB
:10332000B9607A60FB6803F00703FB61FB69C3F1D6
:103330000703042B28BF0423BB61FB690433062B5E
:1033400002D9FB69033B00E000237B614FF0FF32B1
:10335000BB6902FA03F3DA43BB681A407B699A40FF
:103360004FF0FF317B6901FA03F3D9437B680B40CF
:10337000134318462437BD465DF8047B70470000B0
:1033800080B582B000AF78607B68013BB3F1807F8D
:1033900001D301230FE00A4A7B68013B53600F21F0
:1033A0004FF0FF30FFF78EFF054B00229A60044B71
:1033B00007221A60002318460837BD4680BD00BFAB
:1033C00010E000E080B582B000AF78607868FFF769
:1033D00047FF00BF0837BD4680BD80B586B000AF4F
:1033E0000346B9607A60FB7300237B61FFF75CFFE3
:1033F00078617A68B9687869FFF78EFF024697F9B5
:103400000F3011461846FFF75DFF00BF1837BD4665
:1034100080BD80B582B000AF78607868FFF7B0FFFC
:10342000034618460837BD4680BD000080B500AF92
:103430000E4B1B680D4A43F4007313600B4B1B6863
:103440000A4A43F480631360084B1B68074A43F43D
:10345000807313600320FFF7B5FF0F2000F008F81A
:10346000FEF7FAFF0023184680BD00BF003C024073
:1034700080B582B000AF7860124B1A68124B1B788F
:1034800019464FF47A73B3FBF1F3B2FBF3F318462A
:10349000FFF7BFFF0346002B01D001230EE07B683E
:1034A0000F2B0AD8002279684FF0FF30FFF795FF05
:1034B000064A7B681360002300E0012318460837A2
:1034C000BD4680BD280000202400002020000020F0
:1034D00080B400AF064B1B781A46064B1B6813449A
:1034E000044A136000BFBD465DF8047B704700BF0F
:1034F000240000201403002080B400AF034B1B689D
:103500001846BD465DF8047B704700BF14030020D9
:1035100080B584B000AF7860FFF7EEFFB8607B68DD
:10352000FB60FB68B3F1FF3F05D00A4B1B781A46DE
:10353000FB681344FB6000BFFFF7DEFF0246BB6879
:10354000D31AFA689A42F7D800BF00BF1037BD46B9
:1035500080BD00BF2400002080B400AF064BD3F82C
:103560008830054A43F47003C2F8883000BFBD4676
:103570005DF8047B704700BF00ED00E080B586B0C9
:1035800000AF7860144A154BD31A7B617B693B61AD
:10359000134B1B68002B02D1114B124A1A60104BBF
:1035A0001A687B6813443A699A4207D200F00CFB10
:1035B00003460C221A604FF0FF3309E0084B1B68EA
:1035C000FB60074B1A687B681344054A1360FB686D
:1035D00018461837BD4680BD0000022000040000D8
:1035E000180300206804002080B586B000AFF860A2
:1035F000B9607A6000237B610AE0AFF30080014686
:10360000BB685A1CBA60CAB21A707B6901337B610D
:103610007A697B689A42F0DB7B6818461837BD46AA
:1036200080BD80B586B000AFF860B9607A600023D5
:103630007B6109E0BB685A1CBA601B781846FEF72C
:103640009BFB7B6901337B617A697B689A42F1DB82
:103650007B6818461837BD4680BD80B483B000AF84
:1036600078604FF0FF3318460C37BD465DF8047B99
:10367000704780B483B000AF786039603B684FF426
:1036800000525A60002318460C37BD465DF8047B93
:10369000704780B483B000AF7860012318460C37C0
:1036A000BD465DF8047B704780B485B000AFF8601C
:1036B000B9607A60002318461437BD465DF8047B74
:1036C00070470000DFF834D0FFF746FF0C480D4983
:1036D0000D4A002302E0D458C4500433C4188C426D
:1036E000F9D30A4A0A4C002301E013600432A242D3
:1036F000FBD300F06FFAFDF76DFC7047000002206D
:1037000000000020880000201C4B000888000020DA
:1037100068040020FEE70000002310B50446C0E95D
:103720000033C0E90433836081814366C2818361D1
:10373000194608225C3000F0F9F90D4B63620D4B1D
:10374000A3620D4BE3620D4B23630D4B24629C423D
:1037500006D003F16802944202D0D0339C4205D1D6
:1037600004F15800BDE8104000F058BA10BD00BF89
:103770007D3900089F390008D7390008FB39000857
:103780001C030020024A0349034800F069B800BF47
:103790002C000020B94400083C00002041680C4B7C
:1037A000994210B5044601D000F086FEA168094B8D
:1037B000994202D0204600F07FFEE168064B994214
:1037C00004D02046BDE8104000F076BE10BD00BF1A
:1037D0001C03002084030020EC03002010B50B4BD9
:1037E0000B4C0C4A1A60204600220421FFF794FF7C
:1037F00004F1680001220921FFF78EFF04F1D000D7
:103800000222BDE810401221FFF786BF54040020B9
:103810001C03002085370008014800F000BA00BFF3
:103820005D040020014800F0FBB900BF5D040020EA
:1038300010B50446FFF7F0FF236A1BB1BDE8104046
:10384000FFF7F0BF044B2362044B1B68002BF5D13C
:10385000FFF7C4FFF2E700BF9D37000854040020C3
:103860002DE9F8430746884614460026D4E9019519
:10387000B9F1010905D52468002CF7D13046BDE81F
:10388000F883AB89012B07D9B5F90E30013303D08A
:1038900029463846C04706436835E9E70FB407B5FF
:1038A000064904AB086853F8042B8168019300F0C3
:1038B000DBFA03B05DF804EB04B070473800002079
:1038C000036A70B5846805460E460BB9FFF7B0FF72
:1038D000636EDB0705D4A389980502D4A06D00F0C0
:1038E0009EF9A389190702D52369002B35D12146FA
:1038F000284600F0C5F880B34FF0FF35636EDA0755
:1039000005D4A3899B0502D4A06D00F089F928464F
:1039100070BD002B04DAA2699A4217DC0A2915D07F
:1039200023685A1C22601970A36816F8011F013B16
:10393000A3600029EDD1002B11DA22460A21284686
:1039400000F05FF80130D7D00A25D7E72246284695
:1039500000F057F80130E7D1CEE7013EE4E72368F5
:103960005A1C22600A221A70EEE70000024B014640
:103970001868FFF7A5BF00BF3800002010B50C463F
:10398000B1F90E1000F0FCF80028ABBF636DA389FD
:103990001B1823F48053ACBF6365A38110BD2DE9D0
:1039A000F0411F468B89DB0505460C46164605D5BA
:1039B000B1F90E100223002200F0D0F8A389B4F967
:1039C0000E1023F48053A38132463B462846BDE8BF
:1039D000F04100F0E7B810B50C46B1F90E1000F058
:1039E000BDF8431CA38915BF606523F4805343F4DD
:1039F0008053A38118BFA38110BDB1F90E1000F050
:103A00009DB8F8B50E461446054618B1036A0BB9C1
:103A1000FFF70EFFA369A360A3891A0701D52369E5
:103A200043B92146284600F02BF818B14FF0FF3774
:103A30003846F8BD23682269981A6369F6B2834252
:103A4000374605DC2146284600F036FD0028EDD13A
:103A5000A368013BA36023685A1C22601E70626940
:103A6000431C9A4204D0A389DB07E1D50A2EDFD19B
:103A70002146284600F020FD0028D9D0D6E70000D6
:103A800038B5294B054618680C4618B1036A0BB9BE
:103A9000FFF7CEFEB4F90C30190722D4DA0607D4AA
:103AA00009222A6043F04003A3814FF0FF3033E046
:103AB000580712D5616B41B104F14403994202D019
:103AC000284600F0AFF800236363A38923F02403A2
:103AD000A3810023636023692360A38943F0080363
:103AE000A38123694BB9A38903F42073B3F5007F45
:103AF00003D02146284600F02DFDB4F90C3013F018
:103B000001020AD00022A26062695242A2612269C7
:103B100042B913F08000C5D138BD990758BF62691A
:103B2000A260F4E70020F7E73800002002440346D3
:103B3000934200D1704703F8011BF9E738B5064DF1
:103B40000023044608462B60FFF787FD431C02D183
:103B50002B6803B1236038BD5804002038B5074DE9
:103B600004460846114600222A601A46FFF79CFDCB
:103B7000431C02D12B6803B1236038BD58040020D8
:103B800038B5074D04460846114600222A601A46F9
:103B9000FFF72AFD431C02D12B6803B1236038BD17
:103BA0005804002038B5074D044608461146002247
:103BB0002A601A46FFF735FD431C02D12B6803B17A
:103BC000236038BD58040020014B1868704700BFBF
:103BD0003800002070B50D4D0D4C641BA41000265C
:103BE000A64209D10B4D0C4C00F022FD641BA41021
:103BF0000026A64205D170BD55F8043B9847013612
:103C0000EEE755F8043B98470136F2E7144B0008FD
:103C1000144B0008144B0008184B000870477047FD
:103C20007047000038B50546002941D051F8043CE2
:103C30000C1F002BB8BFE41800F0E0F81D4A136811
:103C400033B9636014602846BDE8384000F0DCB842
:103C5000A34208D9206821188B4201BF19685B680C
:103C600009182160EDE71A465B680BB1A342FAD947
:103C700011685018A0420BD12068014450188342AB
:103C80001160E0D118685B68536008441060DAE79F
:103C900002D90C232B60D6E7206821188B4204BF81
:103CA00019685B68636004BF091821605460CAE743
:103CB00038BD00BF6404002070B50F4E0C4631685B
:103CC000054611B900F0A4FC30602146284600F0FA
:103CD0009FFC431C03D14FF0FF34204670BDC41C31
:103CE00024F00304A042F8D0211A284600F090FCEA
:103CF0000130F2D1EFE700BF600400202DE9F84366
:103D0000CD1C25F0030508350C2D38BF0C25002DE2
:103D1000064601DBA94204D90C2333600020BDE82C
:103D2000F883DFF8D48000F069F8D8F800301C463A
:103D300044BB29463046FFF7BFFF431C044658D119
:103D4000D8F800402746002F43D1002C4BD02368E1
:103D50003946304604EB030900F05AFC814542D154
:103D600021686D1A29463046FFF7A6FF01303AD088
:103D700023682B442360D8F800305A6862BBC8F827
:103D800000700FE02268521B20D40B2A17D961194A
:103D9000A342256018BF5960636808BFC8F80010C7
:103DA00062514B60304600F02FF804F10B00231DE8
:103DB00020F00700C21A1CBF1B1AA350AFE76268AD
:103DC000A3420CBFC8F800205A60EBE723466468A2
:103DD000AEE73C467F68B6E71A465B68A342FBD174
:103DE00000235360DEE70C233360304600F00CF80C
:103DF00094E70560D6E700BF640400200148FFF7A0
:103E00000EBF00BF5C0400200148FFF709BF00BFE0
:103E10005C0400209368013B002B10B4936008DA27
:103E20009469A34201DB0A2903D15DF8044BFFF733
:103E3000E8BD1368581C1060197008465DF8044B03
:103E40007047F8B506460F461446D518AC4201D166
:103E5000002007E014F8011B3A463046FFF7DAFF6E
:103E6000431CF3D1F8BD00002DE9F04F0D469DB085
:103E700014469846064618B1036A0BB9FFF7D8FCFA
:103E80006B6ED90705D4AB899A0502D4A86DFFF7EC
:103E9000C6FEAB891B0701D52B699BB92946304665
:103EA000FFF7EEFD70B16B6EDC0704D54FF0FF300D
:103EB0001DB0BDE8F08FAB899805F7D4A86DFFF76A
:103EC000AFFEF3E70023099320238DF82930CDF8C6
:103ED0000C803023DFF8AC818DF82A304FF00109D7
:103EE00023469A4613F8012B0AB1252AF9D1BAEBD9
:103EF000040B0BD05B46224629463046FFF7A1FF54
:103F0000013000F0A780099A5A4409929AF80030CB
:103F1000002B00F09F8000234FF0FF32CDE90523F6
:103F20000AF1010A049307938DF853301A9354460B
:103F3000052214F8011B5348FCF76AF9049AD8B912
:103F4000D10644BF20238DF85330130744BF2B23E1
:103F50008DF853309AF800302A2B15D0079A544622
:103F600000204FF00A0C214611F8013B303B092B91
:103F70004BD9B0B1079214E0A0EB080309FA03F3A0
:103F800013430493A246D2E7039B191D1B680391B8
:103F9000002BBBBF5B4242F0020207930793B8BFFE
:103FA000049223782E2B0AD163782A2B32D1039BDB
:103FB0001A1D1B68039243EAE37302340593DFF88A
:103FC000D4A0217803225046FCF722F938B1049B93
:103FD000A0EB0A004022824013430134049314F8FA
:103FE000011B29488DF828100622FCF711F900283A
:103FF0003FD0264B1BBB039B073323F0070308333B
:104000000393099B3B4409936AE70CFB02320C467D
:104010000120A8E700230134059319464FF00A0C4C
:10402000204610F8012B303A092A03D9002BC6D0BC
:104030000591C4E70CFB012104460123F0E703AB23
:1040400000932A46124B04A93046AFF3008007467E
:10405000781CD6D16B6ED90705D4AB899A0502D4EA
:10406000A86DFFF7DDFDAB895B063FF51FAF099833
:104070001EE703AB00932A46054B04A9304600F027
:1040800079F8E4E7D84A0008E24A00080000000096
:10409000433E0008DE4A00082DE9F04716469846E0
:1040A0008A680B69DDF820909342B8BF13463360ED
:1040B00091F8432007460C460AB101333360236868
:1040C000990642BF336802333360256815F0060550
:1040D00006D104F1190AE36832689B1AAB4226DC68
:1040E00094F843302268003B18BF012392062BD47A
:1040F00004F1430241463846C84701301ED02368C8
:10410000226903F00603042B02BFE5683368ED1A49
:10411000A3680CBF25EAE57500259342C4BF9B1A2E
:10412000ED1800261A34B5421AD1002008E0012308
:10413000524641463846C847013003D14FF0FF3060
:10414000BDE8F0870135C6E7E1185A1C302081F838
:104150004300224494F8451082F843100233C7E725
:104160000123224641463846C8470130E6D0013691
:10417000D9E700002DE9FF470F7E0C9E782F91466E
:1041800080460C469A4601F1430207D8622F0AD8AE
:10419000002F00F0D180582F00F0B88004F14206C3
:1041A00084F842703AE0A7F16303152BF6D801A119
:1041B00051F823F00D420008214200089D410008FB
:1041C0009D4100089D4100089D41000821420008D2
:1041D0009D4100089D4100089D4100089D41000847
:1041E0001F4300084B420008D94200089D410008C7
:1041F0009D410008414300089D4100084B420008D2
:104200009D4100089D410008E142000833681A1DE5
:104210001B68326004F1420684F8423001239CE0BE
:1042200033682068191D3160060601D51D6803E05A
:104230004506FBD5B3F90050002D03DA2D236D425E
:1042400084F8433058480A2311E02168336808068F
:1042500053F8045B02D4490648BFADB26F2F5248F1
:10426000336014BF0A230823002184F843106668D2
:10427000A660002E05DB21682E4321F00401216099
:104280004BD01646B5FBF3F103FB1157C75D06F89B
:10429000017D2F46BB420D46F4D9082B0BD1236874
:1042A000DF0708D5236961689942DEBF302306F82D
:1042B000013C06F1FF36921B2261CDF800A04B466F
:1042C00003AA21464046FFF7E7FE01304AD14FF0EE
:1042D000FF3004B0BDE8F087236843F0200323607B
:1042E0003248782784F84570236831681F0651F8F2
:1042F000045B02D45F0648BFADB23160D90744BF4A
:1043000043F0200323601DB11023ADE72648E9E701
:10431000236823F020032360F6E71646BDE73368E1
:1043200025686169181D30602E061B6801D519606B
:1043300002E06806FBD51980002323611646BCE71E
:1043400033681A1D32601E68626800213046FBF730
:104350005FFF08B1801B606063682361002384F8FD
:104360004330AAE72369324649464046D0470130E8
:10437000ADD023689B0713D4E068039B9842B8BF75
:104380001846A6E70123324649464046D047013049
:104390009DD00135E36803995B1AAB42F2DCEBE791
:1043A000002504F11906F5E7E94A0008FA4A000871
:1043B000B1F90C202DE9F041160705460C4654D4FE
:1043C0004B68002B02DC0B6C002B48DDE66A002EEC
:1043D00045D0002312F480522F68216A2B6030D020
:1043E000626DA389590705D56368D21A636B0BB157
:1043F000236CD21A0023E66A216A2846B047431C80
:10440000A38906D129681D292BD82A4ACA40D60774
:1044100027D500226260D9042269226004D5421C9B
:1044200001D12B6803B96065616B2F60B9B104F1EC
:104430004403994202D02846FFF7F4FB002363634C
:104440000DE001232846B0470246501CC9D12B6815
:10445000002BC6D01D2B01D0162B1ED12F600020A3
:1044600022E043F040031BB21BE00F69002FF6D09F
:1044700093070E6808BF4B690F6018BF0023A6EBB7
:1044800007088B60B8F1000FE9DD216AA66A434690
:104490003A462846B047002808DCB4F90C3043F00F
:1044A0004003A3814FF0FF30BDE8F0810744A8EB43
:1044B0000008E7E70100402038B50B6905460C46C7
:1044C00013B90025284638BD18B1036A0BB9FFF7A8
:1044D000AFF9B4F90C30002BF3D0626ED00704D4DE
:1044E000990502D4A06DFFF79AFB28462146FFF7F5
:1044F0005FFF636EDA070546E4D4A3899B05E1D428
:10450000A06DFFF78DFBDDE770B50C46B1F90E101D
:10451000002996B015461E460DDAA38913F0800FC8
:104520004FF0000114BF40234FF48063002031603E
:104530002B6016B070BD6A4600F048F80028ECDB2E
:10454000019901F47041A1F50053594259414FF4CA
:104550008063EBE78B89F7B59D0706460C4607D5C8
:1045600004F14703236023610123636103B0F0BDBD
:1045700001AB6A46FFF7C8FF009F05463946304643
:10458000FFF7BCFB48B9B4F90C309A05EED423F020
:10459000030343F00203A381E2E7A389206043F011
:1045A0008003A381019BC4E904075BB1B4F90E1039
:1045B000304600F01DF828B1A38923F0030343F02F
:1045C0000103A381A3891D43A581CFE738B5074D1A
:1045D00000230446084611462B60FFF74AF8431CA7
:1045E00002D12B6803B1236038BD00BF58040020FE
:1045F00038B5064D0023044608462B60FFF749F8FE
:10460000431C02D12B6803B1236038BD580400203D
:1046100038B5064D0023044608462B60FEF7AEFF72
:10462000431C02D12B6803B1236038BD580400201D
:10463000F8B500BFF8BC08BC9E467047F8B500BF8F
:08464000F8BC08BC9E4670475F
:1046480031305E330000000031305E34000000007D
:1046580031305E36000000000D0A454545333039DB
:1046680036532050726163746963616C2033202D66
:104678002053544D33324634204D616E64656C626C
:10468800726F742042656E63686D61726B0D000015
:10469800535953434C4B3A20256C7520487A0D0AE0
:1046A800000000000D0A3D3D3D2046505520496D53
:1046B8007061637420416E616C797369733A204646
:1046C8004C4F415420505245434953494F4E203D89
:1046D8003D3D0D00464C4F41540000000D0A3D3D44
:1046E8003D2046505520496D7061637420416E61CC
:1046F8006C797369733A20444F55424C45205052A7
:1047080045434953494F4E203D3D3D0D00000000B3
:10471800444F55424C4500000D0A3D3D3D20465052
:104728005520496D7061637420416E616C797369BD
:10473800733A20434F4D50415249534F4E203D3D0F
:104748003D0D00000D0A3D3D3D205461736B20373F
:104758003A2046697865642D506F696E74204172FD
:104768006974686D6574696320416E616C797369F9
:1047780073203D3D3D0D00000D0A2D2D2D20536366
:10478800616C696E6720466163746F723A202573A5
:104798002028256C7529202D2D2D0D0A00000000DC
:1047A8005265736F6C7574696F6E20257578257501
:1047B8003A20252E3366206D732C206379636C654F
:1047C8007320256C752C20636865636B73756D2089
:1047D800256C752C206F766572666C6F7773202553
:1047E8006C750D0A000000000D0A3D3D3D2046692C
:1047F8007865642D506F696E7420416E616C7973B1
:1048080069732053756D6D617279203D3D3D0D00D2
:104818005363616C696E6720466163746F7220250B
:10482800733A20546F74616C206F766572666C6F92
:104838007773203D20256C750D0A000025733A20FA
:1048480025757825752C206379636C657320256C34
:10485800752C2074696D6520252E366620732C20F2
:104868007468726F75676870757420252E306620BD
:104878007070732C20636865636B73756D20256C8D
:10488800750D0A00434F4D50415249534F4E202554
:10489800757825753A20466C6F6174206368656386
:1048A8006B73756D20256C752C20446F75626C6573
:1048B80020636865636B73756D20256C752C2053B8
:1048C80070656564757020252E3266780D0A0000C3
:1048D8000D0A3D3D3D205461736B20383A20506FDE
:1048E800776572204D6561737572656D656E7420AC
:1048F800416E616C79736973202D2053544D3332A6
:104908004634203D3D3D0D00463420506F7765729A
:1049180020416E616C797369733A0D002D204361F3
:104928006C63756C6174696F6E206379636C657311
:104938003A20256C750D0A002D2043616C63756C57
:104948006174696F6E2074696D653A20252E36662C
:10495800207365636F6E64730D0A00002D20457324
:1049680074696D6174656420706F7765723A20258B
:104978002E3266206D570D0A000000002D20456E6E
:104988006572677920636F6E73756D7074696F6E89
:104998003A20252E3666206D4A0D0A002D204368E0
:1049A80065636B73756D3A20256C750D0A00000000
:1049B8000D0A3D3D3D20463420506F7765722045F5
:1049C80078747261706F6C6174696F6E203D3D3DE3
:1049D8000D0000005265736F6C7574696F6E20531B
:1049E80063616C696E6720283130302069746572A4
:1049F8006174696F6E73293A0D00000025733A20BF
:104A0800252E3166206D572C20252E3366206D4AC1
:104A18000D0A00000D0A497465726174696F6E2091
:104A28005363616C696E67202831323878313238C7
:104A3800293A0D00256C7520697465723A20252E77
:104A48003166206D572C20252E3366206D4A0D0ABD
:104A58000000000031323878313238003136307891
:104A680031363000313932783139320032323478E7
:104A78003232340032353678323536008000A000C4
:104A8800C000E000000100008000A000C000E000BD
:104A980000010000E80300001027000040420F005A
:104AA8008000A000C000E0000001000064000000D9
:104AB800FA000000F4010000EE020000E803000024
:104AC80000000000000000000102030406070809B6
:104AD800232D302B2000686C4C00656667454647DF
:104AE8000030313233343536373839414243444562
:104AF80046003031323334353637383961626364D1
:044B080065660000DE
:084B0C0004B7FF7F0100000067
:044B1400F50100089F
:044B1800D1010008BF
:104B1C004846000850460008584600085C4A000801
:104B2C00644A00086C4A0008744A00087C4A000871
:104B3C0010000000010000000024F4000000000040
:104B4C00030000001C0300203C00002000000000BB
:104B5C001C03002084030020EC0300200000000054
:104B6C000000000000000000000000000000000039
:104B7C000000000000000000000000000000000029
:104B8C000000000000000000000000000000000019
:084B9C00000000000000000011
:04000005080036C5F4
:00000001FF
