:020000040800F2
:100000000000022035270008E51B0008E71B000858
:10001000E91B0008EB1B0008ED1B000800000000B6
:10002000000000000000000000000000EF1B0008BE
:10003000F11B000800000000F31B0008F51B00087E
:1000400085270008852700088527000885270008E0
:1000500085270008852700088527000885270008D0
:1000600085270008852700088527000885270008C0
:1000700085270008852700088527000885270008B0
:1000800085270008852700088527000885270008A0
:100090008527000885270008852700088527000890
:1000A0008527000885270008852700088527000880
:1000B0008527000885270008852700088527000870
:1000C0008527000885270008852700088527000860
:1000D0008527000885270008852700088527000850
:1000E0008527000885270008852700088527000840
:1000F0008527000885270008852700088527000830
:10010000852700088527000885270008852700081F
:10011000852700088527000885270008852700080F
:1001200085270008852700088527000885270008FF
:100130008527000800000000000000008527000857
:1001400085270008852700088527000885270008DF
:1001500085270008852700088527000885270008CF
:1001600085270008852700088527000885270008BF
:100170008527000885270008852700080000000063
:1001800000000000852700080000000000000000BB
:1001900085270008000000000000000085270008F7
:1001A000000000000000000000000000852700089B
:1001B000852700088527000885270008852700086F
:0401C0008527000887
:1001D00010B5054C237833B9044B13B10448AFF381
:1001E00000800123237010BD680000200000000083
:1001F0009436000808B5034B1BB103490348AFF31D
:10020000008008BD000000006C000020943600084B
:1002100001F0FF01102A2BDB10F0070F08D010F8B7
:10022000013B013A8B422DD010F0070F42B3F6D1BB
:10023000F0B441EA012141EA014122F007047FF0D4
:1002400000070023F0E80256083C85EA010586EA2B
:10025000010685FA47F5A3FA87F586FA47F6A5FA67
:1002600087F68EB9EED1F0BC01F0FF0102F0070273
:1002700032B110F8013B013A83EA010313B1F8D11E
:100280000020704701387047002D06BF35460338FF
:10029000073815F0010F07D1013015F4807F02BF38
:1002A000013015F4C03F0130F0BC0138704700BF89
:1002B00081F0004102E000BF83F0004330B54FEA17
:1002C00041044FEA430594EA050F08BF90EA020F84
:1002D0001FBF54EA000C55EA020C7FEA645C7FEA17
:1002E000655C00F0E2804FEA5454D4EB5555B8BF3A
:1002F0006D420CDD2C4480EA020281EA030382EAAB
:10030000000083EA010180EA020281EA0303362D3C
:1003100088BF30BD11F0004F4FEA01314FF4801C0F
:100320004CEA113102D0404261EB410113F0004F21
:100330004FEA03334CEA133302D0524263EB4303D8
:1003400094EA050F00F0A780A4F10104D5F1200E76
:100350000DDB02FA0EFC22FA05F2801841F10001D1
:1003600003FA0EF2801843FA05F359410EE0A5F1A5
:1003700020050EF1200E012A03FA0EFC28BF4CF0D6
:10038000020C43FA05F3C01851EBE37101F000458C
:1003900007D54FF0000EDCF1000C7EEB00006EEB99
:1003A0000101B1F5801F1BD3B1F5001F0CD3490823
:1003B0005FEA30004FEA3C0C04F101044FEA44527A
:1003C00012F5800F80F09A80BCF1004F08BF5FEA01
:1003D000500C50F1000041EB045141EA050130BDE1
:1003E0005FEA4C0C404141EB0101013C28BFB1F5F3
:1003F000801FE9D291F0000F04BF01460020B1FA3E
:1004000081F308BF2033A3F10B03B3F120020CDA10
:100410000C3208DD02F1140CC2F10C0201FA0CF0EE
:1004200021FA02F10CE002F11402D8BFC2F1200C53
:1004300001FA02F120FA0CFCDCBF41EA0C01904009
:10044000E41AA2BF01EB0451294330BD6FEA040452
:100450001F3C1CDA0C340EDC04F11404C4F120023D
:1004600020FA04F001FA02F340EA030021FA04F34F
:1004700045EA030130BDC4F10C04C4F1200220FAA6
:1004800002F001FA04F340EA0300294630BD21FAE4
:1004900004F0294630BD94F0000F83F4801306BFAA
:1004A00081F480110134013D4EE77FEA645C18BF9E
:1004B0007FEA655C29D094EA050F08BF90EA020F35
:1004C00005D054EA000C04BF1946104630BD91EA2D
:1004D000030F1EBF0021002030BD5FEA545C05D130
:1004E0004000494128BF41F0004130BD14F580046F
:1004F0003CBF01F5801130BD01F0004545F0FE41E3
:1005000041F470014FF0000030BD7FEA645C1ABF17
:10051000194610467FEA655C1CBF0B46024650EA4E
:10052000013406BF52EA033591EA030F41F400217A
:1005300030BD00BF90F0000F04BF0021704730B500
:100540004FF4806404F132044FF000054FF00001D5
:1005500050E700BF90F0000F04BF0021704730B596
:100560004FF4806404F1320410F0004548BF40426B
:100570004FF000013EE700BF42004FEAE2014FEAC0
:1005800031014FEA02701FBF12F07F4393F07F4F9B
:1005900081F06051704732F07F4208BF704793F09E
:1005A0007F4F04BF41F40021704730B54FF46074B1
:1005B00001F0004521F000411CE700BF50EA0102B4
:1005C00008BF704730B54FF000050AE050EA01025D
:1005D00008BF704730B511F0004502D5404261EBCD
:1005E00041014FF4806404F132045FEA915C3FF40E
:1005F000D8AE4FF003025FEADC0C18BF03325FEAAB
:10060000DC0C18BF033202EBDC02C2F1200300FA5B
:1006100003FC20FA02F001FA03FE40EA0E0021FA80
:1006200002F11444BDE600BF70B54FF0FF0C4CF46E
:10063000E06C1CEA11541DBF1CEA135594EA0C0F20
:1006400095EA0C0F00F0DEF82C4481EA030621EA5B
:100650004C5123EA4C5350EA013518BF52EA033596
:1006600041F4801143F4801338D0A0FB02CE4FF048
:100670000005E1FB02E506F00042E0FB03E54FF078
:100680000006E1FB03569CF0000F18BF4EF0010E70
:10069000A4F1FF04B6F5007F64F5407404D25FEA6C
:1006A0004E0E6D4146EB060642EAC62141EA55511F
:1006B0004FEAC52040EA5E504FEACE2EB4F1FD0C61
:1006C00088BFBCF5E06F1ED8BEF1004F08BF5FEADF
:1006D000500E50F1000041EB045170BD06F0004691
:1006E00046EA010140EA020081EA0301B4EB5C043E
:1006F000C2BFD4EB0C0541EA045170BD41F4801136
:100700004FF0000E013C00F3AB8014F1360FDEBF5A
:10071000002001F0004170BDC4F10004203C35DA36
:100720000C341BDC04F11404C4F1200500FA05F3B9
:1007300020FA04F001FA05F240EA020001F000425A
:1007400021F0004110EBD37021FA04F642EB0601D0
:100750005EEA430E08BF20EAD37070BDC4F10C04FA
:10076000C4F1200500FA04F320FA05F001FA04F2BE
:1007700040EA020001F0004110EBD37041F10001AA
:100780005EEA430E08BF20EAD37070BDC4F12005B5
:1007900000FA05F24EEA020E20FA04F301FA05F21D
:1007A00043EA020321FA04F001F0004121FA04F2C5
:1007B00020EA020000EBD3705EEA430E08BF20EA95
:1007C000D37070BD94F0000F0FD101F000464000CF
:1007D00041EB010111F4801F08BF013CF7D041EA51
:1007E000060195F0000F18BF704703F00046520055
:1007F00043EB030313F4801F08BF013DF7D043EA26
:100800000603704794EA0C0F0CEA135518BF95EADB
:100810000C0F0CD050EA410618BF52EA4306D1D162
:1008200081EA030101F000414FF0000070BD50EA81
:10083000410606BF1046194652EA430619D094EA0B
:100840000C0F02D150EA013613D195EA0C0F05D1F5
:1008500052EA03361CBF104619460AD181EA030149
:1008600001F0004141F0FE4141F470014FF0000001
:1008700070BD41F0FE4141F4780170BD70B54FF09C
:10088000FF0C4CF4E06C1CEA11541DBF1CEA13551C
:1008900094EA0C0F95EA0C0F00F0A7F8A4EB0504FE
:1008A00081EA030E52EA03354FEA013100F08880F5
:1008B0004FEA03334FF0805545EA131343EA1263BE
:1008C0004FEA022245EA111545EA10654FEA002673
:1008D0000EF000419D4208BF964244F1FD0404F52C
:1008E000407402D25B084FEA3202B61A65EB030588
:1008F0005B084FEA32024FF480104FF4002CB6EB45
:10090000020E75EB030E22BFB61A754640EA0C00C4
:100910005B084FEA3202B6EB020E75EB030E22BF04
:10092000B61A754640EA5C005B084FEA3202B6EB45
:10093000020E75EB030E22BFB61A754640EA9C0004
:100940005B084FEA3202B6EB020E75EB030E22BFD4
:10095000B61A754640EADC0055EA060E18D04FEA92
:10096000051545EA16754FEA06164FEAC30343EA32
:1009700052734FEAC2025FEA1C1CC0D111F4801FFF
:100980000BD141EA00014FF000004FF0004CB6E7F8
:1009900011F4801F04BF01430020B4F1FD0C88BF97
:1009A000BCF5E06F3FF6AFAEB5EB030C04BFB6EBA2
:1009B000020C5FEA500C50F1000041EB045170BD95
:1009C0000EF0004E4EEA113114EB5C04C2BFD4EBC2
:1009D0000C0541EA045170BD41F480114FF0000E46
:1009E000013C90E645EA060E8DE60CEA135594EAC2
:1009F0000C0F08BF95EA0C0F3FF43BAF94EA0C0FC5
:100A00000AD150EA01347FF434AF95EA0C0F7FF439
:100A100025AF104619462CE795EA0C0F06D152EA8D
:100A200003353FF4FDAE1046194622E750EA410671
:100A300018BF52EA43067FF4C5AE50EA41047FF482
:100A40000DAF52EA43057FF4EBAE12E74FF0FF3CE7
:100A500006E000BF4FF0010C02E000BF4FF0010CB8
:100A60004DF804CD4FEA410C7FEA6C5C4FEA430C31
:100A700018BF7FEA6C5C1BD001B050EA410C0CBF80
:100A800052EA430C91EA030F02BF90EA020F0020E2
:100A9000704710F1000F91EA030F58BF994208BF49
:100AA00090422CBFD8176FEAE37040F00100704706
:100AB0004FEA410C7FEA6C5C02D150EA013C07D15D
:100AC0004FEA430C7FEA6C5CD6D152EA033CD3D0A8
:100AD0005DF8040B704700BF8446104662468C46A2
:100AE0001946634600E000BF01B5FFF7B7FF0028D5
:100AF00048BF10F1000F01BD4DF808EDFFF7F4FFFE
:100B00000CBF012000205DF808FB00BF4DF808ED88
:100B1000FFF7EAFF34BF012000205DF808FB00BFAB
:100B20004DF808EDFFF7E0FF94BF012000205DF8CD
:100B300008FB00BF4DF808EDFFF7CEFF94BF012082
:100B400000205DF808FB00BF4DF808EDFFF7C4FF7B
:100B500034BF012000205DF808FB00BF80F000409A
:100B600002E000BF81F0004142001FBF5FEA410385
:100B700092EA030F7FEA226C7FEA236C6AD04FEA85
:100B80001262D2EB1363C1BFD218414048404140CA
:100B9000B8BF5B42192B88BF704710F0004F40F47C
:100BA000000020F07F4018BF404211F0004F41F498
:100BB000000121F07F4118BF494292EA030F3FD064
:100BC000A2F1010241FA03FC10EB0C00C3F1200377
:100BD00001FA03F100F0004302D5494260EB400006
:100BE000B0F5000F13D3B0F1807F06D340084FEA71
:100BF000310102F10102FE2A51D2B1F1004F40EB66
:100C0000C25008BF20F0010040EA030070474900CD
:100C100040EB0000013A28BFB0F5000FEDD2B0FA6A
:100C200080FCACF1080CB2EB0C0200FA0CF0AABF8D
:100C300000EBC25052421843BCBFD040184370472B
:100C400092F0000F81F4000106BF80F40000013231
:100C5000013BB5E74FEA41037FEA226C18BF7FEA08
:100C6000236C21D092EA030F04D092F0000F08BF4A
:100C70000846704790EA010F1CBF0020704712F031
:100C80007F4F04D1400028BF40F00040704712F170
:100C900000723CBF00F50000704700F0004343F0D5
:100CA000FE4040F4000070477FEA226216BF08460B
:100CB0007FEA23630146420206BF5FEA412390EACE
:100CC000010F40F4800070474FF0000304E000BFC4
:100CD00010F0004348BF40425FEA000C08BF704775
:100CE00043F0964301464FF000001CE050EA010239
:100CF00008BF70474FF000030AE000BF50EA01024E
:100D000008BF704711F0004302D5404261EB41013A
:100D10005FEA010C02BF84460146002043F0B6435F
:100D200008BFA3F18053A3F50003BCFA8CF2083A84
:100D3000A3EBC25310DB01FA02FC634400FA02FC8D
:100D4000C2F12002BCF1004F20FA02F243EB020094
:100D500008BF20F00100704702F1200201FA02FCF6
:100D6000C2F1200250EA4C0021FA02F243EB0200E9
:100D700008BF20EADC7070474FF0FF0C1CEAD0522D
:100D80001EBF1CEAD15392EA0C0F93EA0C0F6FD0EE
:100D90001A4480EA010C400218BF5FEA41211ED0CC
:100DA0004FF0006343EA501043EA5111A0FB0131B8
:100DB0000CF00040B1F5000F3EBF490041EAD3718D
:100DC0005B0040EA010062F17F02FD2A1DD8B3F109
:100DD000004F40EBC25008BF20F00100704790F078
:100DE000000F0CF0004C08BF49024CEA502040EACA
:100DF00051207F3AC2BFD2F1FF0340EAC250704790
:100E000040F400004FF00003013A5DDC12F1190FCD
:100E1000DCBF00F000407047C2F10002410021FA3F
:100E200002F1C2F1200200FA02FC5FEA310040F157
:100E3000000053EA4C0308BF20EADC70704792F0D0
:100E4000000F00F0004C02BF400010F4000F013A08
:100E5000F9D040EA0C0093F0000F01F0004C02BF03
:100E6000490011F4000F013BF9D041EA0C018FE772
:100E70000CEAD15392EA0C0F18BF93EA0C0F0AD078
:100E800030F0004C18BF31F0004CD8D180EA01009E
:100E900000F00040704790F0000F17BF90F0004F37
:100EA000084691F0000F91F0004F14D092EA0C0F19
:100EB00001D142020FD193EA0C0F03D14B0218BFAC
:100EC000084608D180EA010000F0004040F0FE40F2
:100ED00040F40000704740F0FE4040F4400070478E
:100EE0004FF0FF0C1CEAD0521EBF1CEAD15392EA0D
:100EF0000C0F93EA0C0F69D0A2EB030280EA010CFD
:100F000049024FEA402037D04FF0805343EA111195
:100F100043EA10130CF000408B4238BF5B0042F1F3
:100F20007D024FF4000C8B4224BF5B1A40EA0C0098
:100F3000B3EB510F24BFA3EB510340EA5C00B3EBCA
:100F4000910F24BFA3EB910340EA9C00B3EBD10FB8
:100F500024BFA3EBD10340EADC001B0118BF5FEA0A
:100F60001C1CE0D1FD2A3FF650AF8B4240EBC25033
:100F700008BF20F0010070470CF0004C4CEA5020F4
:100F80007F32C2BFD2F1FF0340EAC250704740F443
:100F900000004FF00003013A37E792F0000F00F035
:100FA000004C02BF400010F4000F013AF9D040EAB3
:100FB0000C0093F0000F01F0004C02BF490011F447
:100FC000000F013BF9D041EA0C0195E70CEAD1533F
:100FD00092EA0C0F08D142027FF47DAF93EA0C0F26
:100FE0007FF470AF084676E793EA0C0F04D14B020A
:100FF0003FF44CAF08466EE730F0004C18BF31F0BC
:10100000004CCAD130F000427FF45CAF31F00043B5
:101010007FF43CAF5FE700BF4FF0FF3C06E000BF4E
:101020004FF0010C02E000BF4FF0010C4DF804CD71
:101030004FEA40024FEA41037FEA226C18BF7FEA81
:10104000236C11D001B052EA530C18BF90EA010F83
:1010500058BFB2EB030088BFC81738BF6FEAE17012
:1010600018BF40F0010070477FEA226C02D15FEAAE
:10107000402C05D17FEA236CE4D15FEA412CE1D01A
:101080005DF8040B704700BF844608466146FFE7E1
:101090000FB5FFF7C9FF002848BF10F1000F0FBDC3
:1010A0004DF808EDFFF7F4FF0CBF012000205DF8BC
:1010B00008FB00BF4DF808EDFFF7EAFF34BF012041
:1010C00000205DF808FB00BF4DF808EDFFF7E0FFDA
:1010D00094BF012000205DF808FB00BF4DF808ED2B
:1010E000FFF7D2FF94BF012000205DF808FB00BF8E
:1010F0004DF808EDFFF7C8FF34BF012000205DF870
:1011000008FB00BF53B94AB9002908BF00281CBF1B
:101110004FF0FF314FF0FF3000F088B9ADF1080C0F
:101120006DE904CE00F006F8DDF804E0DDE9022305
:1011300004B070472DE9F047089D8E460446884666
:10114000002B4AD18A42174662D9B2FA82F64EB1D2
:10115000C6F1200301FA06F820FA03F3B74043EA88
:101160000808B4404FEA174E1FFA87FCB8FBFEF19F
:10117000230C0EFB118843EA084301FB0CF29A4250
:1011800009D9FB1801F1FF3080F0EA809A4240F261
:10119000E78002393B449A1AA3B2B2FBFEF00EFB81
:1011A000102243EA024300FB0CFC9C4509D9FB18C2
:1011B00000F1FF3280F0D6809C4540F2D3803B4462
:1011C000023840EA0140A3EB0C0300211DB1F340BB
:1011D0000022C5E90032BDE8F0878B4205D90DB188
:1011E000C5E9000100210846F5E7B3FA83F10029BB
:1011F00046D1734502D3824200F20581841A6EEB18
:10120000030201209046002DE5D0C5E90048E2E741
:10121000002A00F09080B2FA82F6002E40F0A480FE
:101220008A1A030C4FEA174E80B2BCB20121B2FBFE
:10123000FEFC0EFB1C2243EA024304FB0CF29A4222
:1012400007D9FB180CF1FF3802D29A4200F2E08075
:10125000C4469B1AB3FBFEF20EFB123340EA034373
:1012600002FB04F49C4207D9FB1802F1FF3002D2C2
:101270009C4200F2CA8002461B1B42EA0C40A5E7D2
:10128000C1F120068B4022FA06F71F430EFA01F443
:1012900020FA06F32EFA06FE4FEA1749234300FA16
:1012A00001F81FFA87FCBEFBF9F01C0C09FB10EEDD
:1012B00044EA0E4400FB0CFEA64502FA01F209D9ED
:1012C0003C1900F1FF3A80F09C80A64540F29980DD
:1012D00002383C44A4EB0E041FFA83FEB4FBF9F37E
:1012E00009FB13444EEA044403FB0CFCA44508D953
:1012F0003C1903F1FF3E80F08280A4457FD9023B78
:101300003C4443EA0040A4EB0C04A0FB02EC64451F
:101310007346E14662D35FD05DB1B8EB030264EB84
:10132000090404FA06F622FA01F31E43CC40C5E98B
:10133000006400214FE7B1FBF2FC010C41EA0E41D1
:1013400080B240EA01423B4638463C46B846BE467B
:101350002026B1FBF7F1A2EB080241EA0C4166E757
:10136000014618E710462CE7C6F120022EFA02F3D8
:10137000B740B14020FA02F24FEA174E0A43B3FBDE
:10138000FEF8BCB20EFB1833110C41EA034108FB16
:1013900004F9B04089454FEA104380B23ED979182C
:1013A00008F1FF3C01D289451FD8A1EB0901B1FB2F
:1013B000FEF909FB04F80EFB191192B242EA014250
:1013C000424529D2BA1809F1FF31C4D24245C2D2EE
:1013D000A9F102013A44BEE7F0459DD2BEEB0203FB
:1013E0006CEB070C0138E14696E7A7EB0909494485
:1013F000A8F1020CB1FBFEF909FB04F8DBE7734628
:101400007FE7504666E70846FDE63B44023A33E78D
:10141000ACF1020C3B441CE749469CE7A1EB0901F7
:10142000C446B1FBFEF909FB04F8C4E7704700BFEE
:101430002DE9F04F87B0019088469146002425465B
:1014400052E031462846FFF78DFB4146FFF78CFB03
:10145000054621462046FFF787FB5946FFF78CFCDF
:101460005146FFF781FB834601372C464F4513D287
:1014700021462046FFF780FC054659465846FFF7AF
:101480007BFC064601462846FFF76EFB4FF0814184
:10149000FFF71AFE0028D4D1029E039D3D4406F1B9
:1014A000010B1FFA8BF6019B9E4218D23046FFF7C4
:1014B0000BFC04460198FFF707FC01462046FFF7A6
:1014C0000FFD1849FFF758FC1749FFF74BFB804603
:1014D00000274FF0000B5C4602960395C6E7049C7C
:1014E000DDF81480631C9CB2444517D22046FFF7F8
:1014F000EBFB06464046FFF7E7FB01463046FFF7A9
:10150000EFFC0146FFF730FB4FF07E51FFF72AFB5F
:10151000824600260494CDF81480C4E7284607B01C
:10152000BDE8F08F00006040000020402DE9F04F42
:101530008DB007900F4693460026B0466BE03246CA
:101540003B46DDE90001FEF7B7FEDDE90223FEF7C9
:10155000B5FE06460F464A46534648465146FEF7F4
:10156000ADFE22462B46FFF75FF8DDE90423FEF7C8
:10157000A5FE04460D4608F10108B146BA46D84515
:101580001BD24A46534648465146FFF74DF8CDE92F
:10159000000122462B4620462946FFF745F806461D
:1015A0000F4602460B46DDE90001FEF787FE0022EA
:1015B0002B4BFFF7B5FA0028C1D1089F099E46447E
:1015C0007B1C9FB2079B9F4220D23846FEF7B2FF9A
:1015D00004460D460798FEF7ADFF02460B4620462F
:1015E0002946FFF74BF900221E4BFFF71DF800229A
:1015F0001D4BFEF761FECDE902014FF0000800240B
:101600000025A146AA4608970996B8E7B0460A9E63
:101610000B9F731C9EB2BE421ED23046FEF78AFF5D
:1016200004460D463846FEF785FF02460B46204627
:101630002946FFF723F902460B46FEF73FFE00223C
:101640000A4BFEF739FECDE904014FF000090A9676
:1016500046460B974F46B5E740460DB0BDE8F08FC4
:101660000000104000000C40000004400000F03F6B
:10167000074AD2F8FC3043F08073C2F8FC30054BC7
:1016800000225A601A6842F001021A60704700BFD7
:1016900000ED00E0001000E02DE9F04389B00546C0
:1016A0000E4614461F461046FEF744FF8046894604
:1016B0000D4B1868FEF73EFF02460B464046494672
:1016C000FFF7DCF80697DDE91023CDE90423CDE927
:1016D0000201009433462A461299044801F016F993
:1016E00009B0BDE8F08300BF08000020AC36000858
:1016F0002DE9004884B0DDE906BCCDE902BC0093C9
:1017000013460A460146034801F000F904B0BDE85B
:10171000008800BFF436000830B589B00024039477
:1017200004940594069407940094184B1A6B42F0A5
:1017300004021A631A6B02F004020092009A0194E8
:101740001A6B42F080021A631A6B02F08002019257
:10175000019A02941A6B42F002021A631B6B03F0A7
:1017600002030293029B0A4D2246FF21284600F005
:10177000BBFEFF230393012304930594069403A95E
:10178000284600F0BDFD09B030BD00BF0038024062
:10179000000402404FF06043D3F8803E13F0010F85
:1017A00005D0094BD3F8FC3013F0807F01D170478E
:1017B00000BF4FF060431B68002BF9D0C3B24FF05D
:1017C00060421370F3E700BF00ED00E072B6FEE781
:1017D00000B595B03422002107A801F0DFF90023FD
:1017E000029303930493059306930093214A116C8B
:1017F00041F080511164126C02F080520092009A04
:1018000001931D4A136823F4404343F4804313605B
:10181000136803F440430193019B012307934FF4A2
:101820008033089302230D934FF480020E920F220F
:101830000F929022109211931293139307A800F025
:101840003DFB98B90F2302930223039300230493D3
:101850004FF4A05305934FF480530693032102A83D
:1018600000F0E8F920B915B05DF804FBFFF7AEFF12
:10187000FFF7ACFF00380240007000402DE9F04750
:1018800086B000F0C7FEFFF7A3FFFFF745FFFFF7A5
:10189000EFFEB54801F0A2F8B44B1968B44801F066
:1018A00035F854E1B34B33F81470B34B33F814A04C
:1018B000B24B1F60B24BC3F800A0B24D00236B6067
:1018C000D5F80480642251463846FFF7B1FD06463C
:1018D0006D68A5EB08052846FEF72CFE8046894674
:1018E000A24B1868FEF726FE02460B4640464946C4
:1018F000FEF7C4FFCDE904013846FEF71BFE804623
:1019000089465046FEF716FE02460B4640464946BB
:10191000FEF78AFEDDE90423FEF7B0FF8046894624
:10192000994B1D60994B1E600022994BDDE9040123
:10193000FEF77AFE974BC3E90001974BC3E9008994
:10194000964B43F82460964B03EBC403C3E90001B4
:10195000944B43F82450944B03EBC403C3E9008930
:10196000924B0293CDE9008933462A4651463846C8
:10197000FFF792FE0134042C94D98D4B01221A609A
:101980008C4801F02BF8002468E07A4B33F814708F
:10199000794B33F814A0794B1F60794BC3F800A042
:1019A000784D00236B60D5F8048064225146384698
:1019B000FFF7BCFD06466D68A5EB08052846FEF757
:1019C000B9FD80468946694B1868FEF7B3FD0246AB
:1019D0000B4640464946FEF751FFCDE90401384623
:1019E000FEF7A8FD804689465046FEF7A3FD024655
:1019F0000B4640464946FEF717FEDDE90423FEF795
:101A00003DFF80468946604B1D60604B1E60002292
:101A10005F4BDDE90401FEF707FE5E4BC3E9000101
:101A20005D4BC3E90089644B43F82460634B03EBCF
:101A3000C403C3E90001624B43F82450614B03EB3C
:101A4000C403C3E90089604B0293CDE900893346A2
:101A50002A4651463846FFF71FFE0134042C94D91C
:101A60005A4800F0BBFF002416E00020002142E0AD
:101A700000200021564B03EBC403C3E90001474B90
:101A800053F824204C4B53F82430CDE90001314663
:101A90002846FFF72DFE0134042C49D8354B33F886
:101AA0001450354B33F81460434B53F82430002B5B
:101AB000DBD03A4B53F82400FEF73CFD80468946C4
:101AC0003D4F57F82400FEF735FD02460B464046D1
:101AD0004946FEF7F1FB8046894657F82400FEF799
:101AE00029FD02460B4640464946FEF7C7FE002246
:101AF000384BFEF799FD384B03EBC403C3E90001F3
:101B0000274901EBC40100220023D1E90001FEF7BF
:101B1000F3FF0028ACD1294B03EBC403D3E9000148
:101B20001F4B03EBC403D3E90023FEF7A7FEA1E795
:101B30002A4C01220221204600F0D6FC4FF4FA6024
:101B400000F094FD00220321204600F0CDFC01228C
:101B50001146224800F0C8FC0024154B1C602048A8
:101B600000F03CFF07E700BF4037000808000020F6
:101B70007C3700083C38000830380008F4010020A9
:101B8000F0010020001000E0EC010020E80100203E
:101B900000408F40E0010020D8010020C00100205B
:101BA000980100208001002058010020C037000863
:101BB00084000020C83700084001002018010020E0
:101BC00000010020D8000020FC370008043800087D
:101BD0008800002000005940B000002000040240AE
:101BE00090370008FEE7FEE7FEE7FEE7FEE77047F6
:101BF0007047704708B500F027FD08BD82B000218E
:101C000000910B4B5A6C42F480425A645A6C02F4B5
:101C100080420092009A01911A6C42F080521A643C
:101C20001B6C03F080530193019B02B0704700BF0F
:101C300000380240002800F09B8070B50D46044635
:101C40004F4B1B6803F00F038B4208D2CBB24C4AB8
:101C50001370136803F00F038B4240F08B802368EE
:101C600013F0020F17D013F0040F04D0454A936805
:101C700043F4E0539360236813F0080F04D0414A03
:101C8000936843F4604393603E4A936823F0F00303
:101C9000A1680B439360236813F0010F32D063688F
:101CA000012B21D09A1E012A25D9364A126812F03A
:101CB000020F61D033498A6822F0030213438B601C
:101CC00000F0CEFC06462F4B9B6803F00C036268C5
:101CD000B3EB820F16D000F0C3FC801B41F28833B7
:101CE0009842F0D9032042E0264A126812F4003FDD
:101CF000E0D101203BE0234A126812F0007FD9D1E5
:101D0000012034E01E4B1B6803F00F03AB4207D9E0
:101D1000EAB21B4B1A701B6803F00F03AB422DD1C4
:101D2000236813F0040F06D0164A936823F4E05397
:101D3000E1680B439360236813F0080F07D0114A42
:101D4000936823F46043216943EAC103936000F080
:101D500021F80C4B9B68C3F303130B4AD35CD840A8
:101D60000A4B18600A4B186800F02EFC002070BD6A
:101D7000012070470120FAE70120F8E70120F6E78B
:101D8000003C0240003802404838000808000020AB
:101D90000400002008B5464B9B6803F00C03082B99
:101DA00005D00C2B43D0042B7FD1424819E0404B87
:101DB0005A6802F03F025B6813F4800F12D03C4B6C
:101DC0005968C1F388113B480023A1FB0001FFF7CC
:101DD00099F9374B5B68C3F3014301335B00B0FBF8
:101DE000F3F008BD324B5868C0F388104FEA401C2E
:101DF000BCEB000C6EEB0E0E4FEA8E1343EA9C63B5
:101E00004FEA8C11B1EB0C0163EB0E03DB0043EAEC
:101E10005173C90011EB000C43F100039902002338
:101E20004FEA8C2041EA9C51FFF76CF9D1E7204B37
:101E30005A6802F03F025B6813F4800F10D01C4B0D
:101E40005968C1F388111B480023A1FB0001FFF76B
:101E500059F9174B5B68C3F30273B0FBF3F0C0E7AB
:101E6000134B5868C0F388104FEA401CBCEB000CC1
:101E70006EEB0E0E4FEA8E1343EA9C634FEA8C1111
:101E8000B1EB0C0163EB0E03DB0043EA5173C900B5
:101E900011EB000C43F10003990200234FEA8C2060
:101EA00041EA9C51FFF72EF9D3E7034899E700BFB9
:101EB0000038024040787D010024F400002800F042
:101EC000018270B582B00446036813F0010F41D05F
:101ED000994B9B6803F00C03042B32D0964B9B6804
:101EE00003F00C03082B27D0934B9B6803F00C03E3
:101EF0000C2B59D06368B3F5803F5BD0B3F5A02FAE
:101F00005ED08D4B1A6822F480321A601A6822F46F
:101F100080221A606368002B5CD000F0A1FB0546AC
:101F2000854B1B6813F4003F14D100F099FB401B54
:101F30006428F5D90320CCE17F4B5B6813F4800F54
:101F4000D2D07D4B1B6813F4003F03D06368002B95
:101F500000F0BA81236813F0020F60D0764B9B68C3
:101F600013F00C0F4AD0744B9B6803F00C03082B42
:101F70003FD0714B9B6803F00C030C2B69D0E368D6
:101F8000002B75D06D4B01221A6000F069FB0546ED
:101F9000694B1B6813F0020F61D100F061FB401B1D
:101FA0000228F5D9032094E1634B5B6813F4800F9A
:101FB000A0D0C6E7604A136843F480331360A9E7F2
:101FC0005D4B1A6842F480221A601A6842F480322B
:101FD0001A609FE700F044FB0546574B1B6813F45B
:101FE000003FB7D000F03CFB401B6428F5D903202C
:101FF0006FE1514B5B6813F4800FBAD14E4B1B68F5
:1020000013F0020F03D0E368012B40F05F814A4ACE
:10201000136823F0F803216943EAC10313602368BE
:1020200013F0080F49D06369002B33D0434B0122D2
:10203000C3F8802E00F014FB05463F4B5B6F13F096
:10204000020F3AD100F00CFB401B0228F5D9032007
:102050003FE1394B5B6813F4800F90D1CEE7364AED
:10206000136823F0F803216943EAC1031360D6E73C
:10207000324B00221A6000F0F3FA05462E4B1B6823
:1020800013F0020FCBD000F0EBFA401B0228F5D979
:1020900003201EE1294B0022C3F8802E00F0E0FA55
:1020A0000546254B5B6F13F0020F06D000F0D8FAFF
:1020B000401B0228F5D903200BE1236813F0040F1D
:1020C00076D01D4B1B6C13F0805F33D1002301933E
:1020D000194B1A6C42F080521A641B6C03F0805347
:1020E0000193019B0125164B1B6813F4807F29D0B7
:1020F000A368012B3AD0052B3ED00F4B1A6F22F06C
:1021000001021A671A6F22F004021A67A368002BF3
:102110003CD000F0A5FA0646074B1B6F13F0020FE8
:1021200045D100F09DFA801B41F288339842F3D9E3
:102130000320CEE00025D6E70038024000004742E9
:10214000007000406B4A136843F48073136000F022
:1021500087FA0646674B1B6813F4807FC8D100F0EE
:102160007FFA801B0228F5D90320B2E0624A136F80
:1021700043F001031367C9E75F4B1A6F42F0040293
:102180001A671A6F42F001021A67BFE700F068FA97
:102190000646594B1B6F13F0020F08D000F060FA8F
:1021A000801B41F288339842F3D9032091E0EDB9C6
:1021B000A369002B00F08C804F4A926802F00C0259
:1021C000082A54D0022B17D04C4B00221A6600F07C
:1021D00047FA0446484B1B6813F0007F45D000F0D7
:1021E0003FFA001B0228F5D9032072E0424A136C23
:1021F00023F080531364DBE7404B00221A6600F0A3
:102200002FFA05463C4B1B6813F0007F06D000F008
:1022100027FA401B0228F5D903205AE0E369226A15
:102220001343626A43EA8213A26A5208013A43EAFC
:102230000243E26A43EA0263226B43EA02732E4AD4
:1022400053602E4B01221A6600F00AFA04462A4B0C
:102250001B6813F0007F06D100F002FA001B022871
:10226000F5D9032035E0002033E0002031E0012BD8
:1022700031D0214B5B6803F48001E26991422CD19B
:1022800003F03F02216A8A4229D1616A47F6C0728F
:102290001A40B2EB811F24D103F44031A26A5208E4
:1022A000013AB1EB024F1ED103F07062E16AB2EB6A
:1022B000016F1AD103F0E043226BB3EB027F16D11A
:1022C000002006E001207047012002E0012000E02C
:1022D000002002B070BD0120FBE70120F9E70120DA
:1022E000F7E70120F5E70120F3E70120F1E70120FE
:1022F000EFE700BF00700040003802400000474296
:1023000000230F2B00F2E68030B583B068E08568CB
:102310004FEA430E032404FA0EF425EA0405CC68C0
:1023200004FA0EF42C438460446824EA02044A68E8
:10233000C2F300129A40224342605FE0DC08083496
:1023400050F8242003F00705AD004FF00F0E0EFAF1
:1023500005FE22EA0E0E0A69AA4042EA0E0240F881
:1023600024205FE0062200E0002202FA0EF22A4357
:102370000234594D45F82420584A94686FEA0C02FB
:1023800024EA0C05D1F804E01EF4801F01D04CEAC9
:102390000405524CA560E46802EA0405D1F804E0A3
:1023A0001EF4001F01D04CEA04054C4CE560646843
:1023B00002EA0405D1F804E01EF4003F01D04CEA23
:1023C0000405464C6560246822404D6815F4803F42
:1023D00001D04CEA0402414C226001330F2B77D824
:1023E00001229A400C6804EA020C32EA0404F4D197
:1023F0004C6804F00304013C012C88D94A6802F0BF
:102400000302032A09D0C4685D000322AA4024EA1B
:1024100002048A68AA402243C2604A6802F00302AA
:10242000022A8BD004684FEA430E032202FA0EF20E
:1024300024EA02044A6802F0030202FA0EF222437E
:1024400002604A6812F4403FC7D000220192244A39
:10245000546C44F480445464526C02F480420192FF
:10246000019A9C08A51C1C4A52F8255003F0030E43
:102470004FEA8E0E0F2202FA0EF225EA0205194AE1
:1024800090423FF471AF02F58062904216D002F59F
:102490008062904214D002F58062904212D002F520
:1024A0008062904210D002F5806290420ED002F518
:1024B000806290423FF456AF072256E7012254E76C
:1024C000022252E7032250E704224EE705224CE79E
:1024D00003B030BD704700BF00380140003C0140F0
:1024E00000380240000002400AB1816170470904CF
:1024F00081617047002808DB0901C9B200F1604022
:1025000000F5614080F80013704700F00F000901EA
:10251000C9B2014B1954704714ED00E000B500F04A
:102520000700C0F1070CBCF1040F28BF4FF0040CEA
:10253000031D062B0FD9C31E4FF0FF3E0EFA0CF001
:1025400021EA000199400EFA03FE22EA0E0241EA56
:1025500002005DF804FB0023EEE70000074AD368A1
:1025600023F4E0631B041B0C000200F4E06003434F
:1025700043F0BF6343F40033D360704700ED00E0E5
:1025800010B50446054BD868C0F30220FFF7C6FF1C
:1025900001462046FFF7AEFF10BD00BF00ED00E092
:1025A0000138B0F1807F0BD24FF0E0235861054A2B
:1025B000F02182F823100020986107221A617047E9
:1025C0000120704700ED00E010B504460E4B1A786C
:1025D0004FF47A73B3FBF2F30C4A1068B0FBF3F0DC
:1025E000FFF7DEFF68B90F2C01D901200AE00022B5
:1025F00021464FF0FF30FFF7C3FF054B1C60002062
:1026000000E0012010BD00BF0000002008000020F5
:102610000400002008B50B4B1A6842F400721A60DF
:102620001A6842F480621A601A6842F480721A6072
:102630000320FFF793FF0F20FFF7C6FFFFF7DEFA37
:10264000002008BD003C0240034A1168034B1B7880
:102650000B441360704700BFF80100200000002009
:10266000014B1868704700BFF801002038B50446D8
:10267000FFF7F6FF0546B4F1FF3F02D0044B1B788D
:102680001C44FFF7EDFF401BA042FAD338BD00BF4A
:10269000000000207047000010B503460C4A0D49A9
:1026A0000D48006840B10C4800680344521A934238
:1026B00006D8094A136010BD0748084C0460F2E7C9
:1026C00000F0BAFA0C2303604FF0FF30F3E700BFCD
:1026D0000000022000040000FC0100205003002044
:1026E00070B50C461646002506E0AFF30080214683
:1026F00001F8010B01350C46B542F6DB304670BDE2
:1027000070B50C461646002504E014F8010BFFF7DF
:1027100041F80135B542F8DB304670BD4FF0FF306F
:1027200070474FF400534B60002070470120704702
:1027300000207047DFF834D0FFF7ACFF0C480D499C
:102740000D4A002302E0D458C4500433C4188C420C
:10275000F9D30A4A0A4C002301E013600432A24272
:10276000FBD300F06FFAFFF789F8704700000220F2
:1027700000000020680000209C380008680000204D
:102780004C030020FEE70000002310B50446C0E91A
:102790000033C0E90433836081814366C281836171
:1027A000194608225C3000F0F9F90D4B63620D4BBD
:1027B000A3620D4BE3620D4B23630D4B24629C42DD
:1027C00006D003F16802944202D0D0339C4205D176
:1027D00004F15800BDE8104000F058BA10BD00BF29
:1027E000ED2900080F2A0008472A00086B2A000874
:1027F00000020020024A0349034800F069B800BF04
:102800000C0000201D3500081C00002041680C4B06
:10281000994210B5044601D000F080FEA168094B32
:10282000994202D0204600F079FEE168064B9942B9
:1028300004D02046BDE8104000F070BE10BD00BFBF
:102840000002002068020020D002002010B50B4BCF
:102850000B4C0C4A1A60204600220421FFF794FF1B
:1028600004F1680001220921FFF78EFF04F1D00076
:102870000222BDE810401221FFF786BF3803002076
:1028800000020020F5270008014800F000BA00BF50
:1028900041030020014800F0FBB900BF41030020C4
:1028A00010B50446FFF7F0FF236A1BB1BDE81040E6
:1028B000FFF7F0BF044B2362044B1B68002BF5D1DC
:1028C000FFF7C4FFF2E700BF0D280008380300201F
:1028D0002DE9F8430746884614460026D4E90195B9
:1028E000B9F1010905D52468002CF7D13046BDE8BF
:1028F000F883AB89012B07D9B5F90E30013303D02A
:1029000029463846C04706436835E9E70FB407B59E
:10291000064904AB086853F8042B8168019300F062
:10292000D9FA03B05DF804EB04B07047180000203A
:10293000036A70B5846805460E460BB9FFF7B0FF11
:10294000636EDB0705D4A389980502D4A06D00F05F
:102950009EF9A389190702D52369002B35D1214699
:10296000284600F0C5F880B34FF0FF35636EDA07F4
:1029700005D4A3899B0502D4A06D00F089F92846EF
:1029800070BD002B04DAA2699A4217DC0A2915D01F
:1029900023685A1C22601970A36816F8011F013BB6
:1029A000A3600029EDD1002B11DA22460A21284626
:1029B00000F05FF80130D7D00A25D7E72246284635
:1029C00000F057F80130E7D1CEE7013EE4E7236895
:1029D0005A1C22600A221A70EEE70000024B0146E0
:1029E0001868FFF7A5BF00BF1800002010B50C46FF
:1029F000B1F90E1000F0FCF80028ABBF636DA3899D
:102A00001B1823F48053ACBF6365A38110BD2DE96F
:102A1000F0411F468B89DB0505460C46164605D559
:102A2000B1F90E100223002200F0D0F8A389B4F906
:102A30000E1023F48053A38132463B462846BDE85E
:102A4000F04100F0E7B810B50C46B1F90E1000F0F7
:102A5000BDF8431CA38915BF606523F4805343F47C
:102A60008053A38118BFA38110BDB1F90E1000F0EF
:102A70009DB8F8B50E461446054618B1036A0BB961
:102A8000FFF70EFFA369A360A3891A0701D5236985
:102A900043B92146284600F02BF818B14FF0FF3714
:102AA0003846F8BD23682269981A6369F6B28342F2
:102AB000374605DC2146284600F030FD0028EDD1E0
:102AC000A368013BA36023685A1C22601E706269E0
:102AD000431C9A4204D0A389DB07E1D50A2EDFD13B
:102AE0002146284600F01AFD0028D9D0D6E700007C
:102AF00038B5294B054618680C4618B1036A0BB95E
:102B0000FFF7CEFEB4F90C30190722D4DA0607D449
:102B100009222A6043F04003A3814FF0FF3033E0E5
:102B2000580712D5616B41B104F14403994202D0B8
:102B3000284600F0AFF800236363A38923F0240341
:102B4000A3810023636023692360A38943F0080302
:102B5000A38123694BB9A38903F42073B3F5007FE4
:102B600003D02146284600F027FDB4F90C3013F0BD
:102B700001020AD00022A26062695242A261226967
:102B800042B913F08000C5D138BD990758BF6269BA
:102B9000A260F4E70020F7E7180000200244034693
:102BA000934200D1704703F8011BF9E738B5064D91
:102BB0000023044608462B60FFF7B0FD431C02D1FA
:102BC0002B6803B1236038BD3C03002038B5074DA6
:102BD00004460846114600222A601A46FFF7A8FD5F
:102BE000431C02D12B6803B1236038BD3C03002095
:102BF00038B5074D04460846114600222A601A4699
:102C0000FFF76EFD431C02D12B6803B1236038BD72
:102C10003C03002038B5074D044608461146002203
:102C20002A601A46FFF76CFD431C02D12B6803B1E2
:102C3000236038BD3C030020014B1868704700BF7B
:102C40001800002070B50D4D0D4C641BA41000261B
:102C5000A64209D10B4D0C4C00F01CFD641BA410C6
:102C60000026A64205D170BD55F8043B98470136B1
:102C7000EEE755F8043B98470136F2E79438000830
:102C80009438000894380008983800087047704756
:102C90007047000038B50546002941D051F8043C82
:102CA0000C1F002BB8BFE41800F0E0F81D4A1368B1
:102CB00033B9636014602846BDE8384000F0DCB8E2
:102CC000A34208D9206821188B4201BF19685B68AC
:102CD00009182160EDE71A465B680BB1A342FAD9E7
:102CE00011685018A0420BD120680144501883424B
:102CF0001160E0D118685B68536008441060DAE73F
:102D000002D90C232B60D6E7206821188B4204BF20
:102D100019685B68636004BF091821605460CAE7E2
:102D200038BD00BF4803002070B50F4E0C46316817
:102D3000054611B900F09EFC30602146284600F09F
:102D400099FC431C03D14FF0FF34204670BDC41CD6
:102D500024F00304A042F8D0211A284600F08AFC8F
:102D60000130F2D1EFE700BF440300202DE9F84322
:102D7000CD1C25F0030508350C2D38BF0C25002D82
:102D8000064601DBA94204D90C2333600020BDE8CC
:102D9000F883DFF8D48000F069F8D8F800301C46DA
:102DA00044BB29463046FFF7BFFF431C044658D1B9
:102DB000D8F800402746002F43D1002C4BD0236881
:102DC0003946304604EB030900F054FC814542D1FA
:102DD00021686D1A29463046FFF7A6FF01303AD028
:102DE00023682B442360D8F800305A6862BBC8F8C7
:102DF00000700FE02268521B20D40B2A17D96119EA
:102E0000A342256018BF5960636808BFC8F8001066
:102E100062514B60304600F02FF804F10B00231D87
:102E200020F00700C21A1CBF1B1AA350AFE762684C
:102E3000A3420CBFC8F800205A60EBE72346646841
:102E4000AEE73C467F68B6E71A465B68A342FBD113
:102E500000235360DEE70C233360304600F00CF8AB
:102E600094E70560D6E700BF480300200148FFF75C
:102E70000EBF00BF400300200148FFF709BF00BF9D
:102E8000400300209368013B002B10B4936007DAE5
:102E90009469A34201DB0A2902D110BCFFF7E9BD06
:102EA0001368581C10601970084610BC7047F8B5BC
:102EB00006460F461446D518AC4201D1002007E063
:102EC00014F8011B3A463046FFF7DCFF431CF3D1F0
:102ED000F8BD00002DE9F04F0D469DB01446984610
:102EE000064618B1036A0BB9FFF7DAFC6B6ED90717
:102EF00005D4AB899A0502D4A86DFFF7C8FEAB894B
:102F00001B0701D52B699BB929463046FFF7F0FD19
:102F100070B16B6EDC0704D54FF0FF301DB0BDE81B
:102F2000F08FAB899805F7D4A86DFFF7B1FEF3E7F2
:102F30000023099320238DF82930CDF80C8030230D
:102F4000DFF8AC818DF82A304FF0010923469A460C
:102F500013F8012B0AB1252AF9D1BAEB040B0BD0D7
:102F60005B46224629463046FFF7A1FF013000F0BC
:102F7000A780099A5A4409929AF80030002B00F071
:102F80009F8000234FF0FF32CDE905230AF1010AAB
:102F9000049307938DF853301A935446052214F87E
:102FA000011B5348FDF734F9049AD8B9D10644BF40
:102FB00020238DF85330130744BF2B238DF8533053
:102FC0009AF800302A2B15D0079A544600204FF06B
:102FD0000A0C214611F8013B303B092B4BD9B0B10B
:102FE000079214E0A0EB080309FA03F313430493D8
:102FF000A246D2E7039B191D1B680391002BBBBFA0
:103000005B4242F0020207930793B8BF0492237811
:103010002E2B0AD163782A2B32D1039B1A1D1B68F1
:10302000039243EAE37302340593DFF8C8A02178E2
:1030300003225046FDF7ECF838B1049BA0EB0A00E0
:103040004022824013430134049314F8011B2A48A0
:103050008DF828100622FDF7DBF800283FD0274B1B
:103060001BBB039B073323F0070308330393099B20
:103070003B4409936AE70CFB02320C460120A8E7A7
:1030800000230134059319464FF00A0C204610F82E
:10309000012B303A092A03D9002BC6D00591C4E789
:1030A0000CFB012104460123F0E703AB00932A4601
:1030B000134B04A93046AFF300800746781CD6D1E5
:1030C0006B6ED90705D4AB899A0502D4A86DFFF7BA
:1030D000DFFDAB895B063FF51FAF09981EE703AB29
:1030E00000932A46064B04A9304600F079F8E4E73D
:1030F000583800085E3800086238000800000000F8
:10310000AF2E00082DE9F047164698468A680B69ED
:10311000DDF820909342B8BF1346336091F8432006
:1031200007460C460AB1013333602368990642BF53
:10313000336802333360256815F0060506D104F1C3
:10314000190AE36832689B1AAB4226DC94F84330D4
:103150002268003B18BF012392062BD404F14302DE
:1031600041463846C84701301ED02368226903F023
:103170000603042B02BFE5683368ED1AA3680CBF91
:1031800025EAE57500259342C4BF9B1AED18002679
:103190001A34B5421AD1002008E0012352464146B4
:1031A0003846C847013003D14FF0FF30BDE8F08703
:1031B0000135C6E7E1185A1C302081F8430022444B
:1031C00094F8451082F843100233C7E701232246E2
:1031D00041463846C8470130E6D00136D9E70000FD
:1031E0002DE9FF470F7E0C9E782F914680460C46B6
:1031F0009A4601F1430207D8622F0AD8002F00F047
:10320000D180582F00F0B88004F1420684F8427053
:103210003AE0A7F16303152BF6D801A151F823F08A
:10322000793200088D32000809320008093200089E
:1032300009320008093200088D32000809320008FE
:103240000932000809320008093200088B330008EF
:10325000B732000845330008093200080932000877
:10326000AD33000809320008B732000809320008FF
:10327000093200084D33000833681A1D1B6832609C
:1032800004F1420684F8423001239CE03368206850
:10329000191D3160060601D51D6803E04506FBD502
:1032A000B3F90050002D03DA2D236D4284F843302A
:1032B00058480A2311E021683368080653F8045B74
:1032C00002D4490648BFADB26F2F5248336014BFD5
:1032D0000A230823002184F843106668A660002EA4
:1032E00005DB21682E4321F0040121604BD01646F6
:1032F000B5FBF3F103FB1157C75D06F8017D2F46BF
:10330000BB420D46F4D9082B0BD12368DF0708D543
:10331000236961689942DEBF302306F8013C06F15B
:10332000FF36921B2261CDF800A04B4603AA21462E
:103330004046FFF7E7FE01304AD14FF0FF3004B0BE
:10334000BDE8F087236843F02003236032487827E4
:1033500084F84570236831681F0651F8045B02D475
:103360005F0648BFADB23160D90744BF43F02003C8
:1033700023601DB11023ADE72648E9E7236823F059
:1033800020032360F6E71646BDE7336825686169C8
:10339000181D30602E061B6801D5196002E0680612
:1033A000FBD51980002323611646BCE733681A1D3C
:1033B00032601E68626800213046FCF729FF08B1C0
:1033C000801B606063682361002384F84330AAE7B0
:1033D0002369324649464046D0470130ADD0236884
:1033E0009B0713D4E068039B9842B8BF1846A6E732
:1033F0000123324649464046D04701309DD0013531
:10340000E36803995B1AAB42F2DCEBE7002504F1B9
:103410001906F5E7693800087A380008B1F90C2078
:10342000F8B5160705460C4654D44B68002B02DC51
:103430000B6C002B48DDE66A002E45D0002312F409
:1034400080522F68216A2B6030D0626DA3895907A2
:1034500005D56368D21A636B0BB1236CD21A0023B3
:10346000E66A216A2846B047431CA38906D1296829
:103470001D292BD8284ACA40D60727D500226260CA
:10348000D9042269226004D5421C01D12B6803B9FA
:103490006065616B2F60B9B104F14403994202D0B9
:1034A0002846FFF7F7FB002363630DE0012328465E
:1034B000B0470246501CC9D12B68002BC6D01D2B2B
:1034C00001D0162B1DD12F60002021E043F04003D6
:1034D0001BB21AE00F69002FF6D093070E6808BFE1
:1034E0004B690F6018BF0023F61B8B60002EEBDDCD
:1034F000216AD4F828C033463A462846E0470028D7
:1035000007DCB4F90C3043F04003A3814FF0FF30E7
:10351000F8BD0744361AE9E70100402038B50B69C9
:1035200005460C4613B90025284638BD18B1036A74
:103530000BB9FFF7B5F9B4F90C30002BF3D0626E7C
:10354000D00704D4990502D4A06DFFF7A0FB28464C
:103550002146FFF763FF636EDA070546E4D4A389CB
:103560009B05E1D4A06DFFF793FBDDE770B50C463A
:10357000B1F90E10002996B015461E460DDAA38942
:1035800013F0800F4FF0000114BF40234FF480630D
:10359000002031602B6016B070BD6A4600F048F81C
:1035A0000028ECDB019901F47041A1F50053594268
:1035B00059414FF48063EBE78B89F7B59D070646C9
:1035C0000C4607D504F1470323602361012363619F
:1035D00003B0F0BD01AB6A46FFF7C8FF009F054688
:1035E00039463046FFF7C2FB48B9B4F90C309A05AA
:1035F000EED423F0030343F00203A381E2E7A3899F
:10360000206043F08003A381019BC4E904075BB100
:10361000B4F90E10304600F01DF828B1A38923F04C
:10362000030343F00103A381A3891D43A581CFE7D1
:1036300038B5074D00230446084611462B60FFF7B6
:1036400070F8431C02D12B6803B1236038BD00BF62
:103650003C03002038B5064D0023044608462B6085
:10366000FFF764F8431C02D12B6803B1236038BD17
:103670003C03002038B5064D0023044608462B6065
:10368000FFF70AF8431C02D12B6803B1236038BD51
:103690003C030020F8B500BFF8BC08BC9E4670474C
:0C36A000F8B500BFF8BC08BC9E4670479F
:1036AC0025733A2025757825752C206379636C6514
:1036BC007320256C752C2074696D6520252E36665B
:1036CC0020732C207468726F756768707574202570
:1036DC002E3066207070732C20636865636B737575
:1036EC006D20256C750D0A00434F4D5041524953C6
:1036FC004F4E2025757825753A20466C6F617420E5
:10370C00636865636B73756D20256C752C20446F35
:10371C0075626C6520636865636B73756D20256CD1
:10372C00752C205370656564757020252E32667873
:10373C000D0A00000D0A45454533303936532050EB
:10374C00726163746963616C2033202D2053544D76
:10375C0033324634204D616E64656C62726F742036
:10376C0042656E63686D61726B0D000000000000B5
:10377C00535953434C4B3A20256C7520487A0D0A0B
:10378C00000000000D0A3D3D3D2046505520496D7E
:10379C007061637420416E616C797369733A204671
:1037AC004C4F415420505245434953494F4E203DB4
:1037BC003D3D0D00464C4F41540000000D0A3D3D6F
:1037CC003D2046505520496D7061637420416E61F7
:1037DC006C797369733A20444F55424C45205052D2
:1037EC0045434953494F4E203D3D3D0D00000000DF
:1037FC00444F55424C4500000D0A3D3D3D2046507E
:10380C005520496D7061637420416E616C797369E8
:10381C00733A20434F4D50415249534F4E203D3D3A
:10382C003D0D00008000A000C000E0000001000081
:10383C008000A000C000E0000001000000000000BB
:10384C00000000000102030406070809232D302B99
:10385C002000686C4C006566674546470030313285
:10386C0033343536373839414243444546003031DC
:10387C00323334353637383961626364656600003B
:08388C0084C9FF7F0100000068
:04389400F501000832
:04389800D101000852
:10389C0001000000100000000024F40000000000F3
:1038AC0003000000000200201C00002000000000AB
:1038BC000002002068020020D0020020000000005E
:1038CC0000000000000000000000000000000000EC
:1038DC0000000000000000000000000000000000DC
:1038EC0000000000000000000000000000000000CC
:0838FC000000000000000000C4
:040000050800273593
:00000001FF
