:020000040800F2
:1000000000200020AD330008692800086D28000892
:1000100000000000000000000000000000000000E0
:10002000000000000000000000000000712800082F
:100030000000000000000000752800087928000872
:10004000FD330008FD330008FD330008FD330008D0
:10005000FD330008FD330008FD330008FD330008C0
:10006000FD330008FD330008FD330008FD330008B0
:10007000FD330008FD330008FD330008FD330008A0
:10008000FD330008FD33000800000000FD330008C8
:10009000FD330008FD330008FD330008FD33000880
:1000A000FD330008FD330008FD330008FD33000870
:1000B000FD33000800000000FD33000800000000D0
:1000C00010B5064C2378002B07D1054B002B02D02E
:1000D000044800E000BF0123237010BD1000002081
:1000E0000000000058340008044B10B5002B03D06A
:1000F0000349044800E000BF10BDC04600000000F6
:100100001400002058340008002243088B4274D3A6
:1001100003098B425FD3030A8B4244D3030B8B4208
:1001200028D3030C8B420DD3FF22090212BA030C11
:100130008B4202D31212090265D0030B8B4219D3F2
:1001400000E0090AC30B8B4201D3CB03C01A524112
:10015000830B8B4201D38B03C01A5241430B8B425A
:1001600001D34B03C01A5241030B8B4201D30B0343
:10017000C01A5241C30A8B4201D3CB02C01A52416A
:10018000830A8B4201D38B02C01A5241430A8B422D
:1001900001D34B02C01A5241030A8B4201D30B0216
:1001A000C01A5241CDD2C3098B4201D3CB01C01A30
:1001B000524183098B4201D38B01C01A524143093A
:1001C0008B4201D34B01C01A524103098B4201D328
:1001D0000B01C01A5241C3088B4201D3CB00C01A95
:1001E000524183088B4201D38B00C01A524143080D
:1001F0008B4201D34B00C01A5241411A00D2014632
:10020000524110467047FFE701B5002000F006F8A4
:1002100002BDC0460029F7D076E770477047C04658
:100220008446100062468C461900634600E0C046D2
:100230001FB500F0C5FF002801D40021C8421FBD32
:1002400010B500F009FF4042013010BD10B500F0BC
:10025000B7FF002801DB002010BD012010BDC04603
:1002600010B500F0ADFF002801DD002010BD012019
:1002700010BDC04610B500F033FF002801DC00209F
:1002800010BD012010BDC04610B500F029FF0028A8
:1002900001DA002010BD012010BDC046F0B54F4668
:1002A0004646D646C0B582B0009001910E034C0080
:1002B000CD0F710A009E5F00760F0E4300990092E9
:1002C0000193C900894619037B0D9846019B490A91
:1002D000DB0F9C46009B009A5B0F0B434146640D6D
:1002E000D200611A654500D1A6E0002972DD4746BB
:1002F000002F00D1DDE0CC4FBC4200D19AE10127B4
:10030000382917DC80273F043B431F2900DDDDE14E
:100310002027781A1F008740BA461700CF4084462E
:1003200038005746074360468240CB40501E82410A
:10033000F61A17434B46DF1BB94580414042361A37
:10034000330200D4FFE07602760A002E00D13CE1B1
:10035000300001F0B7FE0300083B20213800CA1A24
:10036000D0409E4002009F4032439C4200DDA6E107
:10037000181B0130091A3E008F40C6407B1E9F416A
:1003800013008B4037431F43C2403B00160000243C
:10039000134300D1DFE17B0700D132E30F233A00A2
:1003A0003B40042B04D03A1DBA42BF417F42F619AC
:1003B000330200D423E39C4B01349C4200D1B4E0CF
:1003C0009A4B64051E40640D7707D20876021743E6
:1003D000360BACE0002900D17EE04146091B002C21
:1003E00000D060E134004846044300D1C9E14C1E0E
:1003F000012900D12EE28C4DA94200D124E201272F
:10040000382C11DC21001F2900DD0BE220243700ED
:100410004846641AA740C84007434846A040CE401B
:10042000441EA0419B1B0743D71BBA429241524234
:10043000654644469E1A83E7002900DC9CE0474657
:10044000002F67D11F00174300D1E4E0481E0129A7
:1004500000D19BE1744FB94200D1EBE001270100CC
:10046000382811DC1F2900DDC7E12027781A1F007A
:10047000844687401000C840074360468240CB4016
:10048000501E8241F61817434F444F458041404269
:100490003618330257D5644B01349C4245D00121B4
:1004A000624B7A081E4039400A43F7071743760823
:1004B00071E71F00174300D1ADE04F1EBC46012974
:1004C00000D182E1584FB94200D190E16146012745
:1004D000382900DD2EE718E7554F611C394200D05E
:1004E000D0E0310048461F0001431743002C00D0E4
:1004F0003DE1002900D1BCE1002F00D0BFE14B4617
:100500000021D80877070743F00806034C05360B8F
:10051000640D0CE0444FBC4200D18BE00127382928
:10052000B2DC80273F043B439CE7002600272405DC
:100530003443ED072C433800210002B0E0BCBA463A
:10054000B146A846F0BD7B0704D00F233B40042BE7
:1005500000D028E7F808344B77070743F0089C429F
:1005600000D04AE23B00034359D0802636030643BD
:1005700036032D4C360BDAE7002961D04146091BC2
:10058000002C00D1B9E0284CA04500D1A5E10127FD
:10059000382913DC8024240426431F2900DDC8E108
:1005A000202437004846641AA740C84007434846FD
:1005B000A040CE40441EA0419B190743BF1897425C
:1005C000924152424446D61863E7380001F07AFD62
:1005D000030018331F2B00DCBFE63A0008388240C6
:1005E0009C4200DD83E01B1B581C1F2800DCB4E18B
:1005F00017001F3BDF40202805D040231B1A9A40DC
:10060000531E9A4117430024002F0AD07B0700D0C5
:10061000C4E626009EE74B460C00D8089BE700275F
:10062000014C002683E7C046FF070000FFFF7FFF65
:10063000FE0700004B467707D8080743F00891E70C
:10064000CD4F611C39426BD1310048460143002C2B
:1006500000D04BE11F001743002900D181E1002F9A
:1006600000D14CE74A444A458041F61840423618CA
:10067000330200D5B0E117009146374300D03EE782
:10068000002654E74946891A8846C145BF41F11AF8
:100690007F42C91B0F0261D447460F4300D1BDE022
:1006A0000E00474651E6B54CA04500D100E10127B8
:1006B000382900DDB8E6802424042643A3E6B04EA2
:1006C000E41A16407B0700D03FE743E70F0018000D
:1006D000203FF8408446202903D04027791A8B40D8
:1006E0001A43531E9A41634617001F4322E6A4484B
:1006F000E11A10404707C00807E7340048460443A2
:1007000000D1FAE04C1E012900D1D7E09B4FB9423D
:1007100000D1E2E00127382C00DD4FE721003CE763
:10072000964CA14200D1DDE04A444A458041F3188D
:1007300040421818C707520817434608520705D009
:100740000F220C003A40042A00D02CE67607FF085E
:1007500037430009D9E600270026E8E64946571A3C
:10076000BA4292419E1B52426546B61AEDE50029F7
:1007700000D0C6E0002F67D1802600257F4C3603CD
:10078000D5E665460C001E00D008E4E64A444A451A
:100790008041F318404218181100030200D496E07B
:1007A000774B49081840C3070B434408490700D159
:1007B00029E10F221A40042A00D1EAE01F1D9F42BE
:1007C000B641764236190224C4E649468F1AB94525
:1007D0008041F61A4042361A330206D47307FF08E6
:1007E00001211F43F00890E665460124ABE54B4626
:1007F0007707D8080743F008B4E60F001800203F39
:10080000F8408446202903D04027791A8B401A43A8
:10081000531E9A41634617001F4335E60025002406
:10082000002684E60C003500203CE540202905D058
:100830004024611A8E404946314389464846411E4C
:10084000884107002F43EFE5D2085F07654617434D
:10085000D80887E6171ABA4292419E1B5242B61A2E
:100860003302C1D47307FF08654601211F43F00816
:100870004BE6002F7BD065461E0091463FE6811A6D
:100880008846C145A441F11A6442091B802424040E
:10089000214277D0101A8242924107009E1B524299
:1008A000B61A374300D0A0E06546002400263EE695
:1008B0005F07D20865461743D80853E6811891426E
:1008C0009241F01852428018030200D568E74707AA
:1008D000C9080F43C008012117E6D2085F07174374
:1008E000D8083FE60C000026002720E6002956D154
:1008F0005F07D2081743D80834E60C001E00D00862
:1009000029E6C10870070143F008002F62D0802457
:100910002403204207D0DE08264204D16546300079
:10092000D1085B0719434F0FC900C9087F070F4360
:1009300018E60C003000203CE0408446202905D019
:100940004024611A8E404946314389464846411E3B
:100950008841614607000F4330E620210027091A2D
:100960000EE51E00002F00D022E5002458E70025E8
:1009700000240026DBE5C046FE070000FF0700005C
:10098000FFFF7FFF47460F4300D147E70E00C146F8
:10099000B5E5DF086407022127430009B5E5190022
:1009A000C008770707431143F008002900D1D9E5B3
:1009B00080210903084207D0DC080C4204D1D20888
:1009C0005B071A43170020007B0FFF00FF085B073F
:1009D0001F43C7E50F00C5E5124BD20833405F0740
:1009E0005B02012417431E0BA1E5264212D00D4BDA
:1009F0006546020001241E40E6E4210085E517005B
:100A0000A8E53A00D4E4DB0864071C432700022170
:100A100000097AE5C0087707074365460021F0081A
:100A200073E5C046FFFF7FFFF0B5DE4645465746FB
:100A30004E46E0B587B0009201930B031B0B9B461B
:100A4000CA0F4B00040080465B0D029200D198E073
:100A50007C4A934237D05946420FC9000A4380214D
:100A600009041143C2009046774A894692469A4447
:100A7000002300240393009E019F3B031B0B9B4616
:100A80007B0030005B0DFD0F002B59D06D4A934267
:100A900048D05946720FC9000A4380210904114306
:100AA0008B466949F2008C4651466344CB1A9A46FC
:100AB0000021029E6E40F6B20F2C00D9CEE0634BAF
:100AC000A4001B599F465A460243914600D090E02D
:100AD0009A460223904608240393CCE7CB4642462D
:100AE000029D0399022900D1DEE1032900D18DE0A6
:100AF000012900D079E12E00002200230024904635
:100B00001B052343F60733434046190007B0F0BCEA
:100B1000BB46B246A946A046F0BD0022002490463E
:100B2000484BEDE75A46009B1A43494B9C46E2442A
:100B3000002A59D102231C43002302219B46B8E717
:100B40005A46009B1A4349D05B46002B00D19CE1DA
:100B5000584601F0B7FA020003000B3A1D27009E29
:100B6000BA1A19005846D640083988403200024364
:100B70009346009A8A40374953448A4600219A4452
:100B800097E75B460343994621D05B46002B00D193
:100B900069E1584601F096FA0B235B429C4602003D
:100BA000844466461D239B1B260011005846DE40E8
:100BB0000839884033000343994623008B40984608
:100BC000254B00249B1A9A460023039353E70023E6
:100BD00098469A460133042403934CE701231C43AF
:100BE000002301219B4664E70323320003211C43B9
:100BF0005FE79A460323D9460C2403933BE700237F
:100C00008024984600260F4B240379E780245B4616
:100C100024031C4324032E0090460A4B240B6FE749
:100C200080244B462403234202D05B462342F0D06B
:100C300080244B4624031C432403029E014B240BB7
:100C40005EE7C046FF07000001FCFFFF70340008AC
:100C500001F8FFFFF30300000DFCFFFFCB4500D2BE
:100C6000F8E000D1F3E001235B429C46444648464D
:100C70000025E2445B46170E1B021F43190C3B0480
:100C8000120200971F0C914602910397FFF7C2FAD8
:100C900002007A430B04210C804619438A4209D989
:100CA000009F0123BC465B4261449C46E0448F4266
:100CB00000D85CE1881A0299FFF7ACFA039A240481
:100CC00042430904240C03000C43A24206D90099B4
:100CD000013B8C466444A14200D842E1A01A42463E
:100CE00012041A4393464B4659461B0C1F000493AB
:100CF0000B0449460904090C0C001B0C5C43120C44
:100D00007B43884651437A43270CBC465B186344B7
:100D1000994203D9802149028C466244190C24046B
:100D20001B04240C8A181C19904202D316D1A54228
:100D300014D25B46009F013B4D4405934D459B41BA
:100D4000BC465B426344C018874200D302E1824242
:100D500000D929E100D124E1059B9B462C1BA5422B
:100D6000AD41009B801A6D42401B834200D10FE1D0
:100D70000299FFF74FFA039A0B044243210C050036
:100D800019438A4200D9CBE0881A0299FFF742FA48
:100D9000039A240442430904240C03000C43A24296
:100DA00000D9CAE04146A41A2A041A43049F130436
:100DB0001B0C594340467B439C46150C68430B0C67
:100DC000844463447D43984203D980204002844692
:100DD0006544180C09041B04090C40195B18844273
:100DE00027D323D0012335001A43944B5344002BBF
:100DF00060DD510700D086E02E00D1085A46D201AE
:100E000006D55A468E4B1A4080239346DB00534446
:100E10008C4A934200DD80E65A4652070A439046C8
:100E20005A465B055402240B5B0D69E63500002B26
:100E3000DBD0009D511EAC466444AC4200D29EE023
:100E4000844200D2E1E000D1EEE00A00CAE7424568
:100E500000D908E74B46DC07580843465B081C43AB
:100E60004346DD0706E701F02DF915239C4684442F
:100E70000200634620321C2B00DC92E62300083877
:100E800083409946002398469AE601F01BF9020038
:100E90000300153220331C2A00DC5FE60099083875
:100EA000814000228B4666E600222E0000249046F8
:100EB000654B25E62E000121C91A382900DD1BE605
:100EC0001F297EDC6148140050445B468240834009
:100ED000CC40501E824123431A435B46CB4051070E
:100EE00009D00F211140042905D0111D91429241D2
:100EF00052429B180A00190200D49BE000220123F1
:100F000000249046FCE50F211140042900D173E72D
:100F1000111D9142924152422E00C90893446DE73F
:100F2000009B013D9C4661448B4200D92CE78A42DC
:100F300000D829E7851E614426E70099013B8C46CD
:100F40006444A14200D92DE7A24200D82AE7831EBB
:100F5000644427E7874200D0FEE6A94500D9FBE6B6
:100F6000F5E6A24200D8B9E6831E6444B6E68A429A
:100F700000D89FE6BC46831E984661449AE60A0064
:100F8000844200D02EE74B4500D02BE735002CE7FC
:100F90002A4B2F4A5344924543DB012200219344BC
:100FA0002CE7AC4200D8D7E602235B429C4600996E
:100FB0004D444D459B41E3448C465B426344C0181D
:100FC000CCE61F204042C31A5846D840202904D0FE
:100FD0005946204B534499400A43531E9A410723D4
:100FE0001900024300241140134209D00833134072
:100FF000042B1DD0131D934289411A004942490711
:10100000D2080A43904600237AE54946009F4D00E6
:101010004D458941BC4649426144A946023A64189B
:10102000AEE70122524246E79945EED30A00AAE70D
:101030000021E5E759075B021C0BE1E7FF03000015
:10104000FFFFFFFEFE070000FF0700001E04000078
:1010500002FCFFFF3E040000F0B55746DE464E4658
:101060004546E0B50D000400E80F83460903D80F9C
:10107000090B824619488C461F0369005E00490D22
:101080003F0B760D814218D086420FD00120B1422D
:101090000DD1BC450BD1944209D1D3451CD00029B8
:1010A00005D160462043431E984100E00120F0BC7A
:1010B000BB46B246A946A046F0BD01208E42F6D1FD
:1010C000614639430F0017432743F0D15B46524630
:1010D000981A431E9841EAE70020E8E7FF0700005E
:1010E000F0B557464E464546DE46E0B50D000E03C8
:1010F0004900490D8A46DF0FE90FBC4683B02F4FE8
:10110000040080460191580019039146360B090BE3
:10111000400DBA451DD0B8420DD05746002F2AD1F8
:101120003443002824D10A4336D0002C41D16346F1
:101130005800013815E0114338D15346002B01D136
:101140002643F4D0019B634507D1019B5800013829
:1011500007E026432AD1504521D00120019B5F4260
:10116000384303B0F0BCBB46B246A946A046F0BD2A
:10117000002CDCD0E6E70028EFD0019B6345ECD1E2
:101180008245EADCE1DB8E42E7D8DED1C845E4D80F
:101190000020C845E5D2D8E7002CE2D0DDE71143B6
:1011A00004D1019B6345D8D10020DAE702204042F8
:1011B000D7E7019B6345E6D0CFE7C046FF070000B5
:1011C000F0B557464E464546DE46E0B50D000E03E7
:1011D0004900490D8A46DF0FE90FBC4683B02E4F08
:1011E000040080460191580019039146360B090B03
:1011F000400DBA451ED0B8420DD05746002F27D11A
:101200003443002833D10A4334D0002C40D1634604
:101210005800013815E0114312D15346002B01D17B
:101220002643F4D0019B63451DD00120019B5F4202
:10123000384306E0264303D15045F6D111431CD074
:10124000022003B0F0BCBB46B246A946A046F0BDA2
:101250000028EAD0019B6345E7D18245E5DC02DB4B
:101260008E42E2D80ED0019B58000138E9E7002CED
:10127000CDD0D7E7002CE4D0D7E7019B0020634511
:10128000DFD0D2E7C845D0D80020C845D9D2EAE798
:10129000019B6345E4D0C8E7FF070000F0B557465F
:1012A0004E46DE464546E0B51F000B031B0B1600FD
:1012B0009A46CA0F4B000400914685B05B0D00D1E1
:1012C000CFE1CD4A934255D05146420FC9000A435F
:1012D000802109041143C2009046C84A8A469346B9
:1012E0009B440023002502933C037B00FA0F0196E8
:1012F000240B5B0D009200D188E1BF4A934200D1DC
:1013000092E0BE4A944663449B440A2D42DCE400CA
:10131000730F23438024494624041C43F3000193A4
:10132000009B00205940CBB20393022D00DC94E0D7
:101330000123AB401D00A6232A00DB001A401D42FA
:1013400000D029E290239B001D4200D14DE20023F2
:10135000802499462403A84B10004A461B052343CA
:10136000D2071343190005B0F0BCBB46B246A946EC
:10137000A046F0BD52460243904600D0ACE19B46E9
:101380000223924608250293AEE7009BA2469946A7
:10139000019B9846029B022B00D1CAE1032B00D18E
:1013A00092E1012B10D1002300240022D4E7012276
:1013B0007B083A4013435246D2071343984653469C
:1013C0005B089A46039B99465B46581C8023DB00CA
:1013D0005B44002B00DCB1E1424652070BD00F22E8
:1013E00041460A40042A06D04246111D4145924119
:1013F0008846524292445246D20106D55246804B0C
:101400001A4080239246DB00C3187E4A934200DDD7
:101410008FE14246D108524652070A4351465B05C6
:101420004C02240B5B0D97E7734B26439C46E34429
:10143000002E00D16FE1032349461D43009B594014
:10144000CBB203930A2D00DD33E10123AB401D0035
:101450000323029388222A4297D14246434612042C
:10146000120C160001981D0C030C0004000C4643DE
:10147000B4461E006E430096160007005E436146A8
:10148000B0466F430E0CB8444644B74205D980219C
:1014900049028846009F4744009761460904090CA9
:1014A000370C36048C463100614401911100260C42
:1014B0002404240C61438C4621006943894661461B
:1014C000090C884672434A4442447543914503D906
:1014D0008021490288464544110C8846614609042A
:1014E000090C8C4612046244B91802915146090C49
:1014F0008C4651460F043F0C390041434544884611
:10150000614641438A4641466046090C8946584334
:101510007B4353444B449A4503D980214902894671
:101520004844190C894641460904090C884639008B
:1015300061431B044344884661464C4371438C46D7
:10154000414677430E0C3F19F6194844B44203D97B
:10155000802149028946CC440299009F8946310482
:101560004F4489464146974292410C04240C4C4416
:10157000FF1852426419A1189F429B418846824637
:101580005B42994690459241AC42A441C244D14449
:1015900052426442144399459B41824592415B42C9
:1015A000524213434A46360CA419E31863445B02C3
:1015B000D20D1A43019992467A020A43501E824183
:1015C000FF0D17434A4652021743B846DB0100D5C8
:1015D000EDE60D4B039A5B449146002B00DCACE03A
:1015E0003A00520700D110E70F2258463A40042A29
:1015F00000D0F9E609E7C046FF07000001FCFFFF45
:10160000FFFFFFFEFE070000FF0300002200324341
:101610006FD0002C00D1C2E0200000F053FD02008A
:1016200003000B3A1D20821A30001900D0400839FF
:101630008C400200224334008C405946CB1A864924
:101640008B469B440A2D00DDA4E64946009B01948D
:101650005940CBB2140000200393022D00DD67E651
:10166000FBE65346034398463CD05346002B00D13B
:10167000A3E0504600F026FD0B235B429C4602008F
:10168000844411005046083988401D238046604636
:101690001B1A2000D8400300404603439A4623000B
:1016A0008B4098466C4B00259B1A9B460023029367
:1016B0001AE60F2D00D0C9E0802352461B031A42C0
:1016C00002D01C4200D192E08024534624031C43E4
:1016D00024034246240B3EE69B46032380460C250A
:1016E000029301E600239A469B46013304250293A8
:1016F000FAE501210D430A2D00DD4BE6494600982D
:101700004140C9B20391022D00DC96E00023002481
:10171000012001930CE649460223009A2B435140D5
:10172000CAB203920A2B00DD34E6002D57D1039B89
:10173000994600240022494B0EE658460121C91A59
:10174000382900DD2FE61F2956DD1F22544652425C
:10175000D31ADC40202907D0414B42469C465346D1
:10176000604483401A43904642460721531E9A41E3
:101770000B00224313400024114209D00F231340D1
:10178000042B5DD0111D91429B410A005B425B0717
:10179000D2081A430023DFE5039B9946FAE5019836
:1017A00000F090FC02000300153220331C2A00DCFC
:1017B00038E7019A083882403FE700F083FC1523A0
:1017C0009C4684440200634620321C2B00DC58E710
:1017D000002398462300083883409A4662E71D009C
:1017E0000023002402200193A2E5029032E61C436C
:1017F000009B019A9946AEE51A4B5246C3184046E3
:101800009A40C8400243404698400300581E834116
:1018100054461A43CC40530709D00F231340042BDE
:1018200005D0131D934292415242A4181A0023027C
:1018300008D50123002400228EE5894600248BE58B
:101840000023A5E763076402240BA1E7009BA246DF
:101850009946019B984637E70DFCFFFFFF07000004
:101860003E0400001E040000F0B557464E464546B3
:10187000DE46E0B583B0009001910C034D00CE0F21
:10188000610A009C5F00640F0C4300990092019371
:10189000C80019037B0D9946019BCC4FDB0F9C467A
:1018A0004B0A00998046490F1943009B8B46DA008A
:1018B00092466D0DB94500D1BFE001236146594004
:1018C0004B468C46EB1A8E4275D0002B00DCA3E20F
:1018D0004946002900D1CEE0BD4200D100E20127F7
:1018E000382B19DC802759463F0439438B461F2B80
:1018F00000DDFAE12027F91A8C4659466746B940BF
:101900000F001100D9400F4361468A40511E8A41A1
:101910005946D9401743641AC71BB8428041404218
:10192000241A230200D440E16402640A002C00D18E
:1019300054E1200000F0C6FB0300083B20213800E2
:10194000CA1AD0409C4002009F4022439D4200DDC5
:10195000A6E1581B0130091A3C008F40C4407B1E91
:101960009F4113008B4027431F43C2403B0014009C
:101970000025134300D1F7E17B0700D177E30F2364
:1019800038003B40042B04D0381DB842BF417F4291
:10199000E419230200D468E38C4B01359D4200D149
:1019A000F4E08B4B6D051C406D0D6707C0086402A9
:1019B0000743240BECE0002B00DC29E34946002917
:1019C00000D0D6E05946114300D12EE1591E012B1B
:1019D00000D1E6E1BB4200D182E101270B003829AA
:1019E00014DC1F2B00DD3CE22027F91A8C465946F7
:1019F0006746B9400F001100D9400F4361468A4045
:101A0000511E8A415946D940174364183F188742EE
:101A1000804140422418230200D4C6E06B4B0135BC
:101A20009D4200D1B2E00121694B7A081C40394047
:101A30000A43E707174364089EE7664B11438A464B
:101A4000EB18002928D066452CD0002B5BD0002D48
:101A500000D12CE15B4666465F07D2081743DD08DC
:101A60003B002B4300D1E2E0802424032C432403D9
:101A7000564D240B8CE05946114300D1D5E0591E38
:101A8000012B00D1B9E1BB4200D1B1E101270B002C
:101A9000382900DD40E72AE76146012779408C4676
:101AA0006645D2D1002B00D1C5E0002D00D055E114
:101AB0004B462500054300D112E2591E8C46012BEE
:101AC00000D149E2414DAB4200D18FE201273829D4
:101AD00011DC63461F2B00DD5BE2614620232700FB
:101AE0005B1A050098409F40CD40431E9841CC4072
:101AF0002F430743A344BF189742924152425A448E
:101B000014004D4687E7344F6B1C3B4200D0B6E0D3
:101B10005946230011430F000343002D00D026E156
:101B2000002B00D1C0E1002900D1A1E0831A984622
:101B30005B464045AD41E31A6D425B1B80252D0499
:101B40002B4200D14BE15B46101A824292411C1B92
:101B50000700012663465242A41A27431E40002F65
:101B600000D142E12C4200D16DE2194B01251C400D
:101B70001BE7BD4200D13BE10127382B00DD45E7E3
:101B8000802759463F0439438B462AE70024002723
:101B90002D052543F60735433800290003B0F0BC76
:101BA000BB46B246A946A046F0BD7B0704D00F2332
:101BB0003B40042B00D0E7E62B00F808034A6707F8
:101BC0000743E508934200D14AE7A5E0FF0700007C
:101BD000FFFF7FFF01F8FFFFFE070000380000F065
:101BE00071FA030018331F2B00DCA7E63A0008380F
:101BF00082409D4200DD8AE05B1B581C1F2800DCF0
:101C0000D8E117001F3BDF40202805D040231B1AD6
:101C10009A40531E9A4117430025002F00D1E5E05A
:101C20007B0700D0ABE62C00C6E7C008C6E700275C
:101C30000024D14DACE7D14F6B1C3B4271D1230046
:101C40000343002D00D04EE15746002B00D1B5E1F3
:101C5000002F0DD08318834280415C4440422418F9
:101C6000220200D5C8E11F009846274300D1BCE0FE
:101C700043466707DB081F43E50800234CE0831A4F
:101C800098465B464045BF41E31A7F42DB1B1F027B
:101C90007CD447461F4300D1A6E01C00474645E6DA
:101CA000B74CED1A14407B0700D080E784E74B4621
:101CB0002500054366D05F1E012B00D1FCE0AE4D30
:101CC000AB4200D15EE16646382F00DCB4E0012073
:101CD000171ABA4292415B4652424D469C1A20E680
:101CE0006707C0080743E508BAE61F005946203FCA
:101CF000F9400F00202B05D04021CB1A59469940BE
:101D00000A43924653465A1E93411F4304E6EB1A78
:101D10009B4D15406F07ED082C035D05240B6D0DE1
:101D200036E7954DAB4200D1D6E0821821008242C1
:101D30008041594440420818C707520817434408D5
:101D4000520700D485E10F221D003A40042A00D03A
:101D50001AE6FF08640727430509DDE75B46D2085A
:101D60005F071743DD087BE60027002410E7002B00
:101D700000D0D6E0002900D02FE1802400267E4D3F
:101D8000240305E766465C46D00817E75B46171A4A
:101D9000BA4292411C1B012663465242A41A1E40BD
:101DA000C4E58318834280415C44404225182A02DE
:101DB00000D4DAE0724A5B081540EA071A43690862
:101DC0005B0700D44AE10F231340042B00D1FCE051
:101DD000171D9742A441644202256418ECE6474669
:101DE0001C001F4300D043E7002600250024CFE657
:101DF000C00867070743E50832E6871A5B46B84222
:101E00008041E41A4042241A230228D46307FF08C1
:101E10001F43E50801237FE7002B00D173E64B4603
:101E20005F1B3B00002D00D142E7382F00DDECE0C6
:101E300080230E001B041C431F2F25DC20252300BC
:101E4000ED1B0100A840AB40F940451EA8410B43E3
:101E5000FC4018435B461B1B9B4639E76646012541
:101E600062E51F005946203FF9408C46202B05D0E3
:101E700040275946FB1A99400A43924657467B1E13
:101E80009F4163461F43C1E53B002500203BDD40E9
:101E9000202F04D04023DB1B9C402043804640463B
:101EA000431E9841284313E700299DD0012663462D
:101EB0005C4690461E40DBE6171A5B46BA429241EA
:101EC0001C1B5242A41A2302C8D46307FF081F43F5
:101ED00066460123E5081FE71D000024002757E69A
:101EE0005C46D0086AE6002B00D137E75346C008AD
:101EF00067070743E508002B00D1B1E580231B03EA
:101F00001D4208D05946C808184204D1D2084907D2
:101F10000A43170005007B0FFF00FF085B071F4304
:101F20009EE5C00863071843E508002953D08023C5
:101F30001B031D420AD05946CC081C4206D101267B
:101F400063462500D008490708431E40470FC000DC
:101F5000C0087F07074383E58318934292415C449E
:101F60005242A5182A0200D524E76F07DB081F4359
:101F7000ED080123D0E6C046FF070000FE07000081
:101F8000FFFF7FFF5B46D2085F0766461743DD0809
:101F900066E52500203BDD406346202B05D040232D
:101FA00061465B1A9C402043804647467B1E9F410A
:101FB0002F43A0E520210027091AD2E4002F00D1E9
:101FC00013E75C4617000025F6E5D708490702230A
:101FD0000F432D09A0E6070042E55B4601265F0797
:101FE000DD086346D20817431E4039E55B46D20838
:101FF0005F071743DD0833E51E4ADB082240570719
:10200000520201251F43140BC2E50E0001205FE6BA
:10201000002B0DD04B465B1B9C46002D00D148E5A4
:102020000127382B00DD66E580231B041C4350E5A7
:102030006B1C114D2B4200D073E65946230011430F
:102040008A46034300E66707C00800230743E50804
:1020500062E66407FF08274305095DE6D2084907E1
:1020600011430F0002232D0956E60700A4E53800AE
:102070008FE4C046FFFF7FFFFE07000010B5041E7F
:1020800010D000F01FF80E4B1B1A5B055B0D0A28E1
:102090000FDC0B222100121AD14015300A038440B4
:1020A000120B01E0002300221B051343200019003E
:1020B00010BD22000B38824012030024120BF3E7FC
:1020C0001E0400001C2101231B04984201D3000CB4
:1020D00010391B0A984201D3000A08391B0998429B
:1020E00001D30009043902A2105C40187047C046B1
:1020F00004030202010101010000000000000000D1
:1021000000B591B02C22002105A801F078F9102229
:102110000021684601F073F90223012204930C9315
:10212000A02307929B030F3204A808920E9300F09D
:10213000BFFB002801D072B6FEE7072202230092FF
:10214000019300220023012168460292039300F0CC
:1021500007FE002801D072B6FEE711B000BDC046F0
:10216000F0B5DE464E4657464546E0B5C1B001F0F3
:10217000E7F8FFF7C5FF142200213AA801F03FF964
:102180008021D84BC9035A69D7480A435A615A6912
:102190000A4080213792379A5A69C9020A435A6124
:1021A0005A690A4080213892389A5A6989020A434A
:1021B0005A615B6900220B403993FF21399B01F082
:1021C0004FF8FF2201233A923B93002200233AA9C1
:1021D000C5483C923D9300F073FEC44B99460023E2
:1021E0004A461360C24B00229A46002351460A60B9
:1021F0004B60C0494E460A604B60BF4A26911B9215
:10220000BE4A00232792BE4A2892BE4A2992BE4A5D
:102210002A92BE4A2B92BE4A1C92BE4A1992BE4ACC
:102220001A92BE4A1F92BE4A2092BE4A2192BE4ACC
:102230002292BE4A2392BE4A2492BE4A2592BE4AA8
:102240009346D846BD4A2C92BD4A2D921B9A013323
:102250001360279A454613680133136001F08CF828
:10226000012207000121A04800F0FAFF289B2E97C9
:102270001893299B2F96179380239B460093002346
:10228000D846129342462A9B009C1C602B9B1A60E6
:1022900001F072F81E90802C00D9ADE04346802BEF
:1022A00000D9A1E1002B00D1B7E04046FFF7E6FEE0
:1022B00002000B00002000210C920D93FEF7B4FBEE
:1022C00002000B00FDF7EAFF9E4B0022FFF7CCFA5D
:1022D000009B06900791002B00D19EE00023002474
:1022E0009B4627002E000098FFF7C8FE0023B94642
:1022F0005F460E900F9102930298FFF7BFFE0E9A71
:102300000F9BFEF791FB00228F4BFEF7C7FF8F4B11
:102310000022FFF7A9FA0024002500230A900B9160
:10232000CB462000B94629001F000494059524E0FF
:10233000109A119B08980999FFF796FA0A9A0B9B35
:10234000FDF7ACFF089009910498059902000B0075
:10235000FDF7A4FF22002B00FEF7A0FF069A079BC3
:10236000FDF79CFF013704000D00642F1FD0089A71
:10237000099B100019000492059302000B00FEF760
:102380008DFF2200089009912B0020002900FEF704
:1023900085FF02000B000898099910921193FDF730
:1023A0007DFF00226A4BFDF75BFF0028C0D13B0098
:1023B0004F46D9469B46029B009A01339BB25F442D
:1023C0000293934298D1BB464F460137BFB247456F
:1023D00000D184E03800FFF751FE0C9A0D9BFEF708
:1023E00023FB02000B00FDF759FF0022554BFFF7BE
:1023F0003BFA0690079176E744467F34E4112300C8
:10240000009E1C9A7F36F01110604343199A1460A5
:102410001A9A1360002C00D0F4E000239B4600F0D1
:10242000ABFFFA211E9B8900C41A209B1868FDF798
:102430006BFE604381462000FFF720FE06000098F7
:102440000F00FFF71BFE009001914046FFF716FEBC
:1024500002000B0000980199FEF720FF0022009077
:1024600001913C4B30003900FEF7DEFA02000B0010
:1024700000980199FEF7D8FA030048460C0021990C
:10248000009301940860584622994A4608602399AF
:102490000E604F6024990B604C605B461299259C3E
:1024A00088002350C9002C9B6C18266067601A5066
:1024B0002D9B9C46009B019C61440B604C601299D3
:1024C00001311291189B179A023302321893179216
:1024D000052941D01B88009313889846D2E6350021
:1024E0009DE7C0460010024000040048F8000020AC
:1024F000F0000020E8000020E4000020E0000020C0
:10250000B0340008B0340008DC000020D8000020FF
:102510003800002034000020300000202C00002073
:1025200008000020D4000020D0000020C8000020B7
:10253000C0000020A80000208000002068000020CB
:10254000400000200000F03F00000C40000004406C
:102550000000104000408F402E9F2F9E00F00CFF87
:10256000C71B3800FFF78AFD5346A846186059601C
:10257000286869682B00AC68ED681A695B6900928D
:10258000019343469A69DB690292039343461A6AB0
:102590005B6A0492059300220023FDF77FFE220070
:1025A0002B00FDF77BFE009A019BFDF777FE029A58
:1025B000039BFDF773FE049A059BFDF76FFE269BB8
:1025C0000122186059600221A248376000F048FEDD
:1025D000FA20C00000F0D6FE002203219D4800F042
:1025E0003FFE1B9B1B6831E64446009E1C9A7F36CB
:1025F000F01110607F34199AE411146043421A9A62
:10260000234013600021431C0E93002200238B46BD
:10261000002800D115E1A146474630951600040078
:102620001D00D04632007F3292B2BA4200DA04E195
:1026300031003A1C803193B210930E9B32941B1BD5
:10264000139300231C0043468A46C8469946319599
:102650001F9B139A1A608022230002927F33009AF4
:102660009BB29A4202DC131B9BB20293109B9E42C8
:1026700000D1B6E03800FFF701FD029B35000A905B
:102680000B91002B00D1A7E03000FFF7F7FC0A9A6E
:102690000B9BFEF7C9F902000B00FDF7FFFD6E4B27
:1026A0000022FFF7E1F8029B5546E3189BB2169310
:1026B00043461D94CA4634000690079133963493DE
:1026C0000098FFF7DBFC1D9BA9461E003B005F4600
:1026D0009B461490159135943000FFF7CFFC149A67
:1026E000159BFEF7A1F900225C4BFEF7D7FD5C4B72
:1026F0000022FFF7B9F80024002500230890099173
:102700009846200029000294039529E00C9A0D9B1D
:1027100004980599FFF7A8F8089A099BFDF7BEFDF4
:10272000049005910298039902000B00FDF7B6FD95
:1027300022002B00FEF7B2FD0B000200069807995D
:10274000FDF7ACFD01239C46E044434604000D0028
:10275000642B1FD0049A059B10001900029203936A
:1027600002000B00FEF79AFD2200049005912B0059
:1027700020002900FEF792FD02000B000498059945
:102780000C920D93FDF78AFD0022364BFDF768FD94
:102790000028BBD10136169BB6B247449E429BD15E
:1027A0005B46359CBB4601341F00109BA4B24D46CE
:1027B000A34232D02000FFF761FC0A9A0B9BFEF780
:1027C00033F902000B00FDF769FD0022224BFFF7F1
:1027D0004BF80690079173E70135109BADB2AB4201
:1027E000FAD1139B0E9A013380341393A4B29A4208
:1027F00000D02DE794464B46329C5146A444C14636
:1028000098466346319D0E9301358EB2A94500D09E
:1028100008E7C246309DB84601E6349B1D9C9846A9
:10282000139B0E9A01338034D146339EAA461393EC
:10283000A4B29A4200D00BE7DCE7310080310A1CD9
:10284000F9E60133A34200D1E7E50133A342F8D111
:10285000E3E5C046000400480000F03F00000C40E3
:102860000000044000001040FEE7C046FEE7C046FE
:102870007047C0467047C04610B500F071FD10BDEE
:1028800001220A4B82B099691143996199690A4002
:1028900080210092009ADA6949050A43DA61DB690E
:1028A0000B400193019B02B07047C04600100240EC
:1028B000F0B5CE46474680B5040083B0002800D16D
:1028C000F2E00368DA0735D50C21C34842680A40B4
:1028D000042A00D101E142681140082900D1F8E042
:1028E0006368012B0FD0002B00D11EE1052B00D116
:1028F000A7E1B94BB9491A680A401A601A68B84981
:102900000A401A6005E08023B34A5B0211680B435A
:10291000136000F031FD80260500AF4FB60205E0E0
:1029200000F02AFD401B642800D9FCE03B683342DC
:10293000F6D023689A0729D50C22A7494868024295
:1029400000D1AAE048680240082A00D1A1E0E3686B
:10295000A14D002B00D11FE101222B680227134358
:102960002B6000F009FD060005E000F005FD801B6E
:10297000022800D9D7E02B681F42F6D0F8212A6838
:1029800023698A43DB0013432B6023681A072DD485
:102990005A0744D5802200208F4B5205D9698146C1
:1029A000114208D1D9691143D961DB691340019300
:1029B000019B0123994680278A4E7F0033683B4262
:1029C00000D194E0A368012B00D1F8E0002B00D1E6
:1029D000C4E0052B00D140E101217F4B1A6A8A43F4
:1029E0001A621A6A03318A431A62ECE0E3697A4D8B
:1029F000002B5BD001226B6A022713436B6200F04D
:102A0000BBFC060005E000F0B7FC801B022800D9E3
:102A100089E06B6A1F42F6D023685A07BAD4DB06F6
:102A200012D56369012B00D13CE1053300D0E9E008
:102A30000421F820684A536B8B435363516BA3699D
:102A40008143DB000B435363236A002B1BD00C2212
:102A5000614D69680A40082A00D108E1022B00D1C3
:102A60003EE12B68604A802613402B6000F084FC16
:102A7000B604040004E000F07FFC001B022852D8DA
:102A80002B683342F7D1002003B0C0BCB946B04632
:102A9000F0BD4A68D20300D559E74F4A1268920741
:102AA00035D5E268012A32D00120EDE701226B6AB8
:102AB000022793436B6200F05FFC060004E000F025
:102AC0005BFC801B02282ED86B6A1F42F7D123685B
:102AD000A3E74268D20300D402E73F4A1268920398
:102AE00000D427E76268002A00D023E7DCE73368D8
:102AF0003B43336000F040FC050004E000F03CFC88
:102B0000401B64280FD833683B42F7D05AE7F825BA
:102B1000314822690168D200A9430A4302601A07BA
:102B200000D435E762E70320AEE72B4D2B4A2B6834
:102B3000802713402B602B68294ABF0213402B606B
:102B400000F01AFC060004E000F016FC801B64286C
:102B5000E9D82B683B42F7D12368EBE601221E4EF1
:102B6000224D336A93433362336A033293433362B1
:102B700000F002FC02230700984604E000F0FCFB92
:102B8000C01BA842CFD84246336A1A42F6D14B4600
:102B9000012B4FD0236842E701222B680227934381
:102BA0002B6000F0E9FB060004E000F0E5FB801B71
:102BB0000228B8D82B681F42F7D12368E6E60649F9
:102BC0000A6A13430B6200F0D7FB034B06009846DA
:102BD0000227064D11E0C04600100240FFFFFEFF35
:102BE000FFFFFBFF00700040FFFFFFFE88130000A7
:102BF00000F0C2FB801BA84295D843461B6A1F42C7
:102C0000F6D0C4E70422524D02276B6B13436B636B
:102C10006B6B033A93436B6300F0AEFB060005E079
:102C200000F0AAFB801B022800D97CE76B6B1F42D7
:102C3000F6D109E7464A4749D3690B40D361236877
:102C4000EDE68022424BD20219680A431A608022C4
:102C5000196852020A431A605BE604213C4B1A6A67
:102C60000A431A621A6A03390A431A62ABE7012B54
:102C700000D119E780226B68616A5202E86A1A4043
:102C80008A4200D010E70F22E16A02408A4200D057
:102C90000AE7F022A06A92031340181A431E9841D3
:102CA000C0B2F1E604212A4D02276A6B0A436A6327
:102CB0006A6B13436B6300F05FFB060005E000F0F6
:102CC0005BFB801B022800D92DE76B6B1F42F6D0FF
:102CD000F8216A6BA3698A43DB0013436B63B3E695
:102CE0002B681D4A802713402B6000F045FBBF0472
:102CF000060005E000F040FB801B022800D912E727
:102D00002B683B42F6D10F22EB6A114E9343E26AE5
:102D10001343EB62616AA36A6A680B430F490A4076
:102D200013436B6080232A685B0413432B6000F01D
:102D300023FB80250400AD0405E000F01DFB001B13
:102D4000022800D9EFE633682B42F6D09BE6C04656
:102D500000100240FFFFFFEFFFFFFFFEFFFFC2FF7B
:102D6000F8B5CE46474604000D0080B500280DD0CA
:102D700001234A490A681A40AA420CD20A689A43B7
:102D80002A430A600A681340AB4204D00120C0BC49
:102D9000B946B046F8BD23689A070ED55A0705D53F
:102DA000E0223F49D200486802434A60F0203C4993
:102DB0004A688243A06802434A60DB0722D5384B49
:102DC00062681B68012A5BD0022A56D09B07DDD5BA
:102DD0000321334E73688B431343736000F0CCFAC6
:102DE0000C2398462F4B0700994604E000F0C4FAE4
:102DF000C01B484547D8434672681A4063689B0029
:102E00009A42F3D10121254A13680B40AB4205D900
:102E100013688B43136013681942B7D123685B07AB
:102E200006D51F4A204953680B40E1680B435360A5
:102E30000C231B494A681340082B0ED01B48184B23
:102E40001B4A5B681B491B061B0FD35CD8400860FC
:102E5000032000F04FFA002099E70F251648930C45
:102E60002B40C45CC96AD2030FD5144B0D40595D89
:102E70000E48FDF749F96043E1E79B01A8D485E7D7
:102E80009B03A5D482E7032081E763011B1B980104
:102E9000C01AC00000190002D1E7C046002002405D
:102EA0000010024088130000FFF8FFFF00127A00B4
:102EB000DC34000808000020CC340008BC340008D2
:102EC000F0B5DE4657464E464546E0B50A688B46A5
:102ED00087B0002A75D090210023C905884200D10F
:102EE000D2E0D949D94F8C465946029101219940E7
:102EF00088461140009141460A425ED0029C5D0026
:102F000061688B4603215C4621400324AC40E443C6
:102F10004E1E0194012E5BD9032900D073E1A94014
:102F20000668019C34402143C02401605946A40234
:102F3000214242D061460124654689690F2621431A
:102F4000A961A96903252140C14C1D40A046AD00DF
:102F5000AE40059105999908890041448C68B443B5
:102F6000BC4EB04200D18BE0BB4EB04200D175E008
:102F7000BA4EB04200D142E10526AE40344380262D
:102F80005D468C60009C7603E443B968354200D00E
:102F900073E021405D46B960F968AD026AD4214012
:102FA0005D46F9607968AD0361D421405D46796082
:102FB0003968ED0356D42140396011000133D940FE
:102FC00094D107B0F0BCBB46B246A946A046F0BDBE
:102FD00086682640B246029EF668AE40B146564626
:102FE0004C4626438660446826004446A6435C4619
:102FF0002409B1462600012426409E40B0464E4694
:10300000444626434660C4682600019C2640029C34
:10301000B146A4682600AE40B0464E46444626431C
:10302000C660022900D07AE7DC08A400A0468044EC
:103030004446266A07241C40A400A14603960F2498
:103040004E46B440039EA64303964E46029C246916
:10305000B440039E26434446266260E70226AE4003
:1030600034438CE7009C0C4321003960A5E7009DA8
:1030700029439BE7009D294392E7009D294389E767
:103080000126AE4034437AE76F4900238A46594609
:103090000127029148E0032900D0C1E0A940066859
:1030A000019C34402143C02401605946A4022142BE
:1030B00035D05146544603250F2689691D403943B2
:1030C000A161A169624CAD00A446AE405D463940A5
:1030D000059105999908890061448C68B4438C6016
:1030E0005A49009C8968E443ED0200D584E0214000
:1030F000564DA960E9685D46AD027AD42140534D32
:10310000E96069685D46AD0370D421404F4D696048
:1031100029685D46ED0365D421404C4C21601100C7
:103120000133D94000D14CE7390099408C46114019
:10313000009161461142F2D002995D0049688B46C8
:1031400003215C4621400324AC40E4434E1E01941D
:10315000012EA0D886682640029CB146E668AE40A3
:10316000B0464E4644462643866044682600644680
:10317000A6435C462409B04626003E409E40B44625
:103180004646644626434660C4682600019C2640A5
:10319000029CB046A4682600AE40B446464664464B
:1031A0002643C660022900D078E7DC08A400A446C4
:1031B0009024E405A046C4446446266A07241C40C3
:1031C000A400A14603960F244E46B440039EA64396
:1031D00003964E46029C2469B440039E26436446EF
:1031E00026625BE7009C0C43210096E7009D294383
:1031F0008CE7009D294382E7009D294378E7032659
:10320000AE403443BBE62600C4683440A146029C6D
:10321000A468AC40A0464C4646463443C4607EE6B3
:1032200026009024E405A046E4683440A146029CB0
:10323000A468AC40A4464C4666463443A446444683
:103240006646E6602AE7C0460010024000040140DE
:10325000000001400004004800080048000C00483D
:10326000002A01D0816170478162FCE7FF220323BD
:1032700010B514000340DB009C4089010A40E44380
:103280009A4000280BDB0C4BC0219C468008800034
:1032900060448900435823401343435010BD0F231B
:1032A000064903408C46083B9B089B006344D96950
:1032B0000C401443DC61F1E700E100E000ED00E0C8
:1032C0008022431E5204012093420ED2C021074A9D
:1032D00007485360036A09061B021B0A0B4303627B
:1032E00000230020936007331360704710E000E074
:1032F00000ED00E070B50400FA200E4B8000197854
:10330000FCF702FF0C4D01002868FCF7FDFEFFF7FB
:10331000D7FF00280CD10130032C00D970BD023832
:1033200000222100FFF7A2FF044B00201C60F5E7FC
:103330000120F3E700000020080000200400002026
:103340001021064A10B5136803200B431360FFF7E2
:10335000D1FFFFF795FA002010BDC04600200240C3
:10336000034A044B11681B785B1813607047C04612
:10337000FC00002000000020014B18687047C04688
:10338000FC00002070B50400FFF7F6FF0500631C89
:1033900002D0044B1B78E418FFF7EEFF401BA0425D
:1033A000FAD370BD000000207047C0460D48854626
:1033B000FFF7FAFF0C480D490D4A002302E0D458EC
:1033C000C4500433C4188C42F9D30A4A0A4C00236F
:1033D00001E013600432A242FBD300F019F8FEF7BB
:1033E000BFFEFEE700200020000000200C000020AF
:1033F000F43400081000002000010020FEE7030064
:103400008218934200D1704719700133F9E7000028
:1034100070B500260C4C0D4D641BA410A64209D1BA
:10342000002600F019F80A4C0A4D641BA410A642AD
:1034300005D170BDB300EB5898470136EEE7B300F5
:10344000EB5898470136F2E7EC340008EC340008FA
:10345000F0340008EC340008F8B5C046F8BC08BCED
:103460009E467047F8B5C046F8BC08BC9E467047FB
:103470005C0C00081A0B0008F80A0008E40A0008AF
:10348000F80A0008FE0B0008F80A0008E40A000821
:103490001A0B00081A0B0008FE0B0008E40A0008CB
:1034A000DC0A0008DC0A0008DC0A0008200C00081E
:1034B0008000A000C000E000000100000102030441
:1034C00005060708090A0B0C0D0E0F100203040570
:1034D000060708090A0B0C0D0E0F10100000000063
:0C34E000000000000102030406070809B8
:0434EC00E9000008EB
:0434F000C10000080F
:0C34F400010000000400000000127A003B
:04000005080033AD0F
:00000001FF
