:020000040800F2
:1000000000200020B1430008E1330008E933000874
:1000100000000000000000000000000000000000E0
:10002000000000000000000000000000F1330008A4
:100030000000000000000000FB3300080534000849
:10004000014400080144000801440008014400087C
:10005000014400080144000801440008014400086C
:10006000014400080144000801440008014400085C
:10007000014400080144000801440008014400084C
:100080000144000801440008000000000144000889
:10009000014400080144000801440008014400082C
:1000A000014400080144000801440008014400081C
:1000B00001440008000000000144000800000000A6
:1000C00010B5064C2378002B07D1054B002B02D02E
:1000D000044800E000BF0123237010BD7800002019
:1000E0000000000084530008044B10B5002B03D01F
:1000F0000349044800E000BF10BDC04600000000F6
:100100007C0000208453000803B471464908400075
:100110004900095E49008E4403BC70470022430831
:100120008B4274D303098B425FD3030A8B4244D3BF
:10013000030B8B4228D3030C8B420DD3FF22090201
:1001400012BA030C8B4202D31212090265D0030BC0
:100150008B4219D300E0090AC30B8B4201D3CB03B6
:10016000C01A5241830B8B4201D38B03C01A5241F8
:10017000430B8B4201D34B03C01A5241030B8B42FA
:1001800001D30B03C01A5241C30A8B4201D3CB02E5
:10019000C01A5241830A8B4201D38B02C01A5241CA
:1001A000430A8B4201D34B02C01A5241030A8B42CD
:1001B00001D30B02C01A5241CDD2C3098B4201D3E5
:1001C000CB01C01A524183098B4201D38B01C01A63
:1001D000524143098B4201D34B01C01A52410309DA
:1001E0008B4201D30B01C01A5241C3088B4201D389
:1001F000CB00C01A524183088B4201D38B00C01A36
:10020000524143088B4201D34B00C01A5241411A5C
:1002100000D20146524110467047FFE701B5002069
:1002200000F006F802BDC0460029F7D076E7704717
:100230007047C0468446100062468C4619006346EB
:1002400000E0C0461FB501F06FF8002801D400217E
:10025000C8421FBD10B500F0B3FF4042013010BDD1
:1002600010B501F061F8002801DB002010BD01206D
:1002700010BDC04610B501F057F8002801DD002080
:1002800010BD012010BDC04610B500F0DDFF0028F4
:1002900001DC002010BD012010BDC04610B500F0EB
:1002A000D3FF002801DA002010BD012010BDC04698
:1002B000002B15D1002A13D1002906DB01DC002810
:1002C00006D00020C043410802E08021090600203A
:1002D00007B4024801A14018029003BD55FFFFFF7B
:1002E00003B4684601B5029800F06EF8019B9E4683
:1002F00002B00CBC7047C046F0B5CE469946030C20
:100300009C46130447461B0C1D000E006146040466
:10031000240C80B50700100C4B43654341436043F8
:100320002C0CC01824188C46A34203D980235B02EE
:100330009846C444494679435643230C2D042D0C5A
:100340008919634424046019C918C0BCB946B04671
:10035000F0BDC04670B50022002304000D00FFF779
:100360007FFF002808D12000290000F00FF80200CC
:100370000B001000190070BD80231B06E918200037
:1003800000F004F8002342428B41F2E770B50022EE
:100390000B4B0D00040001F035F801F065FF06007D
:1003A00001F020FF0022074B01F02CF802000B00A7
:1003B0002000290001F00CFB01F056FF310070BD58
:1003C0000000F03D0000F041F8B5CE46474680B54C
:1003D0009146984604000D0001F064FF07000E00EE
:1003E00002000B0048464146FFF786FF241A8D4164
:1003F000089B380031001C605D60C0BCB946B04647
:10040000F8BDC046F0B54F464646D646C0B582B0A8
:10041000009001910E034C00CD0F710A009E5F0009
:10042000760F0E43009900920193C9008946190383
:100430007B0D9846019B490ADB0F9C46009B009A66
:100440005B0F0B434146640DD200611A654500D134
:10045000A6E0002972DD4746002F00D1DDE0CC4F39
:10046000BC4200D19AE10127382917DC80273F04DC
:100470003B431F2900DDDDE12027781A1F0087405C
:10048000BA461700CF4084463800574607436046B7
:100490008240CB40501E8241F61A17434B46DF1B69
:1004A000B94580414042361A330200D4FFE076025B
:1004B000760A002E00D13CE1300001F0B7FE0300C7
:1004C000083B20213800CA1AD0409E4002009F40BD
:1004D00032439C4200DDA6E1181B0130091A3E00A0
:1004E0008F40C6407B1E9F4113008B4037431F4304
:1004F000C2403B0016000024134300D1DFE17B071C
:1005000000D132E30F233A003B40042B04D03A1DC4
:10051000BA42BF417F42F619330200D423E39C4B19
:1005200001349C4200D1B4E09A4B64051E40640D36
:100530007707D20876021743360BACE0002900D1CA
:100540007EE04146091B002C00D060E134004846A3
:10055000044300D1C9E14C1E012900D12EE28C4D8B
:10056000A94200D124E20127382C11DC21001F29E7
:1005700000DD0BE2202437004846641AA740C8403B
:1005800007434846A040CE40441EA0419B1B074362
:10059000D71BBA4292415242654644469E1A83E7AF
:1005A000002900DC9CE04746002F67D11F0017435D
:1005B00000D1E4E0481E012900D19BE1744FB9420B
:1005C00000D1EBE001270100382811DC1F2900DDF4
:1005D000C7E12027781A1F00844687401000C840D2
:1005E000074360468240CB40501E8241F6181743B5
:1005F0004F444F45804140423618330257D5644B33
:1006000001349C4245D00121624B7A081E4039409A
:100610000A43F7071743760871E71F00174300D115
:10062000ADE04F1EBC46012900D182E1584FB942CE
:1006300000D190E161460127382900DD2EE718E757
:10064000554F611C394200D0D0E0310048461F00B0
:1006500001431743002C00D03DE1002900D1BCE14B
:10066000002F00D0BFE14B460021D8087707074391
:10067000F00806034C05360B640D0CE0444FBC42F9
:1006800000D18BE001273829B2DC80273F043B43AF
:100690009CE70026002724053443ED072C4338004F
:1006A000210002B0E0BCBA46B146A846F0BD7B07C7
:1006B00004D00F233B40042B00D028E7F808344B2C
:1006C00077070743F0089C4200D04AE23B0003430F
:1006D00059D080263603064336032D4C360BDAE715
:1006E000002961D04146091B002C00D1B9E0284CFB
:1006F000A04500D1A5E10127382913DC802424047A
:1007000026431F2900DDC8E1202437004846641A2B
:10071000A740C84007434846A040CE40441EA041E1
:100720009B190743BF189742924152424446D6183C
:1007300063E7380001F07AFD030018331F2B00DC5B
:10074000BFE63A00083882409C4200DD83E01B1B74
:10075000581C1F2800DCB4E117001F3BDF40202895
:1007600005D040231B1A9A40531E9A411743002478
:10077000002F0AD07B0700D0C4E626009EE74B4638
:100780000C00D8089BE70027014C002683E7C046F1
:10079000FF070000FFFF7FFFFE0700004B467707C3
:1007A000D8080743F00891E7CD4F611C39426BD15F
:1007B000310048460143002C00D04BE11F00174395
:1007C000002900D181E1002F00D14CE74A444A457D
:1007D0008041F61840423618330200D5B0E11700C8
:1007E0009146374300D03EE7002654E74946891A30
:1007F0008846C145BF41F11A7F42C91B0F0261D42F
:1008000047460F4300D1BDE00E00474651E6B54CC8
:10081000A04500D100E10127382900DDB8E6802499
:1008200024042643A3E6B04EE41A16407B0700D00A
:100830003FE743E70F001800203FF8408446202997
:1008400003D04027791A8B401A43531E9A416346BE
:1008500017001F4322E6A448E11A10404707C008CA
:1008600007E734004846044300D1FAE04C1E012952
:1008700000D1D7E09B4FB94200D1E2E00127382CEC
:1008800000DD4FE721003CE7964CA14200D1DDE0BE
:100890004A444A458041F31840421818C707520895
:1008A00017434608520705D00F220C003A40042A8D
:1008B00000D02CE67607FF0837430009D9E6002769
:1008C0000026E8E64946571ABA4292419E1B524218
:1008D0006546B61AEDE5002900D0C6E0002F67D1C5
:1008E000802600257F4C3603D5E665460C001E00A9
:1008F000D008E4E64A444A458041F31840421818BB
:100900001100030200D496E0774B49081840C30752
:100910000B434408490700D129E10F221A40042A59
:1009200000D1EAE01F1D9F42B641764236190224EB
:10093000C4E649468F1AB9458041F61A4042361A34
:10094000330206D47307FF0801211F43F00890E625
:1009500065460124ABE54B467707D8080743F00806
:10096000B4E60F001800203FF8408446202903D049
:100970004027791A8B401A43531E9A416346170049
:100980001F4335E600250024002684E60C003500D0
:10099000203CE540202905D04024611A8E4049467C
:1009A000314389464846411E884107002F43EFE501
:1009B000D2085F0765461743D80887E6171ABA4278
:1009C00092419E1B5242B61A3302C1D47307FF08EC
:1009D000654601211F43F0084BE6002F7BD065469A
:1009E0001E0091463FE6811A8846C145A441F11A8E
:1009F0006442091B80242404214277D0101A8242C9
:100A0000924107009E1B5242B61A374300D0A0E025
:100A10006546002400263EE65F07D2086546174378
:100A2000D80853E6811891429241F018524280183A
:100A3000030200D568E74707C9080F43C008012132
:100A400017E6D2085F071743D8083FE60C000026D8
:100A5000002720E6002956D15F07D2081743D8089F
:100A600034E60C001E00D00829E6C10870070143D7
:100A7000F008002F62D080242403204207D0DE0833
:100A8000264204D165463000D1085B0719434F0F59
:100A9000C900C9087F070F4318E60C003000203C4E
:100AA000E0408446202905D04024611A8E40494602
:100AB000314389464846411E8841614607000F433D
:100AC00030E620210027091A0EE51E00002F00D075
:100AD00022E5002458E7002500240026DBE5C04677
:100AE000FE070000FF070000FFFF7FFF47460F43A0
:100AF00000D147E70E00C146B5E5DF0864070221D3
:100B000027430009B5E51900C008770707431143DB
:100B1000F008002900D1D9E580210903084207D057
:100B2000DC080C4204D1D2085B071A4317002000EE
:100B30007B0FFF00FF085B071F43C7E50F00C5E5FC
:100B4000124BD20833405F075B02012417431E0B90
:100B5000A1E5264212D00D4B6546020001241E403D
:100B6000E6E4210085E51700A8E53A00D4E4DB08B7
:100B700064071C432700022100097AE5C0087707B3
:100B8000074365460021F00873E5C046FFFF7FFF7D
:100B9000F0B5DE46454657464E46E0B587B0009272
:100BA00001930B031B0B9B46CA0F4B0004008046AE
:100BB0005B0D029200D198E07C4A934237D05946AF
:100BC000420FC9000A43802109041143C200904624
:100BD000774A894692469A44002300240393009E54
:100BE000019F3B031B0B9B467B0030005B0DFD0F01
:100BF000002B59D06D4A934248D05946720FC90014
:100C00000A438021090411438B466949F2008C464E
:100C100051466344CB1A9A460021029E6E40F6B2BA
:100C20000F2C00D9CEE0634BA4001B599F465A46B7
:100C30000243914600D090E09A4602239046082451
:100C40000393CCE7CB464246029D0399022900D18B
:100C5000DEE1032900D18DE0012900D079E12E00E9
:100C600000220023002490461B052343F60733434C
:100C70004046190007B0F0BCBB46B246A946A046A4
:100C8000F0BD002200249046484BEDE75A46009BF9
:100C90001A43494B9C46E244002A59D102231C4383
:100CA000002302219B46B8E75A46009B1A4349D0CD
:100CB0005B46002B00D19CE1584601F0B7FA0200D8
:100CC00003000B3A1D27009EBA1A19005846D64059
:100CD00008398840320002439346009A8A403749D7
:100CE00053448A4600219A4497E75B46034399465A
:100CF00021D05B46002B00D169E1584601F096FAFD
:100D00000B235B429C460200844466461D239B1BCA
:100D1000260011005846DE4008398840330003435E
:100D2000994623008B409846254B00249B1A9A46EF
:100D30000023039353E7002398469A460133042483
:100D400003934CE701231C43002301219B4664E7E6
:100D50000323320003211C435FE79A460323D9464D
:100D60000C2403933BE700238024984600260F4B76
:100D7000240379E780245B4624031C4324032E00CC
:100D800090460A4B240B6FE780244B4624032342F2
:100D900002D05B462342F0D080244B4624031C4300
:100DA0002403029E014B240B5EE7C046FF070000B0
:100DB00001FCFFFF9C54000801F8FFFFF303000053
:100DC0000DFCFFFFCB4500D2F8E000D1F3E001239A
:100DD0005B429C46444648460025E2445B46170E6B
:100DE0001B021F43190C3B04120200971F0C914673
:100DF00002910397FFF718FA02007A430B04210CC3
:100E0000804619438A4209D9009F0123BC465B42B0
:100E100061449C46E0448F4200D85CE1881A029904
:100E2000FFF702FA039A240442430904240C030046
:100E30000C43A24206D90099013B8C466444A1426E
:100E400000D842E1A01A424612041A4393464B4688
:100E500059461B0C1F0004930B0449460904090C56
:100E60000C001B0C5C43120C7B43884651437A43B5
:100E7000270CBC465B186344994203D98021490280
:100E80008C466244190C24041B04240C8A181C1977
:100E9000904202D316D1A54214D25B46009F013B7B
:100EA0004D4405934D459B41BC465B426344C0188D
:100EB000874200D302E1824200D929E100D124E136
:100EC000059B9B462C1BA542AD41009B801A6D42A1
:100ED000401B834200D10FE10299FFF7A5F9039A65
:100EE0000B044243210C050019438A4200D9CBE090
:100EF000881A0299FFF798F9039A240442430904D7
:100F0000240C03000C43A24200D9CAE04146A41AB3
:100F10002A041A43049F13041B0C594340467B4385
:100F20009C46150C68430B0C844463447D439842F3
:100F300003D98020400284466544180C09041B0430
:100F4000090C40195B18844227D323D001233500B4
:100F50001A43944B5344002B60DD510700D086E0C8
:100F60002E00D1085A46D20106D55A468E4B1A4059
:100F700080239346DB0053448C4A934200DD80E695
:100F80005A4652070A4390465A465B055402240BC0
:100F90005B0D69E63500002BDBD0009D511EAC4691
:100FA0006444AC4200D29EE0844200D2E1E000D131
:100FB000EEE00A00CAE7424500D908E74B46DC07E5
:100FC000580843465B081C434346DD0706E701F02B
:100FD0002DF915239C4684440200634620321C2BC5
:100FE00000DC92E6230008388340994600239846A7
:100FF0009AE601F01BF902000300153220331C2A87
:1010000000DC5FE600990838814000228B4666E6E6
:1010100000222E0000249046654B25E62E0001217B
:10102000C91A382900DD1BE61F297EDC614814003F
:1010300050445B4682408340CC40501E8241234353
:101040001A435B46CB40510709D00F2111400429B8
:1010500005D0111D9142924152429B180A0019027B
:1010600000D49BE00022012300249046FCE50F21E0
:101070001140042900D173E7111D9142924152425F
:101080002E00C90893446DE7009B013D9C466144D6
:101090008B4200D92CE78A4200D829E7851E61449B
:1010A00026E70099013B8C466444A14200D92DE714
:1010B000A24200D82AE7831E644427E7874200D073
:1010C000FEE6A94500D9FBE6F5E6A24200D8B9E65E
:1010D000831E6444B6E68A4200D89FE6BC46831E5F
:1010E000984661449AE60A00844200D02EE74B45B8
:1010F00000D02BE735002CE72A4B2F4A534492456A
:1011000043DB0122002193442CE7AC4200D8D7E610
:1011100002235B429C4600994D444D459B41E3446C
:101120008C465B426344C018CCE61F204042C31A81
:101130005846D840202904D05946204B5344994062
:101140000A43531E9A410723190002430024114009
:10115000134209D008331340042B1DD0131D9342B2
:1011600089411A0049424907D2080A4390460023A0
:101170007AE54946009F4D004D458941BC464942AC
:101180006144A946023A6418AEE70122524246E79A
:101190009945EED30A00AAE70021E5E759075B026B
:1011A0001C0BE1E7FF030000FFFFFFFEFE0700004E
:1011B000FF0700001E04000002FCFFFF3E040000C9
:1011C000F0B55746DE464E464546E0B50D000400F4
:1011D000E80F83460903D80F090B824619488C464D
:1011E0001F0369005E00490D3F0B760D814218D048
:1011F00086420FD00120B1420DD1BC450BD19442A3
:1012000009D1D3451CD0002905D160462043431E97
:10121000984100E00120F0BCBB46B246A946A0467A
:10122000F0BD01208E42F6D1614639430F001743CD
:101230002743F0D15B465246981A431E9841EAE78D
:101240000020E8E7FF070000F0B557464E46454648
:10125000DE46E0B50D000E034900490D8A46DF0F5A
:10126000E90FBC4683B02F4F04008046019158001F
:1012700019039146360B090B400DBA451DD0B842F3
:101280000DD05746002F2AD13443002824D10A43D9
:1012900036D0002C41D163465800013815E0114387
:1012A00038D15346002B01D12643F4D0019B63452E
:1012B00007D1019B5800013807E026432AD1504549
:1012C00021D00120019B5F42384303B0F0BCBB46F4
:1012D000B246A946A046F0BD002CDCD0E6E70028C7
:1012E000EFD0019B6345ECD18245EADCE1DB8E4225
:1012F000E7D8DED1C845E4D80020C845E5D2D8E714
:10130000002CE2D0DDE7114304D1019B6345D8D125
:101310000020DAE702204042D7E7019B6345E6D090
:10132000CFE7C046FF070000F0B557464E4645469A
:10133000DE46E0B50D000E034900490D8A46DF0F79
:10134000E90FBC4683B02E4F04008046019158003F
:1013500019039146360B090B400DBA451ED0B84211
:101360000DD05746002F27D13443002833D10A43EC
:1013700034D0002C40D163465800013815E01143A9
:1013800012D15346002B01D12643F4D0019B634573
:101390001DD00120019B5F42384306E0264303D164
:1013A0005045F6D111431CD0022003B0F0BCBB461F
:1013B000B246A946A046F0BD0028EAD0019B63458D
:1013C000E7D18245E5DC02DB8E42E2D80ED0019BFC
:1013D00058000138E9E7002CCDD0D7E7002CE4D045
:1013E000D7E7019B00206345DFD0D2E7C845D0D8BE
:1013F0000020C845D9D2EAE7019B6345E4D0C8E79D
:10140000FF070000F0B557464E46DE464546E0B5BC
:101410001F000B031B0B16009A46CA0F4B0004005B
:10142000914685B05B0D00D1CFE1CD4A934255D0B6
:101430005146420FC9000A43802109041143C200EA
:101440009046C84A8A4693469B440023002502934F
:101450003C037B00FA0F0196240B5B0D009200D138
:1014600088E1BF4A934200D192E0BE4A9446634469
:101470009B440A2D42DCE400730F23438024494639
:1014800024041C43F3000193009B00205940CBB27D
:101490000393022D00DC94E00123AB401D00A62342
:1014A0002A00DB001A401D4200D029E290239B0055
:1014B0001D4200D14DE20023802499462403A84B0D
:1014C00010004A461B052343D2071343190005B0F9
:1014D000F0BCBB46B246A946A046F0BD5246024308
:1014E000904600D0ACE19B46022392460825029329
:1014F000AEE7009BA2469946019B9846029B022BB1
:1015000000D1CAE1032B00D192E1012B10D10023BD
:1015100000240022D4E701227B083A4013435246BC
:10152000D2071343984653465B089A46039B994655
:101530005B46581C8023DB005B44002B00DCB1E1E0
:10154000424652070BD00F2241460A40042A06D0D9
:101550004246111D414592418846524292445246AC
:10156000D20106D55246804B1A4080239246DB00BA
:10157000C3187E4A934200DD8FE14246D1085246AD
:1015800052070A4351465B054C02240B5B0D97E75B
:10159000734B26439C46E344002E00D16FE10323A6
:1015A00049461D43009B5940CBB203930A2D00DDF1
:1015B00033E10123AB401D000323029388222A421A
:1015C00097D1424643461204120C160001981D0C96
:1015D000030C0004000C4643B4461E006E43009604
:1015E000160007005E436146B0466F430E0CB844D8
:1015F0004644B74205D9802149028846009F4744A6
:10160000009761460904090C370C36048C463100FA
:10161000614401911100260C2404240C61438C4682
:101620002100694389466146090C884672434A4451
:1016300042447543914503D9802149028846454477
:10164000110C884661460904090C8C461204624458
:10165000B91802915146090C8C4651460F043F0CB3
:101660003900414345448846614641438A464146E4
:101670006046090C894658437B4353444B449A4582
:1016800003D98021490289464844190C89464146BC
:101690000904090C8846390061431B044344884609
:1016A00061464C4371438C46414677430E0C3F19CB
:1016B000F6194844B44203D9802149028946CC44F2
:1016C0000299009F894631044F448946414697421A
:1016D00092410C04240C4C44FF1852426419A11886
:1016E0009F429B41884682465B4299469045924183
:1016F000AC42A441C244D14452426442144399458D
:101700009B41824592415B42524213434A46360C0A
:10171000A419E31863445B02D20D1A43019992465F
:101720007A020A43501E8241FF0D17434A46520275
:101730001743B846DB0100D5EDE60D4B039A5B4439
:101740009146002B00DCACE03A00520700D110E7D4
:101750000F2258463A40042A00D0F9E609E7C0466D
:10176000FF07000001FCFFFFFFFFFFFEFE07000078
:10177000FF030000220032436FD0002C00D1C2E0F2
:10178000200000F053FD020003000B3A1D20821AD6
:1017900030001900D04008398C4002002243340048
:1017A0008C405946CB1A86498B469B440A2D00DD56
:1017B000A4E64946009B01945940CBB21400002096
:1017C0000393022D00DD67E6FBE65346034398468C
:1017D0003CD05346002B00D1A3E0504600F026FD3C
:1017E0000B235B429C46020084441100504608399A
:1017F00088401D23804660461B1A2000D840030005
:10180000404603439A4623008B4098466C4B002584
:101810009B1A9B46002302931AE60F2D00D0C9E0C5
:10182000802352461B031A4202D01C4200D192E090
:101830008024534624031C4324034246240B3EE6E3
:101840009B46032380460C25029301E600239A461B
:101850009B46013304250293FAE501210D430A2D2D
:1018600000DD4BE6494600984140C9B20391022D84
:1018700000DC96E000230024012001930CE6494699
:101880000223009A2B435140CAB203920A2B00DD77
:1018900034E6002D57D1039B994600240022494B82
:1018A0000EE658460121C91A382900DD2FE61F2906
:1018B00056DD1F2254465242D31ADC40202907D05D
:1018C000414B42469C465346604483401A439046EF
:1018D00042460721531E9A410B0022431340002425
:1018E000114209D00F231340042B5DD0111D9142EA
:1018F0009B410A005B425B07D2081A430023DFE5E5
:10190000039B9946FAE5019800F090FC0200030061
:10191000153220331C2A00DC38E7019A083882404F
:101920003FE700F083FC15239C4684440200634695
:1019300020321C2B00DC58E700239846230008388F
:1019400083409A4662E71D00002300240220019391
:10195000A2E5029032E61C43009B019A9946AEE54F
:101960001A4B5246C31840469A40C840024340466C
:1019700098400300581E834154461A43CC405307F5
:1019800009D00F231340042B05D0131D934292411D
:101990005242A4181A00230208D501230024002271
:1019A0008EE5894600248BE50023A5E763076402E2
:1019B000240BA1E7009BA2469946019B984637E776
:1019C0000DFCFFFFFF0700003E0400001E040000A6
:1019D000F0B557464E464546DE46E0B583B000902A
:1019E00001910C034D00CE0F610A009C5F00640F53
:1019F0000C43009900920193C80019037B0D99468E
:101A0000019BCC4FDB0F9C464B0A00998046490F47
:101A10001943009B8B46DA0092466D0DB94500D103
:101A2000BFE00123614659404B468C46EB1A8E427B
:101A300075D0002B00DCA3E24946002900D1CEE09E
:101A4000BD4200D100E20127382B19DC802759461E
:101A50003F0439438B461F2B00DDFAE12027F91A9A
:101A60008C4659466746B9400F001100D9400F43D4
:101A700061468A40511E8A415946D9401743641A2B
:101A8000C71BB84280414042241A230200D440E1DF
:101A90006402640A002C00D154E1200000F0C6FB6F
:101AA0000300083B20213800CA1AD0409C400200A5
:101AB0009F4022439D4200DDA6E1581B0130091AD8
:101AC0003C008F40C4407B1E9F4113008B40274346
:101AD0001F43C2403B0014000025134300D1F7E12F
:101AE0007B0700D177E30F2338003B40042B04D061
:101AF000381DB842BF417F42E419230200D468E395
:101B00008C4B01359D4200D1F4E08B4B6D051C40A0
:101B10006D0D6707C00864020743240BECE0002B3F
:101B200000DC29E34946002900D0D6E0594611439C
:101B300000D12EE1591E012B00D1E6E1BB4200D1BC
:101B400082E101270B00382914DC1F2B00DD3CE269
:101B50002027F91A8C4659466746B9400F001100F4
:101B6000D9400F4361468A40511E8A415946D940A7
:101B7000174364183F1887428041404224182302CB
:101B800000D4C6E06B4B01359D4200D1B2E001218B
:101B9000694B7A081C4039400A43E7071743640839
:101BA0009EE7664B11438A46EB18002928D066450C
:101BB0002CD0002B5BD0002D00D12CE15B4666467B
:101BC0005F07D2081743DD083B002B4300D1E2E05A
:101BD000802424032C432403564D240B8CE05946C7
:101BE000114300D1D5E0591E012B00D1B9E1BB4210
:101BF00000D1B1E101270B00382900DD40E72AE7D9
:101C00006146012779408C466645D2D1002B00D130
:101C1000C5E0002D00D055E14B462500054300D11D
:101C200012E2591E8C46012B00D149E2414DAB42D4
:101C300000D18FE20127382911DC63461F2B00DD1C
:101C40005BE26146202327005B1A050098409F4015
:101C5000CD40431E9841CC402F430743A344BF18B7
:101C60009742924152425A4414004D4687E7344FFE
:101C70006B1C3B4200D0B6E05946230011430F00D5
:101C80000343002D00D026E1002B00D1C0E1002944
:101C900000D1A1E0831A98465B464045AD41E31A66
:101CA0006D425B1B80252D042B4200D14BE15B462E
:101CB000101A824292411C1B0700012663465242C1
:101CC000A41A27431E40002F00D142E12C4200D12C
:101CD0006DE2194B01251C401BE7BD4200D13BE1E1
:101CE0000127382B00DD45E7802759463F0439435B
:101CF0008B462AE7002400272D052543F6073543A8
:101D00003800290003B0F0BCBB46B246A946A04645
:101D1000F0BD7B0704D00F233B40042B00D0E7E647
:101D20002B00F808034A67070743E508934200D1F0
:101D30004AE7A5E0FF070000FFFF7FFF01F8FFFF74
:101D4000FE070000380000F071FA030018331F2B63
:101D500000DCA7E63A00083882409D4200DD8AE0B8
:101D60005B1B581C1F2800DCD8E117001F3BDF401D
:101D7000202805D040231B1A9A40531E9A4117432E
:101D80000025002F00D1E5E07B0700D0ABE62C005A
:101D9000C6E7C008C6E700270024D14DACE7D14F05
:101DA0006B1C3B4271D123000343002D00D04EE158
:101DB0005746002B00D1B5E1002F0DD08318834288
:101DC00080415C4440422418220200D5C8E11F0033
:101DD0009846274300D1BCE043466707DB081F4312
:101DE000E50800234CE0831A98465B464045BF4116
:101DF000E31A7F42DB1B1F027CD447461F4300D1FE
:101E0000A6E01C00474645E6B74CED1A14407B0798
:101E100000D080E784E74B462500054366D05F1E6F
:101E2000012B00D1FCE0AE4DAB4200D15EE1664635
:101E3000382F00DCB4E00120171ABA4292415B4609
:101E400052424D469C1A20E66707C0080743E50842
:101E5000BAE61F005946203FF9400F00202B05D05D
:101E60004021CB1A594699400A43924653465A1E7E
:101E700093411F4304E6EB1A9B4D15406F07ED0895
:101E80002C035D05240B6D0D36E7954DAB4200D15B
:101E9000D6E082182100824280415944404208180D
:101EA000C707520817434408520700D485E10F22A0
:101EB0001D003A40042A00D01AE6FF0864072743B1
:101EC0000509DDE75B46D2085F071743DD087BE6BF
:101ED0000027002410E7002B00D0D6E0002900D016
:101EE0002FE1802400267E4D240305E766465C46EC
:101EF000D00817E75B46171ABA4292411C1B01260D
:101F000063465242A41A1E40C4E5831883428041AE
:101F10005C44404225182A0200D4DAE0724A5B0889
:101F20001540EA071A4369085B0700D44AE10F230A
:101F30001340042B00D1FCE0171D9742A4416442DA
:101F400002256418ECE647461C001F4300D043E717
:101F5000002600250024CFE6C00867070743E508F0
:101F600032E6871A5B46B8428041E41A4042241A9E
:101F7000230228D46307FF081F43E50801237FE7F6
:101F8000002B00D173E64B465F1B3B00002D00D1B8
:101F900042E7382F00DDECE080230E001B041C43D9
:101FA0001F2F25DC20252300ED1B0100A840AB409E
:101FB000F940451EA8410B43FC4018435B461B1BE0
:101FC0009B4639E76646012562E51F005946203FDA
:101FD000F9408C46202B05D040275946FB1A9940E2
:101FE0000A43924657467B1E9F4163461F43C1E505
:101FF0003B002500203BDD40202F04D04023DB1B8D
:102000009C40204380464046431E9841284313E7A6
:1020100000299DD0012663465C4690461E40DBE6C3
:10202000171A5B46BA4292411C1B5242A41A230261
:10203000C8D46307FF081F4366460123E5081FE76E
:102040001D000024002757E65C46D0086AE6002BF6
:1020500000D137E75346C00867070743E508002B60
:1020600000D1B1E580231B031D4208D05946C808A2
:10207000184204D1D20849070A43170005007B0F14
:10208000FF00FF085B071F439EE5C0086307184376
:10209000E508002953D080231B031D420AD059466E
:1020A000CC081C4206D1012663462500D00849070A
:1020B00008431E40470FC000C0087F07074383E561
:1020C0008318934292415C445242A5182A0200D5DB
:1020D00024E76F07DB081F43ED080123D0E6C04665
:1020E000FF070000FE070000FFFF7FFF5B46D208EE
:1020F0005F0766461743DD0866E52500203BDD40A7
:102100006346202B05D0402361465B1A9C40204348
:10211000804647467B1E9F412F43A0E52021002794
:10212000091AD2E4002F00D113E75C4617000025FE
:10213000F6E5D708490702230F432D09A0E607005B
:1021400042E55B4601265F07DD086346D208174378
:102150001E4039E55B46D2085F071743DD0833E5CB
:102160001E4ADB0822405707520201251F43140B69
:10217000C2E50E0001205FE6002B0DD04B465B1B35
:102180009C46002D00D148E50127382B00DD66E58F
:1021900080231B041C4350E56B1C114D2B4200D0C7
:1021A00073E65946230011438A46034300E6670756
:1021B000C00800230743E50862E66407FF082743D9
:1021C00005095DE6D208490711430F0002232D09D6
:1021D00056E60700A4E538008FE4C046FFFF7FFF06
:1021E000FE07000010B5041E10D000F01FF80E4BC3
:1021F0001B1A5B055B0D0A280FDC0B222100121A4B
:10220000D14015300A038440120B01E00023002264
:102210001B0513432000190010BD22000B3882401B
:1022200012030024120BF3E71E0400001C210123FB
:102230001B04984201D3000C10391B0A984201D3A9
:10224000000A08391B09984201D30009043902A287
:10225000105C40187047C0460403020201010101EE
:10226000000000000000000070B500220C4B0400CC
:102270000D00FEF713F8002804D12000290000F01B
:10228000FDF870BD064B002220002900FFF7A0FBDF
:1022900000F0F4F880231B069C466044F1E7C0463A
:1022A0000000E041F0B54F464646D646C0B50600B0
:1022B0000F001000190082B0002F5DDB34003D00DC
:1022C000002B0BDB16001F00AB4217D900200021AA
:1022D00002B0E0BCBA46B146A846F0BD002746426F
:1022E0008F41AF42F2D800D1A0E001235B42994672
:1022F00009E0002746428F41AF42E7D8AF4200D104
:1023000090E0002399463900300000F0F3F8804651
:102310002900200000F0EEF843461B1A9846203BA7
:1023200075D4310099409A460B00310040468140F7
:102330000A00AB422ED82BD05146A41A9D41002949
:1023400000DA90E000210020012600900191514622
:102350008E400196414601268E4041460096002956
:102360001FD1009801994B46002BB1D003000C00FF
:1023700000215842A141ABE700257442BD41002B2A
:10238000B7DB16001F00AB42A0D8AF42ADD14DE085
:10239000A142D1D90021002000900191414600299D
:1023A000DFD0D90756085F080E4343460EE0AF4220
:1023B00001D1A6420CD8A41BBD41012124196D41B5
:1023C0000022013B64185541002B06D0AF42EED9E4
:1023D000013B24196D41002BF8D1009A019B514615
:1023E00012196B41002925DB2E002C00CE404146FE
:1023F000CC40514600292DDB34008C40210044465E
:10240000A6403000121A8B4100920193A9E7424680
:1024100038009A462023310090409B1AD94003008F
:102420000B4382E7A64200D950E76AE7A64200D8EC
:102430005BE74BE740462021091A28008840260028
:1024400001004046C6402C000E434146CC40514658
:102450000029D1DA4046202135008440091ACD40B8
:1024600021002943CBE7414620260127761A002088
:102470000021F7400090019101976BE70B000200EB
:1024800070B5164D0C0382B04900002000920193F4
:10249000240B490DDE0FA94204DD1148814203DD02
:1024A000104BF01802B070BD8020400320430E4C4A
:1024B000641A1F2C08DD0D4B5B1AD84003005842EC
:1024C000002EEFD11800EDE7094B009A9C4603005F
:1024D00061448B40E2401343F1E7C046FE03000035
:1024E0001D040000FFFFFF7F330400001304000001
:1024F000EDFBFFFF10B5002903D1FFF797FE203059
:1025000002E00800FFF792FE10BDC046F0B59DB096
:1025100002AF01F023FE00F0EFF900F037FAD74BDD
:1025200000221A60D649002200230A604B60D54978
:10253000002200230A604B60D34B00221A60D24B6A
:102540001B685A1CD04B1A60D04B1B685A1CCF4BCF
:102550001A6001F05DFE0300FB64CD4B01220121F6
:10256000180001F029FD00237B66A9E02A203B1812
:10257000C84A796E49008A5A1A8028257B19C64AAA
:10258000796E49008A5A1A8004003B181A88C34B96
:102590001A607B191A88C24B1A6001F039FE0300D9
:1025A0007B623B191B88802B03D87B191B88802BEF
:1025B0000CD964222823FB1819882A23FB181B88AE
:1025C000180000F039FB03003B660BE0642228236F
:1025D000FB1819882A23FB181B88180000F02CFA16
:1025E00003003B6601F014FE03003B623A6A7B6A1B
:1025F000D31AFB61FB69180000F0D4FC0300BB6137
:10260000F869FFF7EFFD0022A64BFEF7C1FA0200C2
:102610000B003A617B612A23FB181B881800FFF727
:10262000E1FD04000D002823FB181B881800FFF7AC
:10263000D9FD02000B0020002900FEF7E3FE020096
:102640000B00BA60FB603A697B69B868F968FEF70D
:102650009FFA02000B003A607B60934BBA691A60E4
:10266000924B3A6E1A60F869FFF7BCFD02000B004E
:102670008F490A604B608F493A687B680A604B60FB
:102680008D4B7A6E9200396ED150F869FFF7AAFD32
:1026900002000B008948796EC90041180A604B603E
:1026A000874B7A6E9200B969D150864A7B6EDB0007
:1026B000D1183A687B680A604B607B6E01337B6699
:1026C00005227B6E934200D250E701F0A1FD03008A
:1026D000BB64BA6CFB6CD31A7B64786CFFF782FD29
:1026E00002000B0066490A604B6066490022002325
:1026F0000A604B600023FB6512E0704AFB6DDB0053
:10270000D318186859685F4B1A685B68FDF77AFE42
:1027100002000B005B490A604B60FB6D0133FB65F7
:102720000522FB6D9342E8D3544B7A6C1A60664BDA
:10273000180001F091FF0023BB656FE0634BBA6D99
:102740009200D3583B64624B3A6C1A60614BBA6D8D
:102750001A60614BBA6D9200D1583A6C5F4B180009
:1027600001F014FF00237B6551E03E257B19494AA7
:10277000796D49008A5A1A803C26BB19464A796D00
:1027800049008A5A1A8001F043FD0300BB636424A8
:102790003A6CBB1919887B1918881300220000F0C5
:1027A00067FC03007B6301F033FD03003B633A6B7E
:1027B000BB6BD31AFB624A49BA6D13009B009B188E
:1027C0007A6D9B189B007A6B5A50F86AFFF70AFDE6
:1027D000444CBA6D13009B009B187A6D9B18DB006C
:1027E000E318186059607B191988BB191C883E4B87
:1027F000BA6D9200D358FA6A3C4801937B6B009300
:102800001300220001F0C2FE7B6D01337B650522BF
:102810007B6D9342A9D3BB6D0133BB650322BB6DB6
:1028200093428BD3324B180001F016FF00233B6517
:102830000EE0294B3A6D9200D1582B4B3A6D920025
:10284000D2582C4B180001F0A1FE3B6D01333B65C3
:1028500003223B6D9342ECD30D4B01220221180061
:1028600001F0AAFBFA23DB00180001F0DBFC084BA7
:1028700000220321180001F09FFB60E69400002075
:1028800098000020A0000020A8000020AC0000203C
:1028900000040048E8540008F45400087C010020BB
:1028A0008001002000408F4084010020880100202A
:1028B0009001002098010020A0010020B801002014
:1028C000E0010020F8010020B4530008DC540008A7
:1028D000740100207801002000000020E853000867
:1028E000B0000020F0000020680100201054000813
:1028F000485400087054000890B591B000AF1024FF
:102900003B19180030231A00002101F09BFF3B0007
:10291000180010231A00002101F094FF21007B18F9
:1029200002221A607B180122DA607B1810221A61D9
:102930007B1802221A627B1800225A627B18A0229E
:1029400092039A627B180022DA627B18180000F06A
:1029500085FD031E01D000F03DFD3B0007221A60FB
:102960003B0002225A603B0000229A603B0000229A
:10297000DA603B000121180001F08AF8031E01D043
:1029800000F028FDC046BD4611B090BD90B589B09D
:1029900000AF0C243B19180014231A00002101F089
:1029A00051FF234B5A69224B8021C9030A435A61C4
:1029B0001F4B5A698023DB031340BB60BB681C4B71
:1029C0005A691B4B8021C9020A435A61184B5A6944
:1029D0008023DB0213407B607B68154B5A69144BE4
:1029E000802189020A435A61114B5A6980239B0254
:1029F00013403B603B680F4B0022FF21180001F0A1
:102A0000DBFA21007B18FF221A607B1801225A6032
:102A10007B1800229A607B180022DA607B18054A36
:102A20001900100001F058F9C046BD4609B090BD2C
:102A30000010024000040048B0B590B000AF3A600A
:102A4000BB1D021C1A803B1D0A1C1A800023FB635D
:102A50003A23FB1800221A80D8E03A23FB181B887F
:102A60001800FFF7BFFB04000D003B1D1B8818007A
:102A7000FFF7B8FB02000B0020002900FEF788F8E2
:102A800002000B001000190002000B00FDF7BAFC59
:102A900002000B00100019000022634BFEF798FFA4
:102AA00002000B00BA61FB613823FB1800221A8078
:102AB0009EE03823FB181B881800FFF793FB0400E7
:102AC0000D00BB1D1B881800FFF78CFB02000B00DC
:102AD00020002900FEF75CF802000B00100019002E
:102AE0000022524BFEF78EFC02000B001000190072
:102AF00000224F4BFEF76CFF02000B003A617B6136
:102B0000002200233A637B6300220023BA62FB6247
:102B100000237B623EE03A6B7B6B386B796BFEF790
:102B200071FC02000B0014001D00BA6AFB6AB86A4F
:102B3000F96AFEF767FC02000B0020002900FEF78F
:102B400047FF02000B0038697969FDF75BFC020062
:102B50000B00BA60FB60386B796B02000B00FDF76D
:102B600051FC02000B0010001900BA6AFB6AFEF764
:102B700049FC02000B00B869F969FDF743FC02004B
:102B80000B00BA62FB62BA68FB683A637B637B6ADC
:102B900001337B627A6A3B689A421FD23A6B7B6B45
:102BA000386B796BFEF72EFC02000B0014001D0041
:102BB000BA6AFB6AB86AF96AFEF724FC02000B00E5
:102BC00020002900FDF71EFC02000B001000190078
:102BD0000022184BFDF74EFB031E9CD1FA6B7B6A5B
:102BE000D318FB633822BB18BA18128801321A8036
:102BF0003823FA18BB1D12881B889A4200D258E766
:102C00003A22BB18BA18128801321A803A23FA18ED
:102C10003B1D12881B889A4200D21EE7FB6B1800EE
:102C2000BD4610B0B0BDC0460000F03F00000C40F3
:102C30000000044000001040B0B59AB000AF3A6008
:102C4000BB1D021C1A803B1D0A1C1A8000237B66D8
:102C5000BB1D1B887F33002B00DA7F33DB113B6405
:102C60003B1D1B887F33002B00DA7F33DB11FB63B6
:102C70003B6CFA6B5343BB63B94B3A6C1A60B94B6C
:102C8000FA6B1A60B84BBA6B1A60FC6B3A6C3B1D5E
:102C90001988BB1D1888230000F072F900233B66D9
:102CA00053E10023FB6548E13B6E3A6C5A43FB6DF0
:102CB000D3185A1CAD4B1A60FB6D9AB236217B18A3
:102CC000D2011A803B6E9AB23423FB18D2011A80CB
:102CD0007B181B887F331A00BB1D1B889A4204DABD
:102CE0007B181B8880339BB201E0BB1D1B883222FE
:102CF000BA18138034217B181B887F331A003B1DC0
:102D00001B889A4204DA7B181B8880339BB201E04F
:102D10003B1D1B8830203A1813802E23FB183222CB
:102D2000B9183622BA18098812888A1A1A802C23F0
:102D3000FB1839183422BA18098812888A1A1A809E
:102D40005A23FB1800221A80EBE02A203B18342279
:102D5000B9185A22BA18098812888A181A803B189A
:102D60001B881800FFF73EFA04000D003B1D1B886E
:102D70001800FFF737FA02000B0020002900FDF7CA
:102D800007FF02000B001000190002000B00FDF706
:102D900039FB02000B00100019000022744BFEF7F3
:102DA00017FE02000B003A627B625823FB180022D8
:102DB0001A80A7E01E203B183622B9185822BA18EC
:102DC000098812888A181A803B181B881800FFF798
:102DD00009FA04000D00BB1D1B881800FFF702FA5A
:102DE00002000B0020002900FDF7D2FE02000B00BC
:102DF0001000190000225F4BFEF704FB02000B00DD
:102E00001000190000225C4BFEF7E2FD02000B00EF
:102E10003A617B61002200233A657B650022002332
:102E2000BA64FB6400237B643EE03A6D7B6D386DD1
:102E3000796DFEF7E7FA02000B0014001D00BA6C72
:102E4000FB6CB86CF96CFEF7DDFA02000B00200099
:102E50002900FEF7BDFD02000B0038697969FDF716
:102E6000D1FA02000B00BA60FB60386D796D020088
:102E70000B00FDF7C7FA02000B0010001900BA6C36
:102E8000FB6CFEF7BFFA02000B00386A796AFDF7A7
:102E9000B9FA02000B00BA64FB64BA68FB683A65D1
:102EA0007B657B6C01337B647A6C3B689A421FD2F2
:102EB0003A6D7B6D386D796DFEF7A4FA02000B0058
:102EC00014001D00BA6CFB6CB86CF96CFEF79AFA32
:102ED00002000B0020002900FDF794FA02000B000D
:102EE000100019000022254BFDF7C4F9031E9CD1E8
:102EF0007A6E7B6CD3187B665822BB18BA1812887E
:102F000001321A805823FA182E23FB1812881B88C6
:102F10009A4200D24EE75A22BB18BA1812880132E0
:102F20001A805A23FA182C23FB1812881B889A42FD
:102F300000D20AE7FB6D0133FB65FA6D3B6C9A42E8
:102F400000D2B1E63B6E01333B663A6EFB6B9A42B0
:102F500000D2A6E67B6E1800BD461AB0B0BDC046D2
:102F60002002002024020020280200202C02002041
:102F70000000F03F00000C40000004400000104042
:102F800080B584B000AFBA607B600E23FB18021CD2
:102F90001A800C23FB180A1C1A80C046BD4604B0D8
:102FA00080BD000080B582B000AF7860074B1B6821
:102FB000FA2291001800FDF7B1F803001A007B68AF
:102FC00053431800BD4602B080BDC0461400002027
:102FD000B0B586B000AFB860F9603A607B603A681F
:102FE0007B68B868F968FDF787F902000B001000EC
:102FF0001900BB6A1C0000231D0022002B00FDF7F6
:1030000057F902000B003A617B613A697B69100055
:103010001900BD4606B0B0BD80B584B000AFB86041
:10302000F9603A607B60B868F9683A687B681218A2
:103030004B4110001900BD4604B080BD80B584B07E
:1030400000AFB860F9607A607868FFF7CBF8BA68CB
:10305000FB68FEF7D7F902000B0010001900FDF71E
:1030600079F902000B0010001900BD4604B080BDC4
:10307000F0B5A9B002AFBA617B610E2310241B1911
:10308000DB19021C1A800C231B19DB190A1C1A807D
:10309000002384221219D2191360002380221219EE
:1030A000D21913607B6900208021C9051A00FFF73F
:1030B000C5FF02000B00BA66FB667B690020BD49B4
:1030C0001A00FFF7BBFF02000B003A667B667B69C4
:1030D0000020B9491A00FFF7B1FF02000B00BA65E2
:1030E000FB657B690020B5491A00FFF7A7FF0200C6
:1030F0000B003A657B657E231B19DB1900221A80C1
:103100003AE17E2310269B19DB191B881800FFF774
:1031100069F87B691A00FFF791FFBA6EFB6E7C6954
:103120000094FFF755FF0C239B19DB191B889BB2FA
:10313000BB600023FB60BA68FB68FDF7B9F80200CA
:103140000B0014001D007B6900209D491A00FFF749
:1031500075FF02000B00A41A9D4122002B00BA64E7
:10316000FB647C239B19DB1900221A80F0E07C238E
:1031700010255B19DB191B881800FFF733F87B69F2
:103180001A00FFF75BFFBA6DFB6D7C690094FFF7D7
:103190001FFF0E235B19DB191B889BB23B600023CA
:1031A0007B603A687B68FDF783F802000B00100033
:1031B00019003A6D7B6D801A994102000B003A6448
:1031C0007B6400220023802179180A604B60002272
:1031D0000023BA67FB6700237B67A0E08422BB184B
:1031E0001B68002B2CDCBB181B68002B05D180232F
:1031F000FB181B68734A934222D88422BB181B68B1
:1032000001331DDBBB181B68013305D18023FB187C
:103210001B686D4A934213D3FB6F002B10DCFB6FCE
:10322000002B03D1BB6F674A934209D8FB6F013370
:1032300006DBFB6F01330DD1BB6F634A934209D2AA
:10324000802210215318DB191B6801335218D21940
:1032500013606BE080217B181A685B687918086836
:1032600049687C690094FFF7B3FE02000B00BA6363
:10327000FB63BA6FFB6FB86FF96F7C690094FFF75F
:10328000A7FE02000B003A637B633A6B7B6BB86B63
:10329000F96BFFF7C1FE02000B00BA62FB62FA6A2B
:1032A0007B6E9A4241DCFA6A7B6E9A4203D1BA6A1B
:1032B0003B6E9A4239D83A6B7B6B00200021801A12
:1032C000994102000B00B86BF96BFFF7A5FE3A6C51
:1032D0007B6CFFF7A1FE02000B003A627B62BA6FC3
:1032E000FB6F80257919086849687C690094FFF7AD
:1032F0006FFEBA6EFB6E7C690094FFF769FEBA6CD4
:10330000FB6CFFF789FE02000B00BA67FB673A6AA5
:103310007B6A79190A604B607B6F01337B677A6F38
:10332000BB699A4200D259E700E0C04684211020D0
:103330000B18DB191A687B6FD3180A18D21913609F
:103340007C221318DB191218D219128801321A8044
:103350007C2310215B18DA190E235B18DB19128805
:103360001B889A4200D202E77E225318DB195218BA
:10337000D219128801321A807E2310201B18DA1904
:103380000C231B18DB1912881B889A4200D2B8E65E
:103390000E4B1A680E4B920080210918C919096852
:1033A000D15084231B18DB191B681800BD4627B0B9
:1033B000F0BDC0460000104000000C40000004407A
:1033C0000000F03F40420F00C0BDF0FF7801002038
:1033D0006801002080B500AF72B6C046C046FDE768
:1033E00080B500AFC046FDE780B500AFC046FDE741
:1033F00080B500AFC046BD4680BD80B500AFC046B9
:10340000BD4680BD80B500AF00F0F0FEC046BD46B1
:1034100080BD000080B582B000AF0F4B9A690E4BA3
:1034200001210A439A610C4B9B69012213407B6086
:103430007B68094BDA69084B802149050A43DA6148
:10344000054BDA6980235B0513403B603B68C0464F
:10345000BD4602B080BDC0460010024080B588B0B5
:1034600000AF78607B68002B01D1012301E37B680A
:103470001B680122134000D18DE0C34B5B680C2216
:103480001340042B0ED0C04B5B680C221340082B5A
:1034900016D1BD4B5A6880235B021A4080235B0221
:1034A0009A420DD1B84B1A6880239B02134000D179
:1034B00070E07B685B68002B00D06BE00123D8E2F2
:1034C0007B685B68012B07D1AF4B1A68AE4B80213C
:1034D00049020A431A602FE07B685B68002B0CD11D
:1034E000A94B1A68A84BA9490A401A60A64B1A684A
:1034F000A54BA7490A401A601EE07B685B68052B54
:103500000ED1A14B1A68A04B8021C9020A431A6050
:103510009D4B1A689C4B802149020A431A600BE0BC
:10352000994B1A68984B99490A401A60964B1A6849
:10353000954B97490A401A607B685B68002B14D052
:1035400000F066FE0300BB6108E000F061FE0200CF
:10355000BB69D31A642B01D903238AE28A4B1A6808
:1035600080239B021340F0D015E000F051FE0300D1
:10357000BB6108E000F04CFE0200BB69D31A642B6B
:1035800001D9032375E2804B1A6880239B02134004
:10359000F0D100E0C0467B681B680222134000D1D6
:1035A00069E0794B5B680C2213400BD0764B5B686B
:1035B0000C221340082B1CD1734B5A6880235B02EA
:1035C000134016D1704B1B680222134005D07B6854
:1035D000DB68012B01D001234BE26B4B1B68F82207
:1035E000934319007B681B69DA00674B0A431A6032
:1035F00041E07B68DB68002B24D0634B1A68624B88
:1036000001210A431A6000F003FE0300BB6108E0D9
:1036100000F0FEFD0200BB69D31A022B01D903237F
:1036200027E2594B1B6802221340F1D0564B1B680E
:10363000F822934319007B681B69DA00524B0A4356
:103640001A6018E0504B1A684F4B01218A431A60E8
:1036500000F0DEFD0300BB6108E000F0D9FD0200D0
:10366000BB69D31A022B01D9032302E2464B1B6824
:1036700002221340F1D17B681B680822134036D028
:103680007B68DB69002B19D03F4B5A6A3E4B012106
:103690000A435A6200F0BCFD0300BB6108E000F081
:1036A000B7FD0200BB69D31A022B01D90323E0E165
:1036B000354B5B6A02221340F1D018E0324B5A6A54
:1036C000314B01218A435A6200F0A2FD0300BB6125
:1036D00008E000F09DFD0200BB69D31A022B01D95E
:1036E0000323C6E1284B5B6A02221340F1D17B68B9
:1036F0001B680422134000D1B4E01F203B180022B5
:103700001A70214BDA6980235B05134010D11E4BE0
:10371000DA691D4B802149050A43DA611A4BDA69DF
:1037200080235B051340FB60FB683B1801221A7085
:10373000184B1A6880235B0013401AD1154B1A6886
:10374000144B802149000A431A6000F061FD030018
:10375000BB6108E000F05CFD0200BB69D31A642B7A
:1037600001D9032385E10B4B1A6880235B001340CA
:10377000F0D07B689B68012B0ED1034B1A6A024B79
:1037800001210A431A6235E000100240FFFFFEFFEC
:10379000FFFFFBFF007000407B689B68002B0CD193
:1037A000B64B1A6AB54B01218A431A62B34B1A6AA7
:1037B000B24B04218A431A621CE07B689B68052B8C
:1037C0000CD1AE4B1A6AAD4B04210A431A62AB4BC3
:1037D0001A6AAA4B01210A431A620BE0A74B1A6A24
:1037E000A64B01218A431A62A44B1A6AA34B0421F7
:1037F0008A431A627B689B68002B14D000F008FD96
:103800000300BB6109E000F003FD0200BB69D31AAD
:103810009B4A934201D903232BE1984B1B6A022256
:103820001340F0D013E000F0F3FC0300BB6109E0AB
:1038300000F0EEFC0200BB69D31A914A934201D911
:10384000032316E18D4B1B6A02221340F0D11F2384
:10385000FB181B78012B05D1884BDA69874B894906
:103860000A40DA617B681B681022134063D07B68D2
:103870005B69012B2AD1814B5A6B804B04210A438F
:103880005A637E4B5A6B7D4B01210A435A6300F009
:10389000BFFC0300BB6108E000F0BAFC0200BB699A
:1038A000D31A022B01D90323E3E0744B5B6B022292
:1038B0001340F1D0714B5B6BF822934319007B6886
:1038C0009B69DA006D4B0A435A6334E07B685B699D
:1038D000053311D1694B5A6B684B04218A435A63F3
:1038E000664B5B6BF822934319007B689B69DA0097
:1038F000624B0A435A631EE0604B5A6B5F4B0421D4
:103900000A435A635D4B5A6B5C4B01218A435A63ED
:1039100000F07EFC0300BB6108E000F079FC0200CF
:10392000BB69D31A022B01D90323A2E0534B5B6B73
:1039300002221340F1D17B681B6A002B00D197E073
:103940004E4B5B680C221340082B00D16BE07B6868
:103950001B6A022B4CD1494B1A68484B4A490A4012
:103960001A6000F055FC0300BB6108E000F050FC59
:103970000200BB69D31A022B01D9032379E03F4B24
:103980001A6880239B041340F0D13C4BDB6A0F2262
:10399000934319007B68DA6A384B0A43DA62374B83
:1039A0005B683A4A134019007B689A6A7B685B6AD5
:1039B0001A43324B0A435A60304B1A682F4B80210E
:1039C00049040A431A6000F023FC0300BB6108E0CD
:1039D00000F01EFC0200BB69D31A022B01D903239D
:1039E00047E0264B1A6880239B041340F0D03FE049
:1039F000224B1A68214B24490A401A6000F008FC47
:103A00000300BB6108E000F003FC0200BB69D31AAD
:103A1000022B01D903232CE0184B1A6880239B0446
:103A20001340F0D124E07B681B6A012B01D10123F4
:103A30001FE0124B5B687B61104BDB6A3B617A696C
:103A400080235B021A407B685B6A9A420ED13B6915
:103A50000F221A407B68DB6A9A4207D17A69F02309
:103A60009B031A407B689B6A9A4201D0012300E0C5
:103A700000231800BD4608B080BDC04600100240BB
:103A800088130000FFFFFFEFFFFFFFFEFFFFC2FFF5
:103A900080B584B000AF786039607B68002B01D1BD
:103AA0000123B3E05B4B1B68012213403A689A4242
:103AB00011D9584B1B68012293431900554B3A68A2
:103AC0000A431A60534B1B68012213403A689A421A
:103AD00001D001239AE07B681B680222134015D0B5
:103AE0007B681B680422134006D04B4B5A684A4B34
:103AF000E021C9000A435A60474B5B68F0229343B8
:103B000019007B689A68444B0A435A607B681B68BB
:103B10000122134040D07B685B68012B07D13E4BEC
:103B20001A6880239B02134014D101236EE07B6846
:103B30005B68022B07D1384B1A6880239B04134023
:103B400008D1012362E0344B1B680222134001D1EB
:103B500001235BE0304B5B680322934319007B68D1
:103B60005A682D4B0A435A6000F052FB0300FB6079
:103B700009E000F04DFB0200FB68D31A274A93428C
:103B800001D9032342E0244B5B680C221A407B6876
:103B90005B689B009A42ECD11E4B1B6801221340CC
:103BA0003A689A4211D21B4B1B68012293431900B9
:103BB000184B3A680A431A60164B1B6801221340DF
:103BC0003A689A4201D0012320E07B681B680422F6
:103BD000134009D0104B5B68114A134019007B68F1
:103BE000DA680D4B0A435A6000F020F801000A4BD6
:103BF0005B681B090F2213400A4AD35C0A00DA40B3
:103C0000094B1A60032000F0BDFA00231800BD46DE
:103C100004B080BD00200240001002408813000064
:103C2000FFF8FFFF205500081400002080B586B083
:103C300000AF0023FB600023BB6000237B610023F7
:103C40007B6000233B61204B5B68FB60FB680C22C0
:103C50001340042B02D0082B03D02CE01B4B3B61FC
:103C60002CE0FB689B0C0F221340194AD35C7B604D
:103C7000154BDB6A0F221340164AD35CBB60FA680F
:103C800080235B02134009D0B9681048FCF746FA5C
:103C900003001A007B6853437B6109E079680A00DE
:103CA0005201521A93019B1ADB005B181B027B61C5
:103CB0007B693B6102E0054B3B61C0463B691800F4
:103CC000BD4606B080BDC0460010024000127A001A
:103CD000005500081055000880B586B000AF786028
:103CE000396000237B614FE13B681B6801217A69E1
:103CF00091400A001340FB60FB68002B00D140E1BB
:103D00003B685B6803221340012B05D03B685B686E
:103D100003221340022B30D17B689B683B617B6997
:103D20005B0003229A401300DA433B6913403B6176
:103D30003B68DA687B695B009A4013003A69134379
:103D40003B617B683A699A607B685B683B610122F2
:103D50007B699A401300DA433B6913403B613B683F
:103D60005B681B0901221A407B699A4013003A697B
:103D700013433B617B683A695A603B685B68032286
:103D80001340032B17D07B68DB683B617B695B00CA
:103D900003229A401300DA433B6913403B613B68BE
:103DA0009A687B695B009A4013003A6913433B6150
:103DB0007B683A69DA603B685B6803221340022B38
:103DC00023D17B69DA087B6808329200D3583B61C3
:103DD0007B69072213409B000F229A401300DA43AD
:103DE0003B6913403B613B681A697B6907210B40C3
:103DF0009B009A4013003A6913433B617B69DA08E0
:103E00007B68083292003969D1507B681B683B613E
:103E10007B695B0003229A401300DA433B6913403D
:103E20003B613B685B6803221A407B695B009A40F8
:103E300013003A6913433B617B683A691A603B6837
:103E40005A68C0239B02134000D19AE0544B9A69F0
:103E5000534B01210A439A61514B9B690122134044
:103E6000BB60BB684F4A7B699B0802339B009B5831
:103E70003B617B69032213409B000F229A40130091
:103E8000DA433B6913403B617A689023DB059A4231
:103E900013D07B68444A93420DD07B68434A9342D7
:103EA00007D07B68424A934201D1032306E00523F1
:103EB00004E0022302E0012300E000237A690321E9
:103EC0000A40920093403A6913433B6135497B694C
:103ED0009B0802339B003A695A50364B9B683B6102
:103EE000FB68DA433B6913403B613B685A688023B7
:103EF0005B03134003D03A69FB6813433B612D4BCE
:103F00003A699A602B4BDB683B61FB68DA433B699B
:103F100013403B613B685A6880239B03134003D0E6
:103F20003A69FB6813433B61224B3A69DA60214BE3
:103F30005B683B61FB68DA433B6913403B613B686C
:103F40005A6880239B02134003D03A69FB681343ED
:103F50003B61184B3A695A60164B1B683B61FB6822
:103F6000DA433B6913403B613B685A6880235B023C
:103F7000134003D03A69FB6813433B610D4B3A6928
:103F80001A607B6901337B613B681A687B69DA40A0
:103F9000131E00D0A8E6C046C046BD4606B080BD90
:103FA00000100240000001400004004800080048E2
:103FB000000C00480004014080B582B000AF78607A
:103FC00008001100BB1C021C1A807B1C0A1C1A7002
:103FD0007B1C1B78002B04D0BB1C1A887B689A6161
:103FE00003E0BB1C1A887B689A62C046BD4602B0DB
:103FF00080BD000090B583B000AF02003960FB1DAA
:104000001A70FB1D1B787F2B28D82F4AFB1D1B78AD
:104010005BB29B08C0339B009B58FA1D12781100BD
:1040200003220A40D200FF2191400A00D2431A40E5
:1040300011003B689B01FF221A40FB1D1B781800F2
:1040400003230340DB009A401F48FB1D1B785BB233
:104050009B080A43C0339B001A5031E01B4AFB1DEA
:104060001B7819000F230B40083B9B0806339B006D
:10407000D31804331B68FA1D1278110003220A407A
:10408000D200FF2191400A00D2431A4011003B6840
:104090009B01FF221A40FB1D1B78180003230340DD
:1040A000DB009A400948FB1D1B781C000F232340AE
:1040B000083B9B080A4306339B00C31804331A606D
:1040C000C046BD4603B090BD00E100E000ED00E059
:1040D00080B582B000AF78607B685A1E80235B0495
:1040E0009A4201D3012310E00A4B7A68013A5A60E0
:1040F00001235B4203211800FFF77CFF054B0022E0
:104100009A60044B07221A6000231800BD4602B0D3
:1041100080BDC04610E000E080B584B000AFB9605B
:104120007A600F217B18021C1A70BA687B181B7802
:104130005BB211001800FFF75DFFC046BD4604B03A
:1041400080BD80B582B000AF78607B681800FFF753
:10415000BFFF03001800BD4602B080BD80B500AFB0
:10416000074B1A68064B10210A431A60032000F01F
:1041700009F8FFF74FF900231800BD4680BDC0467F
:104180000020024090B583B000AF7860144B1C68EB
:10419000144B1B781900FA239800FBF7BFFF0300AC
:1041A00019002000FBF7BAFF03001800FFF7C9FF52
:1041B000031E01D001230FE07B68032B0BD8796825
:1041C00001235B4200221800FFF7A6FF064B7A6826
:1041D0001A60002300E001231800BD4603B090BD23
:1041E00014000020100000200C00002080B500AF5B
:1041F000054B1B781A00054B1B68D218034B1A603D
:10420000C046BD4680BDC0461000002030020020E0
:1042100080B500AF024B1B681800BD4680BDC0468C
:104220003002002080B584B000AF7860FFF7F0FF67
:104230000300BB607B68FB60FB68013305D00A4B61
:104240001B781A00FB689B18FB60C046FFF7E0FF75
:104250000200BB68D31AFA689A42F7D8C046C04633
:10426000BD4604B080BDC0461000002080B500AF40
:10427000C046BD4680BD000080B586B000AF786006
:10428000144A154BD31A7B617B693B61134B1B6846
:10429000002B02D1114B124A1A60104B1A687B682E
:1042A000D3183A699A4207D200F022FB03000C228D
:1042B0001A6001235B4209E0084B1B68FB60074B57
:1042C0001A687B68D218054B1A60FB681800BD4657
:1042D00006B080BD00200020000400003402002051
:1042E0008803002080B586B000AFF860B9607A60BE
:1042F00000237B610AE000E000BF0100BB685A1C9C
:10430000BA60CAB21A707B6901337B617A697B68D3
:104310009A42F0DB7B681800BD4606B080BD80B5D0
:1043200086B000AFF860B9607A6000237B6109E075
:10433000BB685A1CBA601B78180000E000BF7B699C
:1043400001337B617A697B689A42F1DB7B681800F4
:10435000BD4606B080BD80B582B000AF7860012355
:104360005B421800BD4602B080BD80B582B000AF90
:10437000786039603B68802292015A6000231800FF
:10438000BD4602B080BD80B582B000AF7860012329
:104390001800BD4602B080BD80B584B000AFF860A3
:1043A000B9607A6000231800BD4604B080BD0000EB
:1043B0000D488546FFF75AFF0C480D490D4A00236A
:1043C00002E0D458C4500433C4188C42F9D30A4ACA
:1043D0000A4C002301E013600432A242FBD300F038
:1043E0008DFAFEF793F8FEE7002000200000002081
:1043F0007400002074550008780000208403002019
:10440000FEE70000002310B50400036043608360F2
:1044100081814366C281036143618361190008227F
:104420005C3000F00FFA0B4B246263620A4BA3620C
:104430000A4BE3620A4B23630A4B9C4205D00A4BAA
:104440009C4202D0094B9C4203D12000583000F01E
:1044500079FA10BD6D46000895460008CD46000863
:10446000F946000838020020A002002008030020BE
:1044700010B5034A0349044800F06CF810BDC0466B
:1044800018000020D15100082800002041680B4B83
:1044900010B50400994201D000F09AFEA168084BC3
:1044A000994202D0200000F093FEE168054B99424A
:1044B00002D0200000F08CFE10BDC0463802002063
:1044C000A00200200803002010B5094B094A04216E
:1044D0001A6009480022FFF795FF012209210748C9
:1044E000FFF790FF022212210548FFF78BFF10BD56
:1044F000700300207144000838020020A002002050
:104500000803002010B5024800F01DFA10BDC04697
:104510007903002010B5024800F016FA10BDC0461D
:104520007903002010B50400FFF7ECFF236A002B8D
:1045300002D0FFF7EFFF10BD044B2362044B1B6852
:10454000002BF6D1FFF7C0FFF3E7C0468D4400080B
:1045500070030020F7B51400002600900191A568B3
:104560006768013F04D52468002CF8D13000FEBDF7
:10457000AB89012B08D90E22AB5E013304D0290090
:104580000098019B984706436835EAE70FB407B5E2
:10459000054904AB086804CB8168019300F0FAFA7E
:1045A00003B008BC04B0184724000020036A70B5AB
:1045B00005000E008468002B01D1FFF7B3FF636E86
:1045C000DB0705D4A3899B0502D4A06D00F0BBF9DD
:1045D000A3891B0702D52369002B1FD121002800C6
:1045E00000F0D2F8002819D001256D42636EDB0778
:1045F00005D4A3899B0502D4A06D00F0A5F928007D
:1046000070BD0136A360002B04DAA2699A4216DC61
:104610000A2914D023685A1C22601970A3683178C3
:10462000013B0029EDD1A360002B0FDA2200280006
:104630000A3100F067F80130D6D00A25D6E722000B
:10464000280000F05FF80130E8D1CDE723685A1C5C
:1046500022600A221A70F0E710B5034B01001868B7
:10466000FFF7A4FF10BDC0462400002070B50C0069
:104670000E25495F00F014F9002803DB636D1B1859
:10468000636570BDA389024A1340A381F9E7C04660
:10469000FFEFFFFFF8B51F008B8905000C00160027
:1046A000DB0505D50E23C95E0022022300F0E4F8E5
:1046B000A389054A28001340A38132000E23E15E3E
:1046C0003B0000F001F9F8BDFFEFFFFF70B50C00F3
:1046D0000E25495F00F0D0F8A389421C03D1054A9A
:1046E0001340A38170BD802252011343A3816065F2
:1046F000F8E7C046FFEFFFFF10B50E23C95E00F0DC
:10470000A9F810BDF8B506000D001400002804D06B
:10471000036A002B01D1FFF705FFA369A360A389FA
:104720001B0702D52369002B09D12100300000F0BE
:104730002BF8002803D001256D422800F8BD23691D
:104740002068EFB2C01A6369EDB2834205DC210034
:10475000300000F03DFD0028EDD1A3680130013BA1
:10476000A36023685A1C22601F706369834204D0CF
:10477000A389DB07E1D50A2DDFD12100300000F04D
:1047800027FD0028D9D0D6E72D4B70B50500186855
:104790000C00002804D0036A002B01D1FFF7C2FEF1
:1047A0000C22A35E1A0723D4DA0607D409222A6052
:1047B000402201201343A38140423AE05B0713D516
:1047C000616B002908D023004433994202D02800AD
:1047D00000F0BCF8002363632422A3899343A381E0
:1047E00000236360236923600823A2891343A38104
:1047F0002369002B0BD1A0218022A389890092007C
:104800000B40934203D02100280000F037FD0C221A
:10481000A35E01211A000A400B420BD00022A260C5
:1048200062695242A26100202269824201D11A06C5
:10483000BED470BD990700D46269A260F3E7C04698
:104840002400002003008218934200D170471970A1
:104850000133F9E7002370B5064D040008002B6012
:10486000FFF779FD431C03D12B68002B00D0236098
:1048700070BDC0467403002070B50400080011002C
:104880001A000023054D2B60FFF786FD431C03D162
:104890002B68002B00D0236070BDC046740300203D
:1048A00070B50400080011001A000023054D2B60AC
:1048B000FFF718FD431C03D12B68002B00D02360A9
:1048C00070BDC0467403002070B5040008001100DC
:1048D0001A000023054D2B60FFF721FD431C03D177
:1048E0002B68002B00D0236070BDC04674030020ED
:1048F000014B18687047C0462400002070B50026A0
:104900000C4C0D4D641BA410A64209D1002600F0EA
:1049100039FD0A4C0A4D641BA410A64205D170BD96
:10492000B300EB5898470136EEE7B300EB589847D1
:104930000136F2E76C5500086C5500087055000808
:104940006C550008704770477047000070B505004F
:104950000C1E10D0043C2368002B00DAE418280059
:1049600000F0E0F81D4A1368002B05D16360146065
:10497000280000F0DFF870BDA34208D92068211894
:104980008B42F3D119685B6809182160EEE71A00C1
:104990005B68002B01D0A342F9D911685018A042DE
:1049A0000BD120680918501811608342E0D11868B3
:1049B0005B68411811605360DAE7A04202D90C230A
:1049C0002B60D5E7206821188B4203D119685B68FA
:1049D0000918216063605460CAE7C0468003002064
:1049E00070B50F4E0D0031680400002902D100F0AF
:1049F000ABFC30602900200000F0A6FC431C03D172
:104A000001256D42280070BD0323C51C9D43A842AB
:104A1000F8D0291A200000F097FC0130F2D1EFE71E
:104A20007C030020F7B50322CB1C93430833050019
:104A30001F000C2B34D20C27B94233D8280000F0C9
:104A400071F8374E33681C00002C2FD13900280034
:104A5000FFF7C6FF0400431C5FD134680094009B3D
:104A6000002B4AD1002C52D023682800E31800996B
:104A7000019300F069FC019B834248D12368280020
:104A8000FF1A3900FFF7ACFF013040D02368DB1973
:104A9000236033685A68002A33D1009B336019E0E1
:104AA000002BC9DA0C232B600020FEBD2168C91B36
:104AB00020D40B290AD9E2192760A34204D132601D
:104AC00063681160536005E05A60F9E76268A342C9
:104AD0000ED13260280000F02DF8200007220B30A4
:104AE000231D9043C21A9842DFD01B1AA350DCE763
:104AF0005A60EFE723006468A6E7009C63680093B0
:104B0000ADE71A005B68A342FBD10023DAE70C2370
:104B100028002B6000F00EF8C6E70760DAE7C04611
:104B20008003002010B50248FFF70DFF10BDC046FE
:104B30007803002010B50248FFF706FF10BDC046FD
:104B400078030020936810B5013B9360002B04DAD2
:104B50009469A34207DB0A2905D01368581C10602A
:104B60001970080010BDFFF7CDFD0100F9E7F8B599
:104B700006000F001400D518AC4201D1002007E058
:104B800021783A003000FFF7DDFF0134431CF3D1F8
:104B9000F8BD0000F0B5A1B00F0015001E00039095
:104BA000002804D0036A002B01D1FFF7BBFC7B6E09
:104BB000DB0705D4BB899B0502D4B86DFFF7C3FEA4
:104BC000BB891B0702D53B69002B13D13900039821
:104BD000FFF7DAFD00280DD07B6EDB0703D501203F
:104BE000404221B0F0BDBB899B05F8D4B86DFFF7FA
:104BF000ABFEF4E7002308AC636120336376103327
:104C0000A37607962E003378002B01D0252B48D1B0
:104C1000731B0593AE420BD02A0039000398FFF7AF
:104C2000A6FF013000D1AEE06369059A9B1863616D
:104C30003378002B00D1A6E00122002352426260AB
:104C400004A954325218751C2360E360A3601370EA
:104C5000A365594B052218002978059300F086FBBF
:104C60006E1C00281FD12268D30604D5532304A943
:104C70005B1820211970130704D5532304A95B186E
:104C80002B2119702B782A2B16D02E0000210A20F8
:104C9000E3683278751C303A092A50D9002911D1BD
:104CA00017E00136AFE7059B2268C01A0123834055
:104CB000134335002360CCE7079B191D1B68079140
:104CC000002B01DB0B9304E05B42E3600223134300
:104CD000236033782E2B0CD173782A2B34D1079B89
:104CE00002361A1D1B680792002B01DA01235B4272
:104CF0000993324D03222800317800F037FB002859
:104D000006D04023401B83402268013613432360B2
:104D1000317806222A48751C217600F027FB0028EE
:104D200040D0284B002B22D10722079B0733934307
:104D3000083307936369049A9B18636162E74343EE
:104D40002E0001219B18A4E700230A201900013638
:104D500063603278751C303A092A03D9002BC8D019
:104D60000991C6E741432E0001238918F1E707AAFC
:104D7000009221003A00144B039800E000BF049019
:104D8000049B0133D6D17B6EDB0705D4BB899B0521
:104D900002D4B86DFFF7D8FDBB895B0600D51EE7CE
:104DA0000D981EE707AA009221003A00064B0398CF
:104DB00000F07CF8E3E7C04630550008365500089F
:104DC0003A550008000000006F4B0008F7B51600C8
:104DD00001938A680B690C000090934200DA13007B
:104DE0002200336043321278002A01D0013333604D
:104DF00023689B0602D5336802333360226806239A
:104E000015001D401A4227D0230043331B785A1E39
:104E100093412268920630D4220001990098089D9F
:104E20004332A847013025D00622236800251340CD
:104E3000042B05D13368E568ED1AEB43DB171D4001
:104E4000A3682269934201DD9B1AED180026B54242
:104E500020D1002010E00135E36832689B1AAB4294
:104E6000D2DD2200012301990098089F1932B8472A
:104E70000130F0D101204042FEBD3020E118433125
:104E8000087021005A1C45310978A21843320233B8
:104E90001170C1E72200012301990098089F1A327E
:104EA000B8470130E6D00136D1E70000F0B58BB04D
:104EB00006920A0043320793059003920A7E0C0083
:104EC000109B782A09D8622A0BD8002A00D1BAE0B0
:104ED0007A490491582A00D18EE0250042352A7083
:104EE00022E0100063381528F7D8FBF70DF91600FB
:104EF0001F00F6FFF6FFF6FFF6FF1F00F6FFF6FFB6
:104F0000F6FFF6FF9F0036007E00F6FFF6FFB000CA
:104F1000F6FF3600F6FFF6FF820025001A684235DC
:104F2000111D196013682B7001239EE01868096831
:104F3000021D0D060BD506681A60002E03DA2D231C
:104F4000039A764213705D4B0A27049318E00668B3
:104F50001A604906F1D536B2EFE70868196840C90A
:104F6000050602D4400600D5B6B21960534B0A2795
:104F700004936F2A00D1023F2300002243331A70AA
:104F80006368A360002B06DB04212268039D8A432B
:104F9000226033430CD0039D30003900FBF744F905
:104FA000049B013D5B5C2B70330006009F42F3D9EC
:104FB000082F09D12368DB0706D5626823699A4266
:104FC00002DC3023013D2B70039B5B1B2361079B9D
:104FD000210000930598069B09AAFFF7F7FE013010
:104FE00048D1012040420BB0F0BD202209680A439D
:104FF0002260782232490491210045310A701968F3
:10500000226840C9100602D4500600D5B6B2196015
:10501000D30702D5202313432360002E01D010278D
:10502000AAE72022236893432360F8E71A680D68F3
:10503000101D4969186013682E0601D5196002E039
:105040006D06FBD519800023039D2361BFE71A6815
:10505000111D1960156800212800626800F086F9AA
:10506000002801D0401B6060636823610023039A1D
:105070001370ACE72A00236906990598079DA84795
:105080000130AED023689B0715D4099BE068984295
:10509000A9DA1800A7E72200012306990598079EC0
:1050A0001932B04701309CD00135E368099A9B1A48
:1050B000AB42F0DCE9E70025F7E7C04641550008C0
:1050C00052550008F7B50C228B5E05000C001A073C
:1050D00056D44A68002A02DC0A6C002A4EDDE76AD0
:1050E000002F4BD0002280202E682A601A00400139
:1050F000216A0240034233D0626DA3895B0706D563
:105100006368D21A636B002B01D0236CD21A002380
:105110002800E76A216AB847A289431C06D129689A
:105120001D2946D8294BCB40DB0742D500236360BD
:1051300023692360D20405D5431C02D12B68002BC0
:1051400000D16065616B2E60002917D023004433C5
:10515000994202D02800FFF7F9FB002363630DE0BA
:1051600001232800B8470200431CC6D12B68002B3E
:10517000C3D01D2B01D0162B1AD12E6000201EE0AB
:105180000E69002EFAD00F680E60BA1B0192002241
:105190009B0700D14A69A260019B002BEEDDA36A48
:1051A00032001F002800019B216AB847002807DC55
:1051B000A2894023012013431BB2A3814042FEBDBC
:1051C000019B36181B1A0193E6E7C04601004020F8
:1051D0000B6970B505000C00002B02D100252800DA
:1051E00070BD002804D0036A002B01D1FFF79AF9A3
:1051F0000C22A35E002BF1D0626ED20704D49B0573
:1052000002D4A06DFFF79FFB28002100FFF75AFF93
:10521000636E0500DB07E2D4A3899B05DFD4A06D94
:10522000FFF792FBDBE7000070B50E001D000E23B8
:10523000C95E140096B000290CDAB28980231100EF
:1052400019401A4214D18023DB000020296023601A
:1052500016B070BD6A4600F053F80028EDDBF0236D
:1052600001991B021940044BC9184B425941EAE706
:1052700000214023E9E7C04600E0FFFFF0B5022629
:105280008B8905000C0085B0334207D023004733DB
:10529000236023610123636105B0F0BD03AB02AA63
:1052A000FFF7C2FF029F019039002800FFF7BAFB09
:1052B000002808D10C22A35E9A05EDD40322934363
:1052C0001E43A681E2E78023A28920601343A381C5
:1052D000039B20616761002B0CD028000E23E15E48
:1052E00000F020F8002805D00323A2899A43023B4E
:1052F0001343A381A389019A1343A381CCE7000040
:10530000002370B5064D0400080011002B60FFF764
:105310002CF8431C03D12B68002B00D0236070BDF8
:1053200074030020002370B5064D040008002B60B4
:10533000FFF729F8431C03D12B68002B00D0236012
:1053400070BDC04674030020002370B5064D0400F4
:1053500008002B60FEF790FF431C03D12B68002B45
:1053600000D0236070BDC04674030020C9B282180B
:10537000904201D10020704703788B42FBD001306E
:10538000F6E70000F8B5C046F8BC08BC9E4670477A
:0C539000F8B5C046F8BC08BC9E4670474B
:10539C0031305E330000000031305E34000000001C
:1053AC0031305E36000000000D0A3D3D3D20546159
:1053BC00736B20373A2046697865642D506F696E9F
:1053CC00742041726974686D6574696320416E6103
:1053DC006C79736973203D3D3D0D00000D0A2D2D38
:1053EC002D205363616C696E6720466163746F7224
:1053FC003A2025732028256C7529202D2D2D0D0A7A
:10540C00000000005265736F6C7574696F6E202517
:10541C00757825753A20256C75206D732C20636882
:10542C0065636B73756D20256C752C206F766572BA
:10543C00666C6F777320256C750D0A000D0A3D3D67
:10544C003D2046697865642D506F696E7420416EFD
:10545C00616C797369732053756D6D617279203D40
:10546C003D3D0D005363616C696E6720466163744A
:10547C006F722025733A20546F74616C206F7665BF
:10548C0072666C6F7773203D20256C750D0A0000D9
:10549C00C40D0008820C0008600C00084C0C0008BD
:1054AC00600C0008660D0008600C00084C0C00082D
:1054BC00820C0008820C0008660D00084C0C0008D9
:1054CC00440C0008440C0008440C0008880D00082B
:1054DC00E80300001027000040420F008000A000ED
:1054EC00C000E000000100008000A000C000E0004F
:1054FC000001000002030405060708090A0B0C0D45
:10550C000E0F10100102030405060708090A0B0C04
:10551C000D0E0F100000000000000000010203043B
:10552C0006070809232D302B2000686C4C0065669B
:10553C0067454647003031323334353637383941D8
:10554C0042434445460030313233343536373839EE
:08555C006162636465660000F2
:0855640040CDFF7F01000000B3
:04556C00E90000084A
:04557000C10000086E
:105574009C530008A4530008AC5300080400000026
:105584000100000000127A00000000000300000087
:10559400380200202800002000000000380200200B
:1055A400A00200200803002000000000000000000A
:1055B40000000000000000000000000000000000E7
:1055C40000000000000000000000000000000000D7
:1055D40000000000000000000000000000000000C7
:0455E40000000000C3
:04000005080043B1FB
:00000001FF
